{
  "_format": "hh-sol-artifact-1",
  "contractName": "FlowERC20",
  "sourceName": "contracts/flow/erc20/FlowERC20.sol",
  "abi": [
    {
      "inputs": [
        {
          "components": [
            {
              "internalType": "address",
              "name": "deployer",
              "type": "address"
            },
            {
              "internalType": "bytes",
              "name": "meta",
              "type": "bytes"
            }
          ],
          "internalType": "struct DeployerDiscoverableMetaV1ConstructionConfig",
          "name": "config_",
          "type": "tuple"
        }
      ],
      "stateMutability": "nonpayable",
      "type": "constructor"
    },
    {
      "inputs": [
        {
          "internalType": "uint256",
          "name": "flowMinOutputs_",
          "type": "uint256"
        }
      ],
      "name": "BadMinStackLength",
      "type": "error"
    },
    {
      "inputs": [
        {
          "internalType": "uint256",
          "name": "i",
          "type": "uint256"
        }
      ],
      "name": "InvalidSignature",
      "type": "error"
    },
    {
      "inputs": [],
      "name": "InvalidTransfer",
      "type": "error"
    },
    {
      "inputs": [
        {
          "internalType": "bytes",
          "name": "unmeta",
          "type": "bytes"
        }
      ],
      "name": "NotRainMetaV1",
      "type": "error"
    },
    {
      "inputs": [
        {
          "internalType": "bytes32",
          "name": "expectedHash",
          "type": "bytes32"
        },
        {
          "internalType": "bytes32",
          "name": "actualHash",
          "type": "bytes32"
        }
      ],
      "name": "UnexpectedMetaHash",
      "type": "error"
    },
    {
      "inputs": [
        {
          "internalType": "bytes32",
          "name": "unregisteredHash",
          "type": "bytes32"
        }
      ],
      "name": "UnregisteredFlow",
      "type": "error"
    },
    {
      "inputs": [],
      "name": "UnsupportedERC1155Flow",
      "type": "error"
    },
    {
      "inputs": [],
      "name": "UnsupportedERC20Flow",
      "type": "error"
    },
    {
      "inputs": [],
      "name": "UnsupportedERC721Flow",
      "type": "error"
    },
    {
      "inputs": [],
      "name": "UnsupportedNativeFlow",
      "type": "error"
    },
    {
      "anonymous": false,
      "inputs": [
        {
          "indexed": true,
          "internalType": "address",
          "name": "owner",
          "type": "address"
        },
        {
          "indexed": true,
          "internalType": "address",
          "name": "spender",
          "type": "address"
        },
        {
          "indexed": false,
          "internalType": "uint256",
          "name": "value",
          "type": "uint256"
        }
      ],
      "name": "Approval",
      "type": "event"
    },
    {
      "anonymous": false,
      "inputs": [
        {
          "indexed": false,
          "internalType": "address",
          "name": "sender",
          "type": "address"
        },
        {
          "indexed": false,
          "internalType": "uint256[][]",
          "name": "context",
          "type": "uint256[][]"
        }
      ],
      "name": "Context",
      "type": "event"
    },
    {
      "anonymous": false,
      "inputs": [
        {
          "indexed": false,
          "internalType": "address",
          "name": "sender",
          "type": "address"
        },
        {
          "components": [
            {
              "internalType": "contract IInterpreterV1",
              "name": "interpreter",
              "type": "address"
            },
            {
              "internalType": "contract IInterpreterStoreV1",
              "name": "store",
              "type": "address"
            },
            {
              "internalType": "address",
              "name": "expression",
              "type": "address"
            }
          ],
          "indexed": false,
          "internalType": "struct Evaluable",
          "name": "evaluable",
          "type": "tuple"
        }
      ],
      "name": "FlowInitialized",
      "type": "event"
    },
    {
      "anonymous": false,
      "inputs": [
        {
          "indexed": false,
          "internalType": "address",
          "name": "sender",
          "type": "address"
        },
        {
          "components": [
            {
              "internalType": "string",
              "name": "name",
              "type": "string"
            },
            {
              "internalType": "string",
              "name": "symbol",
              "type": "string"
            },
            {
              "components": [
                {
                  "internalType": "contract IExpressionDeployerV1",
                  "name": "deployer",
                  "type": "address"
                },
                {
                  "internalType": "bytes[]",
                  "name": "sources",
                  "type": "bytes[]"
                },
                {
                  "internalType": "uint256[]",
                  "name": "constants",
                  "type": "uint256[]"
                }
              ],
              "internalType": "struct EvaluableConfig",
              "name": "evaluableConfig",
              "type": "tuple"
            },
            {
              "components": [
                {
                  "internalType": "contract IExpressionDeployerV1",
                  "name": "deployer",
                  "type": "address"
                },
                {
                  "internalType": "bytes[]",
                  "name": "sources",
                  "type": "bytes[]"
                },
                {
                  "internalType": "uint256[]",
                  "name": "constants",
                  "type": "uint256[]"
                }
              ],
              "internalType": "struct EvaluableConfig[]",
              "name": "flowConfig",
              "type": "tuple[]"
            }
          ],
          "indexed": false,
          "internalType": "struct FlowERC20Config",
          "name": "config",
          "type": "tuple"
        }
      ],
      "name": "Initialize",
      "type": "event"
    },
    {
      "anonymous": false,
      "inputs": [
        {
          "indexed": false,
          "internalType": "uint8",
          "name": "version",
          "type": "uint8"
        }
      ],
      "name": "Initialized",
      "type": "event"
    },
    {
      "anonymous": false,
      "inputs": [
        {
          "indexed": false,
          "internalType": "address",
          "name": "sender",
          "type": "address"
        },
        {
          "indexed": false,
          "internalType": "uint256",
          "name": "subject",
          "type": "uint256"
        },
        {
          "indexed": false,
          "internalType": "bytes",
          "name": "meta",
          "type": "bytes"
        }
      ],
      "name": "MetaV1",
      "type": "event"
    },
    {
      "anonymous": false,
      "inputs": [
        {
          "indexed": true,
          "internalType": "address",
          "name": "from",
          "type": "address"
        },
        {
          "indexed": true,
          "internalType": "address",
          "name": "to",
          "type": "address"
        },
        {
          "indexed": false,
          "internalType": "uint256",
          "name": "value",
          "type": "uint256"
        }
      ],
      "name": "Transfer",
      "type": "event"
    },
    {
      "inputs": [
        {
          "internalType": "address",
          "name": "owner",
          "type": "address"
        },
        {
          "internalType": "address",
          "name": "spender",
          "type": "address"
        }
      ],
      "name": "allowance",
      "outputs": [
        {
          "internalType": "uint256",
          "name": "",
          "type": "uint256"
        }
      ],
      "stateMutability": "view",
      "type": "function"
    },
    {
      "inputs": [
        {
          "internalType": "address",
          "name": "spender",
          "type": "address"
        },
        {
          "internalType": "uint256",
          "name": "amount",
          "type": "uint256"
        }
      ],
      "name": "approve",
      "outputs": [
        {
          "internalType": "bool",
          "name": "",
          "type": "bool"
        }
      ],
      "stateMutability": "nonpayable",
      "type": "function"
    },
    {
      "inputs": [
        {
          "internalType": "address",
          "name": "account",
          "type": "address"
        }
      ],
      "name": "balanceOf",
      "outputs": [
        {
          "internalType": "uint256",
          "name": "",
          "type": "uint256"
        }
      ],
      "stateMutability": "view",
      "type": "function"
    },
    {
      "inputs": [],
      "name": "decimals",
      "outputs": [
        {
          "internalType": "uint8",
          "name": "",
          "type": "uint8"
        }
      ],
      "stateMutability": "view",
      "type": "function"
    },
    {
      "inputs": [
        {
          "internalType": "address",
          "name": "spender",
          "type": "address"
        },
        {
          "internalType": "uint256",
          "name": "subtractedValue",
          "type": "uint256"
        }
      ],
      "name": "decreaseAllowance",
      "outputs": [
        {
          "internalType": "bool",
          "name": "",
          "type": "bool"
        }
      ],
      "stateMutability": "nonpayable",
      "type": "function"
    },
    {
      "inputs": [
        {
          "components": [
            {
              "internalType": "contract IInterpreterV1",
              "name": "interpreter",
              "type": "address"
            },
            {
              "internalType": "contract IInterpreterStoreV1",
              "name": "store",
              "type": "address"
            },
            {
              "internalType": "address",
              "name": "expression",
              "type": "address"
            }
          ],
          "internalType": "struct Evaluable",
          "name": "evaluable_",
          "type": "tuple"
        },
        {
          "internalType": "uint256[]",
          "name": "callerContext_",
          "type": "uint256[]"
        },
        {
          "components": [
            {
              "internalType": "address",
              "name": "signer",
              "type": "address"
            },
            {
              "internalType": "bytes",
              "name": "signature",
              "type": "bytes"
            },
            {
              "internalType": "uint256[]",
              "name": "context",
              "type": "uint256[]"
            }
          ],
          "internalType": "struct SignedContext[]",
          "name": "signedContexts_",
          "type": "tuple[]"
        }
      ],
      "name": "flow",
      "outputs": [
        {
          "components": [
            {
              "components": [
                {
                  "internalType": "address",
                  "name": "account",
                  "type": "address"
                },
                {
                  "internalType": "uint256",
                  "name": "amount",
                  "type": "uint256"
                }
              ],
              "internalType": "struct ERC20SupplyChange[]",
              "name": "mints",
              "type": "tuple[]"
            },
            {
              "components": [
                {
                  "internalType": "address",
                  "name": "account",
                  "type": "address"
                },
                {
                  "internalType": "uint256",
                  "name": "amount",
                  "type": "uint256"
                }
              ],
              "internalType": "struct ERC20SupplyChange[]",
              "name": "burns",
              "type": "tuple[]"
            },
            {
              "components": [
                {
                  "components": [
                    {
                      "internalType": "address",
                      "name": "from",
                      "type": "address"
                    },
                    {
                      "internalType": "address",
                      "name": "to",
                      "type": "address"
                    },
                    {
                      "internalType": "uint256",
                      "name": "amount",
                      "type": "uint256"
                    }
                  ],
                  "internalType": "struct NativeTransfer[]",
                  "name": "native",
                  "type": "tuple[]"
                },
                {
                  "components": [
                    {
                      "internalType": "address",
                      "name": "token",
                      "type": "address"
                    },
                    {
                      "internalType": "address",
                      "name": "from",
                      "type": "address"
                    },
                    {
                      "internalType": "address",
                      "name": "to",
                      "type": "address"
                    },
                    {
                      "internalType": "uint256",
                      "name": "amount",
                      "type": "uint256"
                    }
                  ],
                  "internalType": "struct ERC20Transfer[]",
                  "name": "erc20",
                  "type": "tuple[]"
                },
                {
                  "components": [
                    {
                      "internalType": "address",
                      "name": "token",
                      "type": "address"
                    },
                    {
                      "internalType": "address",
                      "name": "from",
                      "type": "address"
                    },
                    {
                      "internalType": "address",
                      "name": "to",
                      "type": "address"
                    },
                    {
                      "internalType": "uint256",
                      "name": "id",
                      "type": "uint256"
                    }
                  ],
                  "internalType": "struct ERC721Transfer[]",
                  "name": "erc721",
                  "type": "tuple[]"
                },
                {
                  "components": [
                    {
                      "internalType": "address",
                      "name": "token",
                      "type": "address"
                    },
                    {
                      "internalType": "address",
                      "name": "from",
                      "type": "address"
                    },
                    {
                      "internalType": "address",
                      "name": "to",
                      "type": "address"
                    },
                    {
                      "internalType": "uint256",
                      "name": "id",
                      "type": "uint256"
                    },
                    {
                      "internalType": "uint256",
                      "name": "amount",
                      "type": "uint256"
                    }
                  ],
                  "internalType": "struct ERC1155Transfer[]",
                  "name": "erc1155",
                  "type": "tuple[]"
                }
              ],
              "internalType": "struct FlowTransfer",
              "name": "flow",
              "type": "tuple"
            }
          ],
          "internalType": "struct FlowERC20IO",
          "name": "",
          "type": "tuple"
        }
      ],
      "stateMutability": "payable",
      "type": "function"
    },
    {
      "inputs": [
        {
          "internalType": "address",
          "name": "spender",
          "type": "address"
        },
        {
          "internalType": "uint256",
          "name": "addedValue",
          "type": "uint256"
        }
      ],
      "name": "increaseAllowance",
      "outputs": [
        {
          "internalType": "bool",
          "name": "",
          "type": "bool"
        }
      ],
      "stateMutability": "nonpayable",
      "type": "function"
    },
    {
      "inputs": [
        {
          "internalType": "bytes",
          "name": "data_",
          "type": "bytes"
        }
      ],
      "name": "initialize",
      "outputs": [],
      "stateMutability": "nonpayable",
      "type": "function"
    },
    {
      "inputs": [
        {
          "internalType": "bytes[]",
          "name": "data",
          "type": "bytes[]"
        }
      ],
      "name": "multicall",
      "outputs": [
        {
          "internalType": "bytes[]",
          "name": "results",
          "type": "bytes[]"
        }
      ],
      "stateMutability": "nonpayable",
      "type": "function"
    },
    {
      "inputs": [],
      "name": "name",
      "outputs": [
        {
          "internalType": "string",
          "name": "",
          "type": "string"
        }
      ],
      "stateMutability": "view",
      "type": "function"
    },
    {
      "inputs": [
        {
          "internalType": "address",
          "name": "",
          "type": "address"
        },
        {
          "internalType": "address",
          "name": "",
          "type": "address"
        },
        {
          "internalType": "uint256[]",
          "name": "",
          "type": "uint256[]"
        },
        {
          "internalType": "uint256[]",
          "name": "",
          "type": "uint256[]"
        },
        {
          "internalType": "bytes",
          "name": "",
          "type": "bytes"
        }
      ],
      "name": "onERC1155BatchReceived",
      "outputs": [
        {
          "internalType": "bytes4",
          "name": "",
          "type": "bytes4"
        }
      ],
      "stateMutability": "nonpayable",
      "type": "function"
    },
    {
      "inputs": [
        {
          "internalType": "address",
          "name": "",
          "type": "address"
        },
        {
          "internalType": "address",
          "name": "",
          "type": "address"
        },
        {
          "internalType": "uint256",
          "name": "",
          "type": "uint256"
        },
        {
          "internalType": "uint256",
          "name": "",
          "type": "uint256"
        },
        {
          "internalType": "bytes",
          "name": "",
          "type": "bytes"
        }
      ],
      "name": "onERC1155Received",
      "outputs": [
        {
          "internalType": "bytes4",
          "name": "",
          "type": "bytes4"
        }
      ],
      "stateMutability": "nonpayable",
      "type": "function"
    },
    {
      "inputs": [
        {
          "internalType": "address",
          "name": "",
          "type": "address"
        },
        {
          "internalType": "address",
          "name": "",
          "type": "address"
        },
        {
          "internalType": "uint256",
          "name": "",
          "type": "uint256"
        },
        {
          "internalType": "bytes",
          "name": "",
          "type": "bytes"
        }
      ],
      "name": "onERC721Received",
      "outputs": [
        {
          "internalType": "bytes4",
          "name": "",
          "type": "bytes4"
        }
      ],
      "stateMutability": "nonpayable",
      "type": "function"
    },
    {
      "inputs": [
        {
          "components": [
            {
              "internalType": "contract IInterpreterV1",
              "name": "interpreter",
              "type": "address"
            },
            {
              "internalType": "contract IInterpreterStoreV1",
              "name": "store",
              "type": "address"
            },
            {
              "internalType": "address",
              "name": "expression",
              "type": "address"
            }
          ],
          "internalType": "struct Evaluable",
          "name": "evaluable_",
          "type": "tuple"
        },
        {
          "internalType": "uint256[]",
          "name": "callerContext_",
          "type": "uint256[]"
        },
        {
          "components": [
            {
              "internalType": "address",
              "name": "signer",
              "type": "address"
            },
            {
              "internalType": "bytes",
              "name": "signature",
              "type": "bytes"
            },
            {
              "internalType": "uint256[]",
              "name": "context",
              "type": "uint256[]"
            }
          ],
          "internalType": "struct SignedContext[]",
          "name": "signedContexts_",
          "type": "tuple[]"
        }
      ],
      "name": "previewFlow",
      "outputs": [
        {
          "components": [
            {
              "components": [
                {
                  "internalType": "address",
                  "name": "account",
                  "type": "address"
                },
                {
                  "internalType": "uint256",
                  "name": "amount",
                  "type": "uint256"
                }
              ],
              "internalType": "struct ERC20SupplyChange[]",
              "name": "mints",
              "type": "tuple[]"
            },
            {
              "components": [
                {
                  "internalType": "address",
                  "name": "account",
                  "type": "address"
                },
                {
                  "internalType": "uint256",
                  "name": "amount",
                  "type": "uint256"
                }
              ],
              "internalType": "struct ERC20SupplyChange[]",
              "name": "burns",
              "type": "tuple[]"
            },
            {
              "components": [
                {
                  "components": [
                    {
                      "internalType": "address",
                      "name": "from",
                      "type": "address"
                    },
                    {
                      "internalType": "address",
                      "name": "to",
                      "type": "address"
                    },
                    {
                      "internalType": "uint256",
                      "name": "amount",
                      "type": "uint256"
                    }
                  ],
                  "internalType": "struct NativeTransfer[]",
                  "name": "native",
                  "type": "tuple[]"
                },
                {
                  "components": [
                    {
                      "internalType": "address",
                      "name": "token",
                      "type": "address"
                    },
                    {
                      "internalType": "address",
                      "name": "from",
                      "type": "address"
                    },
                    {
                      "internalType": "address",
                      "name": "to",
                      "type": "address"
                    },
                    {
                      "internalType": "uint256",
                      "name": "amount",
                      "type": "uint256"
                    }
                  ],
                  "internalType": "struct ERC20Transfer[]",
                  "name": "erc20",
                  "type": "tuple[]"
                },
                {
                  "components": [
                    {
                      "internalType": "address",
                      "name": "token",
                      "type": "address"
                    },
                    {
                      "internalType": "address",
                      "name": "from",
                      "type": "address"
                    },
                    {
                      "internalType": "address",
                      "name": "to",
                      "type": "address"
                    },
                    {
                      "internalType": "uint256",
                      "name": "id",
                      "type": "uint256"
                    }
                  ],
                  "internalType": "struct ERC721Transfer[]",
                  "name": "erc721",
                  "type": "tuple[]"
                },
                {
                  "components": [
                    {
                      "internalType": "address",
                      "name": "token",
                      "type": "address"
                    },
                    {
                      "internalType": "address",
                      "name": "from",
                      "type": "address"
                    },
                    {
                      "internalType": "address",
                      "name": "to",
                      "type": "address"
                    },
                    {
                      "internalType": "uint256",
                      "name": "id",
                      "type": "uint256"
                    },
                    {
                      "internalType": "uint256",
                      "name": "amount",
                      "type": "uint256"
                    }
                  ],
                  "internalType": "struct ERC1155Transfer[]",
                  "name": "erc1155",
                  "type": "tuple[]"
                }
              ],
              "internalType": "struct FlowTransfer",
              "name": "flow",
              "type": "tuple"
            }
          ],
          "internalType": "struct FlowERC20IO",
          "name": "",
          "type": "tuple"
        }
      ],
      "stateMutability": "view",
      "type": "function"
    },
    {
      "inputs": [
        {
          "internalType": "bytes4",
          "name": "interfaceId",
          "type": "bytes4"
        }
      ],
      "name": "supportsInterface",
      "outputs": [
        {
          "internalType": "bool",
          "name": "",
          "type": "bool"
        }
      ],
      "stateMutability": "view",
      "type": "function"
    },
    {
      "inputs": [],
      "name": "symbol",
      "outputs": [
        {
          "internalType": "string",
          "name": "",
          "type": "string"
        }
      ],
      "stateMutability": "view",
      "type": "function"
    },
    {
      "inputs": [],
      "name": "totalSupply",
      "outputs": [
        {
          "internalType": "uint256",
          "name": "",
          "type": "uint256"
        }
      ],
      "stateMutability": "view",
      "type": "function"
    },
    {
      "inputs": [
        {
          "internalType": "address",
          "name": "to",
          "type": "address"
        },
        {
          "internalType": "uint256",
          "name": "amount",
          "type": "uint256"
        }
      ],
      "name": "transfer",
      "outputs": [
        {
          "internalType": "bool",
          "name": "",
          "type": "bool"
        }
      ],
      "stateMutability": "nonpayable",
      "type": "function"
    },
    {
      "inputs": [
        {
          "internalType": "address",
          "name": "from",
          "type": "address"
        },
        {
          "internalType": "address",
          "name": "to",
          "type": "address"
        },
        {
          "internalType": "uint256",
          "name": "amount",
          "type": "uint256"
        }
      ],
      "name": "transferFrom",
      "outputs": [
        {
          "internalType": "bool",
          "name": "",
          "type": "bool"
        }
      ],
      "stateMutability": "nonpayable",
      "type": "function"
    },
    {
      "stateMutability": "payable",
      "type": "receive"
    }
  ],
  "bytecode": "0x60806040523480156200001157600080fd5b5060405162005690380380620056908339810160408190526200003491620003c1565b7fd3d6fac8ef3c2af1a6aef6a758d8577421b6ef6bd7609c9fa7ca3a8ecc1c14e860001b81818162000076828260200151620000e760201b62000c251760201c565b60208101516040517fbea766d03fa1efd3f81cc8634d08320bc62bb0ed9234ac59bbaafa5893fb6b1391620000af9133913091620004cf565b60405180910390a1620000d181600001516200012e60201b62000c781760201c565b50620000de9050620001f2565b50505062000641565b805160208201208281146200011e5760405163074fe10f60e41b815260048101849052602481018290526044015b60405180910390fd5b6200012982620002b1565b505050565b604080516000808252602082019092526001600160a01b03831691635511cb6791906200016c565b6060815260200190600190039081620001565790505b5060408051600080825260208201908152818301928390526001600160e01b031960e086901b16909252620001a69291604482016200053e565b6060604051808303816000875af1158015620001c6573d6000803e3d6000fd5b505050506040513d601f19601f82011682018060405250810190620001ec9190620005d1565b50505050565b600054610100900460ff16156200025c5760405162461bcd60e51b815260206004820152602760248201527f496e697469616c697a61626c653a20636f6e747261637420697320696e697469604482015266616c697a696e6760c81b606482015260840162000115565b60005460ff9081161015620002af576000805460ff191660ff9081179091556040519081527f7f26b83ff96e1f2b6a682f133852f6798a09c465da95921460cefb38474024989060200160405180910390a15b565b620002bc81620002e1565b620002de5780604051630c89984b60e31b815260040162000115919062000625565b50565b6000600882511015620002f657506000919050565b50600801516001600160401b031667ff0a89c674ee78741490565b634e487b7160e01b600052604160045260246000fd5b604080519081016001600160401b03811182821017156200034c576200034c62000311565b60405290565b604051601f8201601f191681016001600160401b03811182821017156200037d576200037d62000311565b604052919050565b6001600160a01b0381168114620002de57600080fd5b60005b83811015620003b85781810151838201526020016200039e565b50506000910152565b60006020808385031215620003d557600080fd5b82516001600160401b0380821115620003ed57600080fd5b90840190604082870312156200040257600080fd5b6200040c62000327565b8251620004198162000385565b815282840151828111156200042d57600080fd5b80840193505086601f8401126200044357600080fd5b82518281111562000458576200045862000311565b6200046c601f8201601f1916860162000352565b925080835287858286010111156200048357600080fd5b62000494818685018787016200039b565b5092830152509392505050565b60008151808452620004bb8160208601602086016200039b565b601f01601f19169290920160200192915050565b60018060a01b0384168152826020820152606060408201526000620004f86060830184620004a1565b95945050505050565b600081518084526020808501945080840160005b83811015620005335781518752958201959082019060010162000515565b509495945050505050565b6000606082016060835280865180835260808501915060808160051b8601019250602080890160005b838110156200059957607f1988870301855262000586868351620004a1565b9550938201939082019060010162000567565b505085840381870152505050620005b1818662000501565b90508281036040840152620005c7818562000501565b9695505050505050565b600080600060608486031215620005e757600080fd5b8351620005f48162000385565b6020850151909350620006078162000385565b60408501519092506200061a8162000385565b809150509250925092565b6020815260006200063a6020830184620004a1565b9392505050565b61503f80620006516000396000f3fe6080604052600436106101485760003560e01c806370a08231116100c0578063bc197c8111610074578063dd62ed3e11610059578063dd62ed3e146103e5578063f23a6e6114610439578063f64201121461047e57600080fd5b8063bc197c8114610380578063bffc7d48146103c557600080fd5b8063a457c2d7116100a5578063a457c2d714610313578063a9059cbb14610333578063ac9650d81461035357600080fd5b806370a08231146102ba57806395d89b41146102fe57600080fd5b806318160ddd11610117578063313ce567116100fc578063313ce5671461025c5780633950935114610278578063439fab911461029857600080fd5b806318160ddd1461021c57806323b872dd1461023c57600080fd5b806301ffc9a71461015457806306fdde0314610189578063095ea7b3146101ab578063150b7a02146101cb57600080fd5b3661014f57005b600080fd5b34801561016057600080fd5b5061017461016f366004613b1a565b61049e565b60405190151581526020015b60405180910390f35b34801561019557600080fd5b5061019e610537565b6040516101809190613bca565b3480156101b757600080fd5b506101746101c6366004613bff565b6105ca565b3480156101d757600080fd5b506101eb6101e6366004613d83565b6105e2565b6040517fffffffff000000000000000000000000000000000000000000000000000000009091168152602001610180565b34801561022857600080fd5b50610162545b604051908152602001610180565b34801561024857600080fd5b50610174610257366004613def565b61060c565b34801561026857600080fd5b5060405160128152602001610180565b34801561028457600080fd5b50610174610293366004613bff565b610632565b3480156102a457600080fd5b506102b86102b3366004613e30565b61067f565b005b3480156102c657600080fd5b5061022e6102d5366004613ea2565b73ffffffffffffffffffffffffffffffffffffffff166000908152610160602052604090205490565b34801561030a57600080fd5b5061019e6109bf565b34801561031f57600080fd5b5061017461032e366004613bff565b6109cf565b34801561033f57600080fd5b5061017461034e366004613bff565b610aac565b34801561035f57600080fd5b5061037361036e366004613ebf565b610aba565b6040516101809190613f77565b34801561038c57600080fd5b506101eb61039b36600461400e565b7fbc197c810000000000000000000000000000000000000000000000000000000095945050505050565b6103d86103d33660046140bc565b610baf565b60405161018091906143b2565b3480156103f157600080fd5b5061022e6104003660046144d3565b73ffffffffffffffffffffffffffffffffffffffff91821660009081526101616020908152604080832093909416825291909152205490565b34801561044557600080fd5b506101eb61045436600461450c565b7ff23a6e610000000000000000000000000000000000000000000000000000000095945050505050565b34801561048a57600080fd5b506103d86104993660046140bc565b610bc2565b60007fffffffff0000000000000000000000000000000000000000000000000000000082167f4e2312e000000000000000000000000000000000000000000000000000000000148061053157507f01ffc9a7000000000000000000000000000000000000000000000000000000007fffffffff000000000000000000000000000000000000000000000000000000008316145b92915050565b6060610163805461054790614575565b80601f016020809104026020016040519081016040528092919081815260200182805461057390614575565b80156105c05780601f10610595576101008083540402835291602001916105c0565b820191906000526020600020905b8154815290600101906020018083116105a357829003601f168201915b5050505050905090565b6000336105d8818585610d5a565b5060019392505050565b7f150b7a02000000000000000000000000000000000000000000000000000000005b949350505050565b60003361061a858285610f0e565b610625858585610fe0565b60019150505b9392505050565b3360008181526101616020908152604080832073ffffffffffffffffffffffffffffffffffffffff871684529091528120549091906105d8908290869061067a9087906145f7565b610d5a565b600054610100900460ff161580801561069f5750600054600160ff909116105b806106b95750303b1580156106b9575060005460ff166001145b61074a576040517f08c379a000000000000000000000000000000000000000000000000000000000815260206004820152602e60248201527f496e697469616c697a61626c653a20636f6e747261637420697320616c72656160448201527f647920696e697469616c697a656400000000000000000000000000000000000060648201526084015b60405180910390fd5b600080547fffffffffffffffffffffffffffffffffffffffffffffffffffffffffffffff0016600117905580156107a857600080547fffffffffffffffffffffffffffffffffffffffffffffffffffffffffffff00ff166101001790555b60006107b68385018561477f565b90507fc82272b36b3b8d29347f1a457f530c7a00d77c3a567896ecf7f0ba3f9477e7bf33826040516107e99291906148d6565b60405180910390a16107f961125e565b61080b816000015182602001516112ff565b600080600083604001516000015173ffffffffffffffffffffffffffffffffffffffff16635511cb6785604001516020015186604001516040015161085060016113a4565b6040518463ffffffff1660e01b815260040161086e939291906149ee565b6060604051808303816000875af115801561088d573d6000803e3d6000fd5b505050506040513d601f19601f820116820180604052508101906108b19190614a31565b604080516060808201835273ffffffffffffffffffffffffffffffffffffffff808716808452818716602085018190529186169390940183905261019280547fffffffffffffffffffffffff00000000000000000000000000000000000000009081169095179055610193805485169091179055610194805490931690911790915587015192955090935091506109539061094e600460026145f7565b6113d6565b5050505080156109ba57600080547fffffffffffffffffffffffffffffffffffffffffffffffffffffffffffff00ff169055604051600181527f7f26b83ff96e1f2b6a682f133852f6798a09c465da95921460cefb38474024989060200160405180910390a15b505050565b6060610164805461054790614575565b3360008181526101616020908152604080832073ffffffffffffffffffffffffffffffffffffffff8716845290915281205490919083811015610a94576040517f08c379a000000000000000000000000000000000000000000000000000000000815260206004820152602560248201527f45524332303a2064656372656173656420616c6c6f77616e63652062656c6f7760448201527f207a65726f0000000000000000000000000000000000000000000000000000006064820152608401610741565b610aa18286868403610d5a565b506001949350505050565b6000336105d8818585610fe0565b60608167ffffffffffffffff811115610ad557610ad5613c2b565b604051908082528060200260200182016040528015610b0857816020015b6060815260200190600190039081610af35790505b50905060005b82811015610ba857610b7830858584818110610b2c57610b2c614a7e565b9050602002810190610b3e9190614aad565b8080601f0160208091040260200160405190810160405280939291908181526020018383808284376000920191909152506116b692505050565b828281518110610b8a57610b8a614a7e565b60200260200101819052508080610ba090614b12565b915050610b0e565b5092915050565b610bb7613ad1565b6106048484846117f5565b610bca613ad1565b6000610c0c815b604051908082528060200260200182016040528015610c0457816020015b6060815260200190600190039081610bef5790505b508585611943565b90506000610c1a8683611c49565b509695505050505050565b80516020820120828114610c6f576040517f74fe10f00000000000000000000000000000000000000000000000000000000081526004810184905260248101829052604401610741565b6109ba82611d68565b6040805160008082526020820190925273ffffffffffffffffffffffffffffffffffffffff831691635511cb679190610cc1565b6060815260200190600190039081610cac5790505b5060408051600080825260208201908152818301928390527fffffffff0000000000000000000000000000000000000000000000000000000060e086901b16909252610d119291604482016149ee565b6060604051808303816000875af1158015610d30573d6000803e3d6000fd5b505050506040513d601f19601f82011682018060405250810190610d549190614a31565b50505050565b73ffffffffffffffffffffffffffffffffffffffff8316610dfc576040517f08c379a0000000000000000000000000000000000000000000000000000000008152602060048201526024808201527f45524332303a20617070726f76652066726f6d20746865207a65726f2061646460448201527f72657373000000000000000000000000000000000000000000000000000000006064820152608401610741565b73ffffffffffffffffffffffffffffffffffffffff8216610e9f576040517f08c379a000000000000000000000000000000000000000000000000000000000815260206004820152602260248201527f45524332303a20617070726f766520746f20746865207a65726f20616464726560448201527f73730000000000000000000000000000000000000000000000000000000000006064820152608401610741565b73ffffffffffffffffffffffffffffffffffffffff8381166000818152610161602090815260408083209487168084529482529182902085905590518481527f8c5be1e5ebec7d5bd14f71427d1e84f3dd0314c0f7b2291e5b200ac8c7c3b925910160405180910390a3505050565b73ffffffffffffffffffffffffffffffffffffffff838116600090815261016160209081526040808320938616835292905220547fffffffffffffffffffffffffffffffffffffffffffffffffffffffffffffffff8114610d545781811015610fd3576040517f08c379a000000000000000000000000000000000000000000000000000000000815260206004820152601d60248201527f45524332303a20696e73756666696369656e7420616c6c6f77616e63650000006044820152606401610741565b610d548484848403610d5a565b73ffffffffffffffffffffffffffffffffffffffff8316611083576040517f08c379a000000000000000000000000000000000000000000000000000000000815260206004820152602560248201527f45524332303a207472616e736665722066726f6d20746865207a65726f20616460448201527f64726573730000000000000000000000000000000000000000000000000000006064820152608401610741565b73ffffffffffffffffffffffffffffffffffffffff8216611126576040517f08c379a000000000000000000000000000000000000000000000000000000000815260206004820152602360248201527f45524332303a207472616e7366657220746f20746865207a65726f206164647260448201527f65737300000000000000000000000000000000000000000000000000000000006064820152608401610741565b73ffffffffffffffffffffffffffffffffffffffff831660009081526101606020526040902054818110156111dd576040517f08c379a000000000000000000000000000000000000000000000000000000000815260206004820152602660248201527f45524332303a207472616e7366657220616d6f756e742065786365656473206260448201527f616c616e636500000000000000000000000000000000000000000000000000006064820152608401610741565b73ffffffffffffffffffffffffffffffffffffffff8085166000818152610160602052604080822086860390559286168082529083902080548601905591517fddf252ad1be2c89b69c2b068fc378daa952ba7f163c4a11628f55a4df523b3ef9061124b9086815260200190565b60405180910390a3610d54848484611dac565b600054610100900460ff166112f5576040517f08c379a000000000000000000000000000000000000000000000000000000000815260206004820152602b60248201527f496e697469616c697a61626c653a20636f6e7472616374206973206e6f74206960448201527f6e697469616c697a696e670000000000000000000000000000000000000000006064820152608401610741565b6112fd61209a565b565b600054610100900460ff16611396576040517f08c379a000000000000000000000000000000000000000000000000000000000815260206004820152602b60248201527f496e697469616c697a61626c653a20636f6e7472616374206973206e6f74206960448201527f6e697469616c697a696e670000000000000000000000000000000000000000006064820152608401610741565b6113a08282612137565b5050565b604080516001808252818301909252606091600091906020808301908036833750505060208101939093525090919050565b600054610100900460ff1661146d576040517f08c379a000000000000000000000000000000000000000000000000000000000815260206004820152602b60248201527f496e697469616c697a61626c653a20636f6e7472616374206973206e6f74206960448201527f6e697469616c697a696e670000000000000000000000000000000000000000006064820152608401610741565b6114756121e9565b61147d6121e9565b6114856121e9565b60048110156114c3576040517fb0682cf300000000000000000000000000000000000000000000000000000000815260048101829052602401610741565b6114fd6040518060600160405280600073ffffffffffffffffffffffffffffffffffffffff16815260200160608152602001606081525090565b60408051606081018252600080825260208201819052918101829052905b84518110156116af5784818151811061153657611536614a7e565b602002602001015192506000806000856000015173ffffffffffffffffffffffffffffffffffffffff16635511cb67876020015188604001516115788b6113a4565b6040518463ffffffff1660e01b8152600401611596939291906149ee565b6060604051808303816000875af11580156115b5573d6000803e3d6000fd5b505050506040513d601f19601f820116820180604052508101906115d99190614a31565b92509250925060405180606001604052808473ffffffffffffffffffffffffffffffffffffffff1681526020018373ffffffffffffffffffffffffffffffffffffffff1681526020018273ffffffffffffffffffffffffffffffffffffffff168152509450600161012d600061164e88612280565b8152602001908152602001600020819055507fed510090abe2a95b97a621e3d2c947ea3c26eced1c87470474d17e353dcc53383386604051611691929190614b4a565b60405180910390a150505080806116a790614b12565b91505061151b565b5050505050565b606073ffffffffffffffffffffffffffffffffffffffff83163b61175c576040517f08c379a000000000000000000000000000000000000000000000000000000000815260206004820152602660248201527f416464726573733a2064656c65676174652063616c6c20746f206e6f6e2d636f60448201527f6e747261637400000000000000000000000000000000000000000000000000006064820152608401610741565b6000808473ffffffffffffffffffffffffffffffffffffffff16846040516117849190614ba3565b600060405180830381855af49150503d80600081146117bf576040519150601f19603f3d011682016040523d82523d6000602084013e6117c4565b606091505b50915091506117ec8282604051806060016040528060278152602001614fe3602791396122b0565b95945050505050565b6117fd613ad1565b6118056122c9565b600061181081610bd1565b90507f17a5c0f3785132a57703932032f6863e7920434150aa1dc940e567b440fdce1f3382604051611843929190614c07565b60405180910390a16000806118588784611c49565b9150915060005b8251518110156118bd576118b58360000151828151811061188257611882614a7e565b602002602001015160000151846000015183815181106118a4576118a4614a7e565b60200260200101516020015161233c565b60010161185f565b5060005b8260200151518110156119225761191a836020015182815181106118e7576118e7614a7e565b6020026020010151600001518460200151838151811061190957611909614a7e565b60200260200101516020015161243b565b6001016118c1565b50611936826040015188602001518361260b565b5091505061062b60018055565b60606000825167ffffffffffffffff81111561196157611961613c2b565b60405190808252806020026020018201604052801561198a578160200160208202803683370190505b50905060008084511161199e5760006119a4565b83516001015b865101600201905060008167ffffffffffffffff8111156119c7576119c7613c2b565b6040519080825280602002602001820160405280156119fa57816020015b60608152602001906001900390816119e55790505b5090506000611a076126be565b828281518110611a1957611a19614a7e565b602002602001018190525060005b8851811015611a77578180600101925050888181518110611a4a57611a4a614a7e565b6020026020010151838381518110611a6457611a64614a7e565b6020908102919091010152600101611a27565b50808060010191505086828281518110611a9357611a93614a7e565b6020908102919091010152855115610c1a57808060010191505083828281518110611ac057611ac0614a7e565b602002602001018190525060005b8651811015611c3d57611b67878281518110611aec57611aec614a7e565b602002602001015160000151611b44898481518110611b0d57611b0d614a7e565b602002602001015160400151604051602001611b299190614c36565b604051602081830303815290604052805190602001206126cf565b898481518110611b5657611b56614a7e565b60200260200101516020015161270a565b611ba0576040517f52bf984800000000000000000000000000000000000000000000000000000000815260048101829052602401610741565b868181518110611bb257611bb2614a7e565b60200260200101516000015173ffffffffffffffffffffffffffffffffffffffff16858281518110611be657611be6614a7e565b6020026020010181815250508180600101925050868181518110611c0c57611c0c614a7e565b602002602001015160400151838381518110611c2a57611c2a614a7e565b6020908102919091010152600101611ace565b50509695505050505050565b611c51613ad1565b606080611c5c613ad1565b6000806000611c6b89896128d7565b60408051808201909152601881527f5241494e5f464c4f575f45524332305f53454e54494e454c000000000000000060209091015291945092509050611cd482847ff339171dab445c29f9897dda2f42413426ee907dc7f8b52bd387bc7cf9384c6b6002612a16565b80865260408051808201909152601881527f5241494e5f464c4f575f45524332305f53454e54494e454c000000000000000060209091015295509150611d3d82847ff339171dab445c29f9897dda2f42413426ee907dc7f8b52bd387bc7cf9384c6b6002612a16565b6020860181905295509150611d528383612ac8565b60408501529295509193505050505b9250929050565b611d7181612cd4565b611da957806040517f644cc2580000000000000000000000000000000000000000000000000000000081526004016107419190613bca565b50565b73ffffffffffffffffffffffffffffffffffffffff83161580611de3575073ffffffffffffffffffffffffffffffffffffffff8216155b6109ba57604080516060810182526101925473ffffffffffffffffffffffffffffffffffffffff908116825261019354811660208301526101945416918101919091526000611f0081604051908082528060200260200182016040528015611e5f57816020015b6060815260200190600190039081611e4a5790505b50611e978773ffffffffffffffffffffffffffffffffffffffff168773ffffffffffffffffffffffffffffffffffffffff1687612d04565b6040805160008082526020820190925290611efa565b611ee76040518060600160405280600073ffffffffffffffffffffffffffffffffffffffff16815260200160608152602001606081525090565b815260200190600190039081611ead5790505b50611943565b9050600080836000015173ffffffffffffffffffffffffffffffffffffffff16636715f82585602001516000611f398860400151612d41565b876040518563ffffffff1660e01b8152600401611f599493929190614c6c565b600060405180830381865afa158015611f76573d6000803e3d6000fd5b505050506040513d6000823e601f3d9081017fffffffffffffffffffffffffffffffffffffffffffffffffffffffffffffffe0168201604052611fbc9190810190614d02565b9150915081600183510381518110611fd657611fd6614a7e565b6020026020010151600003612017576040517f2f35253100000000000000000000000000000000000000000000000000000000815260040160405180910390fd5b80511561209157836020015173ffffffffffffffffffffffffffffffffffffffff1663946aadc66000836040518363ffffffff1660e01b815260040161205e929190614d66565b600060405180830381600087803b15801561207857600080fd5b505af115801561208c573d6000803e3d6000fd5b505050505b50505050505050565b600054610100900460ff16612131576040517f08c379a000000000000000000000000000000000000000000000000000000000815260206004820152602b60248201527f496e697469616c697a61626c653a20636f6e7472616374206973206e6f74206960448201527f6e697469616c697a696e670000000000000000000000000000000000000000006064820152608401610741565b60018055565b600054610100900460ff166121ce576040517f08c379a000000000000000000000000000000000000000000000000000000000815260206004820152602b60248201527f496e697469616c697a61626c653a20636f6e7472616374206973206e6f74206960448201527f6e697469616c697a696e670000000000000000000000000000000000000000006064820152608401610741565b6101636121db8382614dcd565b506101646109ba8282614dcd565b600054610100900460ff166112fd576040517f08c379a000000000000000000000000000000000000000000000000000000000815260206004820152602b60248201527f496e697469616c697a61626c653a20636f6e7472616374206973206e6f74206960448201527f6e697469616c697a696e670000000000000000000000000000000000000000006064820152608401610741565b6000816040516020016122939190614ee7565b604051602081830303815290604052805190602001209050919050565b606083156122bf57508161062b565b61062b8383612d6a565b600260015403612335576040517f08c379a000000000000000000000000000000000000000000000000000000000815260206004820152601f60248201527f5265656e7472616e637947756172643a207265656e7472616e742063616c6c006044820152606401610741565b6002600155565b73ffffffffffffffffffffffffffffffffffffffff82166123b9576040517f08c379a000000000000000000000000000000000000000000000000000000000815260206004820152601f60248201527f45524332303a206d696e7420746f20746865207a65726f2061646472657373006044820152606401610741565b8061016260008282546123cc91906145f7565b909155505073ffffffffffffffffffffffffffffffffffffffff8216600081815261016060209081526040808320805486019055518481527fddf252ad1be2c89b69c2b068fc378daa952ba7f163c4a11628f55a4df523b3ef910160405180910390a36113a060008383611dac565b73ffffffffffffffffffffffffffffffffffffffff82166124de576040517f08c379a000000000000000000000000000000000000000000000000000000000815260206004820152602160248201527f45524332303a206275726e2066726f6d20746865207a65726f2061646472657360448201527f73000000000000000000000000000000000000000000000000000000000000006064820152608401610741565b73ffffffffffffffffffffffffffffffffffffffff82166000908152610160602052604090205481811015612595576040517f08c379a000000000000000000000000000000000000000000000000000000000815260206004820152602260248201527f45524332303a206275726e20616d6f756e7420657863656564732062616c616e60448201527f63650000000000000000000000000000000000000000000000000000000000006064820152608401610741565b73ffffffffffffffffffffffffffffffffffffffff8316600081815261016060209081526040808320868603905561016280548790039055518581529192917fddf252ad1be2c89b69c2b068fc378daa952ba7f163c4a11628f55a4df523b3ef910160405180910390a36109ba83600084611dac565b80511561269a576040517f946aadc600000000000000000000000000000000000000000000000000000000815273ffffffffffffffffffffffffffffffffffffffff83169063946aadc690612667906000908590600401614d66565b600060405180830381600087803b15801561268157600080fd5b505af1158015612695573d6000803e3d6000fd5b505050505b6126a383612dae565b6126ac83612f7c565b6126b5836130da565b6109ba8361326b565b60606126ca333061341b565b905090565b6040517f19457468657265756d205369676e6564204d6573736167653a0a3332000000006020820152603c8101829052600090605c01612293565b6000806000612719858561344f565b9092509050600081600481111561273257612732614f24565b14801561276a57508573ffffffffffffffffffffffffffffffffffffffff168273ffffffffffffffffffffffffffffffffffffffff16145b1561277a5760019250505061062b565b6000808773ffffffffffffffffffffffffffffffffffffffff16631626ba7e60e01b88886040516024016127af929190614f53565b604080517fffffffffffffffffffffffffffffffffffffffffffffffffffffffffffffffe08184030181529181526020820180517bffffffffffffffffffffffffffffffffffffffffffffffffffffffff167fffffffff000000000000000000000000000000000000000000000000000000009094169390931790925290516128389190614ba3565b600060405180830381855afa9150503d8060008114612873576040519150601f19603f3d011682016040523d82523d6000602084013e612878565b606091505b509150915081801561288b575080516020145b80156128cb575080517f1626ba7e00000000000000000000000000000000000000000000000000000000906128c99083016020908101908401614f6c565b145b98975050505050505050565b60008060608460006128e882612280565b600081815261012d602052604081205491925003612935576040517f7a80ba4d00000000000000000000000000000000000000000000000000000000815260048101829052602401610741565b600080886000015173ffffffffffffffffffffffffffffffffffffffff16636715f8258a60200151600061296c8d60400151613491565b8c6040518563ffffffff1660e01b815260040161298c9493929190614c6c565b600060405180830381865afa1580156129a9573d6000803e3d6000fd5b505050506040513d6000823e601f3d9081017fffffffffffffffffffffffffffffffffffffffffffffffffffffffffffffffe01682016040526129ef9190810190614d02565b915091506129fd8260200190565b8251909a60209182029093010198509650945050505050565b600060608180612a28888888886134bb565b915091506000858251612a3b9190614f85565b905060008167ffffffffffffffff811115612a5857612a58613c2b565b604051908082528060200260200182016040528015612a81578160200160208202803683370190505b50905060208101602082510281016020850160208a025b82841015612ab25781845260209093019290810190612a98565b5095975091955050505050505b94509492505050565b612af36040518060800160405280606081526020016060815260200160608152602001606081525090565b612b1e6040518060800160405280606081526020016060815260200160608152602001606081525090565b60408051808201909152601281527f5241494e5f464c4f575f53454e54494e454c00000000000000000000000000006020909101526060612b8284867ffea74d0c9bf4a3c28f0dd0674db22a3d7f8bf259c56af19f4ac1e735b156974f6003612a16565b80845260408051808201909152601281527f5241494e5f464c4f575f53454e54494e454c00000000000000000000000000006020909101529094509050612bec84867ffea74d0c9bf4a3c28f0dd0674db22a3d7f8bf259c56af19f4ac1e735b156974f6004612a16565b602084810182905260408051808201909152601281527f5241494e5f464c4f575f53454e54494e454c00000000000000000000000000009101529094509050612c5884867ffea74d0c9bf4a3c28f0dd0674db22a3d7f8bf259c56af19f4ac1e735b156974f6004612a16565b60408481018290528051808201909152601281527f5241494e5f464c4f575f53454e54494e454c00000000000000000000000000006020909101529094509050612cc584867ffea74d0c9bf4a3c28f0dd0674db22a3d7f8bf259c56af19f4ac1e735b156974f6005612a16565b60608401525090949350505050565b6000600882511015612ce857506000919050565b506008015167ffffffffffffffff1667ff0a89c674ee78741490565b6040805160038082526080820190925260609160009190602082018480368337505050602081019590955250506040830191909152606082015290565b6000602082901b77ffffffffffffffffffffffffffffffffffffffff0000000016600117610531565b815115612d7a5781518083602001fd5b806040517f08c379a00000000000000000000000000000000000000000000000000000000081526004016107419190613bca565b60408051606081018252600080825260208201819052918101829052819060005b845151811015612f5d578451805182908110612ded57612ded614a7e565b602002602001015191503373ffffffffffffffffffffffffffffffffffffffff16826000015173ffffffffffffffffffffffffffffffffffffffff1603612e8f57602082015173ffffffffffffffffffffffffffffffffffffffff163014612e81576040517f56c7455200000000000000000000000000000000000000000000000000000000815260040160405180910390fd5b816040015184019350612f55565b815173ffffffffffffffffffffffffffffffffffffffff163014612edf576040517f56c7455200000000000000000000000000000000000000000000000000000000815260040160405180910390fd5b3373ffffffffffffffffffffffffffffffffffffffff16826020015173ffffffffffffffffffffffffffffffffffffffff1603612f2457816040015183019250612f55565b612f558260400151836020015173ffffffffffffffffffffffffffffffffffffffff1661351b90919063ffffffff16565b600101612dcf565b508215612f6c57823403820191505b8115610d5457610d54338361351b565b6040805160808101825260008082526020820181905291810182905260608101829052905b8260200151518110156109ba5782602001518181518110612fc457612fc4614a7e565b602002602001015191503373ffffffffffffffffffffffffffffffffffffffff16826020015173ffffffffffffffffffffffffffffffffffffffff160361303b576040820151606083015183516130369273ffffffffffffffffffffffffffffffffffffffff90911691339190613675565b6130d2565b3073ffffffffffffffffffffffffffffffffffffffff16826020015173ffffffffffffffffffffffffffffffffffffffff16036130a0576040820151606083015183516130369273ffffffffffffffffffffffffffffffffffffffff90911691613751565b6040517fa521c60f00000000000000000000000000000000000000000000000000000000815260040160405180910390fd5b600101612fa1565b6040805160808101825260008082526020820181905291810182905260608101829052905b8260400151518110156109ba578260400151818151811061312257613122614a7e565b602002602001015191503373ffffffffffffffffffffffffffffffffffffffff16826020015173ffffffffffffffffffffffffffffffffffffffff16141580156131865750602082015173ffffffffffffffffffffffffffffffffffffffff163014155b156131bd576040517f3a5befc500000000000000000000000000000000000000000000000000000000815260040160405180910390fd5b81516020830151604080850151606086015191517f42842e0e00000000000000000000000000000000000000000000000000000000815273ffffffffffffffffffffffffffffffffffffffff9384166004820152908316602482015260448101919091529116906342842e0e90606401600060405180830381600087803b15801561324757600080fd5b505af115801561325b573d6000803e3d6000fd5b5050600190920191506130ff9050565b6040805160a0810182526000808252602082018190529181018290526060810182905260808101829052905b8260600151518110156109ba57826060015181815181106132ba576132ba614a7e565b602002602001015191503373ffffffffffffffffffffffffffffffffffffffff16826020015173ffffffffffffffffffffffffffffffffffffffff161415801561331e5750602082015173ffffffffffffffffffffffffffffffffffffffff163014155b15613355576040517fc6a91ecc00000000000000000000000000000000000000000000000000000000815260040160405180910390fd5b815160208301516040808501516060860151608087015192517ff242432a00000000000000000000000000000000000000000000000000000000815273ffffffffffffffffffffffffffffffffffffffff948516600482015291841660248301526044820152606481019190915260a06084820152600060a482015291169063f242432a9060c401600060405180830381600087803b1580156133f757600080fd5b505af115801561340b573d6000803e3d6000fd5b5050600190920191506132979050565b6040805160028082526060808301845292600092919060208301908036833750505060208101949094525050604082015290565b60008082516041036134855760208301516040840151606085015160001a613479878285856137a7565b94509450505050611d61565b50600090506002611d61565b6000602082901b77ffffffffffffffffffffffffffffffffffffffff000000001661ffff17610531565b6000606080856134ca57600080fd5b6000806020860260208a039950602089035b808b1115613502578a5189036134f4578a9350613502565b9981900399918701916134dc565b50508161350e57600080fd5b8152969795505050505050565b80471015613585576040517f08c379a000000000000000000000000000000000000000000000000000000000815260206004820152601d60248201527f416464726573733a20696e73756666696369656e742062616c616e63650000006044820152606401610741565b60008273ffffffffffffffffffffffffffffffffffffffff168260405160006040518083038185875af1925050503d80600081146135df576040519150601f19603f3d011682016040523d82523d6000602084013e6135e4565b606091505b50509050806109ba576040517f08c379a000000000000000000000000000000000000000000000000000000000815260206004820152603a60248201527f416464726573733a20756e61626c6520746f2073656e642076616c75652c207260448201527f6563697069656e74206d617920686176652072657665727465640000000000006064820152608401610741565b60405173ffffffffffffffffffffffffffffffffffffffff80851660248301528316604482015260648101829052610d549085907f23b872dd00000000000000000000000000000000000000000000000000000000906084015b604080517fffffffffffffffffffffffffffffffffffffffffffffffffffffffffffffffe08184030181529190526020810180517bffffffffffffffffffffffffffffffffffffffffffffffffffffffff167fffffffff0000000000000000000000000000000000000000000000000000000090931692909217909152613893565b60405173ffffffffffffffffffffffffffffffffffffffff83166024820152604481018290526109ba9084907fa9059cbb00000000000000000000000000000000000000000000000000000000906064016136cf565b6000807f7fffffffffffffffffffffffffffffff5d576e7357a4501ddfe92f46681b20a08311156137de5750600090506003612abf565b6040805160008082526020820180845289905260ff881692820192909252606081018690526080810185905260019060a0016020604051602081039080840390855afa158015613832573d6000803e3d6000fd5b50506040517fffffffffffffffffffffffffffffffffffffffffffffffffffffffffffffffe0015191505073ffffffffffffffffffffffffffffffffffffffff811661388657600060019250925050612abf565b9660009650945050505050565b60006138f5826040518060400160405280602081526020017f5361666545524332303a206c6f772d6c6576656c2063616c6c206661696c65648152508573ffffffffffffffffffffffffffffffffffffffff1661399f9092919063ffffffff16565b8051909150156109ba57808060200190518101906139139190614fc0565b6109ba576040517f08c379a000000000000000000000000000000000000000000000000000000000815260206004820152602a60248201527f5361666545524332303a204552433230206f7065726174696f6e20646964206e60448201527f6f742073756363656564000000000000000000000000000000000000000000006064820152608401610741565b60606106048484600085856000808673ffffffffffffffffffffffffffffffffffffffff1685876040516139d39190614ba3565b60006040518083038185875af1925050503d8060008114613a10576040519150601f19603f3d011682016040523d82523d6000602084013e613a15565b606091505b5091509150613a2687838387613a31565b979650505050505050565b60608315613ac7578251600003613ac05773ffffffffffffffffffffffffffffffffffffffff85163b613ac0576040517f08c379a000000000000000000000000000000000000000000000000000000000815260206004820152601d60248201527f416464726573733a2063616c6c20746f206e6f6e2d636f6e74726163740000006044820152606401610741565b5081610604565b6106048383612d6a565b60405180606001604052806060815260200160608152602001613b156040518060800160405280606081526020016060815260200160608152602001606081525090565b905290565b600060208284031215613b2c57600080fd5b81357fffffffff000000000000000000000000000000000000000000000000000000008116811461062b57600080fd5b60005b83811015613b77578181015183820152602001613b5f565b50506000910152565b60008151808452613b98816020860160208601613b5c565b601f017fffffffffffffffffffffffffffffffffffffffffffffffffffffffffffffffe0169290920160200192915050565b60208152600061062b6020830184613b80565b73ffffffffffffffffffffffffffffffffffffffff81168114611da957600080fd5b60008060408385031215613c1257600080fd5b8235613c1d81613bdd565b946020939093013593505050565b7f4e487b7100000000000000000000000000000000000000000000000000000000600052604160045260246000fd5b6040516060810167ffffffffffffffff81118282101715613c7d57613c7d613c2b565b60405290565b6040516080810167ffffffffffffffff81118282101715613c7d57613c7d613c2b565b604051601f82017fffffffffffffffffffffffffffffffffffffffffffffffffffffffffffffffe016810167ffffffffffffffff81118282101715613ced57613ced613c2b565b604052919050565b600082601f830112613d0657600080fd5b813567ffffffffffffffff811115613d2057613d20613c2b565b613d5160207fffffffffffffffffffffffffffffffffffffffffffffffffffffffffffffffe0601f84011601613ca6565b818152846020838601011115613d6657600080fd5b816020850160208301376000918101602001919091529392505050565b60008060008060808587031215613d9957600080fd5b8435613da481613bdd565b93506020850135613db481613bdd565b925060408501359150606085013567ffffffffffffffff811115613dd757600080fd5b613de387828801613cf5565b91505092959194509250565b600080600060608486031215613e0457600080fd5b8335613e0f81613bdd565b92506020840135613e1f81613bdd565b929592945050506040919091013590565b60008060208385031215613e4357600080fd5b823567ffffffffffffffff80821115613e5b57600080fd5b818501915085601f830112613e6f57600080fd5b813581811115613e7e57600080fd5b866020828501011115613e9057600080fd5b60209290920196919550909350505050565b600060208284031215613eb457600080fd5b813561062b81613bdd565b60008060208385031215613ed257600080fd5b823567ffffffffffffffff80821115613eea57600080fd5b818501915085601f830112613efe57600080fd5b813581811115613f0d57600080fd5b8660208260051b8501011115613e9057600080fd5b600081518084526020808501808196508360051b8101915082860160005b85811015613f6a578284038952613f58848351613b80565b98850198935090840190600101613f40565b5091979650505050505050565b60208152600061062b6020830184613f22565b600067ffffffffffffffff821115613fa457613fa4613c2b565b5060051b60200190565b600082601f830112613fbf57600080fd5b81356020613fd4613fcf83613f8a565b613ca6565b82815260059290921b84018101918181019086841115613ff357600080fd5b8286015b84811015610c1a5780358352918301918301613ff7565b600080600080600060a0868803121561402657600080fd5b853561403181613bdd565b9450602086013561404181613bdd565b9350604086013567ffffffffffffffff8082111561405e57600080fd5b61406a89838a01613fae565b9450606088013591508082111561408057600080fd5b61408c89838a01613fae565b935060808801359150808211156140a257600080fd5b506140af88828901613cf5565b9150509295509295909350565b600080600083850360a08112156140d257600080fd5b60608112156140e057600080fd5b506140e9613c5a565b84356140f481613bdd565b815260208581013561410581613bdd565b82820152604086013561411781613bdd565b604083015290935060608501359067ffffffffffffffff8083111561413b57600080fd5b61414788848901613fae565b9450608087013592508083111561415d57600080fd5b828701925087601f84011261417157600080fd5b823561417f613fcf82613f8a565b81815260059190911b8401830190838101908a83111561419e57600080fd5b8486015b83811015614261578035858111156141ba5760008081fd5b87016060818e037fffffffffffffffffffffffffffffffffffffffffffffffffffffffffffffffe00112156141ef5760008081fd5b6141f7613c5a565b8782013561420481613bdd565b81526040820135878111156142195760008081fd5b6142278f8a83860101613cf5565b898301525060608201358781111561423f5760008081fd5b61424d8f8a83860101613fae565b6040830152508452509185019185016141a2565b508096505050505050509250925092565b600081518084526020808501945080840160005b838110156142c3578151805173ffffffffffffffffffffffffffffffffffffffff1688528301518388015260409096019590820190600101614286565b509495945050505050565b600081518084526020808501945080840160005b838110156142c3578151805173ffffffffffffffffffffffffffffffffffffffff9081168952848201518116858a01526040808301519091169089015260609081015190880152608090960195908201906001016142e2565b600081518084526020808501945080840160005b838110156142c3578151805173ffffffffffffffffffffffffffffffffffffffff9081168952848201518116858a015260408083015190911690890152606080820151908901526080908101519088015260a0909601959082019060010161434f565b600060208083528351606080838601526143cf6080860183614272565b9150828601517fffffffffffffffffffffffffffffffffffffffffffffffffffffffffffffffe0604081888603018189015261440b8584614272565b89820151898203909301858a01528251608080835281519083018190529196509293509186019160009060a08701905b80831015614485578451805173ffffffffffffffffffffffffffffffffffffffff90811684528a820151168a8401528401518483015293880193600192909201919086019061443b565b508785015193508681038888015261449d81856142ce565b9750505080830151915084860381860152506144b985826142ce565b94505081810151905082840382840152613a26848261433b565b600080604083850312156144e657600080fd5b82356144f181613bdd565b9150602083013561450181613bdd565b809150509250929050565b600080600080600060a0868803121561452457600080fd5b853561452f81613bdd565b9450602086013561453f81613bdd565b93506040860135925060608601359150608086013567ffffffffffffffff81111561456957600080fd5b6140af88828901613cf5565b600181811c9082168061458957607f821691505b6020821081036145c2577f4e487b7100000000000000000000000000000000000000000000000000000000600052602260045260246000fd5b50919050565b7f4e487b7100000000000000000000000000000000000000000000000000000000600052601160045260246000fd5b80820180821115610531576105316145c8565b60006060828403121561461c57600080fd5b614624613c5a565b9050813561463181613bdd565b815260208281013567ffffffffffffffff8082111561464f57600080fd5b818501915085601f83011261466357600080fd5b8135614671613fcf82613f8a565b81815260059190911b8301840190848101908883111561469057600080fd5b8585015b838110156146c8578035858111156146ac5760008081fd5b6146ba8b89838a0101613cf5565b845250918601918601614694565b50808688015250505060408501359250808311156146e557600080fd5b50506146f384828501613fae565b60408301525092915050565b600082601f83011261471057600080fd5b81356020614720613fcf83613f8a565b82815260059290921b8401810191818101908684111561473f57600080fd5b8286015b84811015610c1a57803567ffffffffffffffff8111156147635760008081fd5b6147718986838b010161460a565b845250918301918301614743565b60006020828403121561479157600080fd5b813567ffffffffffffffff808211156147a957600080fd5b90830190608082860312156147bd57600080fd5b6147c5613c83565b8235828111156147d457600080fd5b6147e087828601613cf5565b8252506020830135828111156147f557600080fd5b61480187828601613cf5565b60208301525060408301358281111561481957600080fd5b6148258782860161460a565b60408301525060608301358281111561483d57600080fd5b614849878286016146ff565b60608301525095945050505050565b600081518084526020808501945080840160005b838110156142c35781518752958201959082019060010161486c565b73ffffffffffffffffffffffffffffffffffffffff815116825260006020820151606060208501526148bd6060850182613f22565b9050604083015184820360408601526117ec8282614858565b73ffffffffffffffffffffffffffffffffffffffff831681526000602060408184015283516080604085015261490f60c0850182613b80565b9050818501517fffffffffffffffffffffffffffffffffffffffffffffffffffffffffffffffc08086840301606087015261494a8383613b80565b925060408701519150808684030160808701526149678383614888565b606088015187820390920160a08801528151808252909350908401915083830190600581901b8401850160005b828110156149e0577fffffffffffffffffffffffffffffffffffffffffffffffffffffffffffffffe08683030184526149ce828651614888565b94870194938701939150600101614994565b509998505050505050505050565b606081526000614a016060830186613f22565b8281036020840152614a138186614858565b90508281036040840152614a278185614858565b9695505050505050565b600080600060608486031215614a4657600080fd5b8351614a5181613bdd565b6020850151909350614a6281613bdd565b6040850151909250614a7381613bdd565b809150509250925092565b7f4e487b7100000000000000000000000000000000000000000000000000000000600052603260045260246000fd5b60008083357fffffffffffffffffffffffffffffffffffffffffffffffffffffffffffffffe1843603018112614ae257600080fd5b83018035915067ffffffffffffffff821115614afd57600080fd5b602001915036819003821315611d6157600080fd5b60007fffffffffffffffffffffffffffffffffffffffffffffffffffffffffffffffff8203614b4357614b436145c8565b5060010190565b73ffffffffffffffffffffffffffffffffffffffff831681526080810161062b6020830184805173ffffffffffffffffffffffffffffffffffffffff908116835260208083015182169084015260409182015116910152565b60008251614bb5818460208701613b5c565b9190910192915050565b600081518084526020808501808196508360051b8101915082860160005b85811015613f6a578284038952614bf5848351614858565b98850198935090840190600101614bdd565b73ffffffffffffffffffffffffffffffffffffffff831681526040602082015260006106046040830184614bbf565b815160009082906020808601845b83811015614c6057815185529382019390820190600101614c44565b50929695505050505050565b73ffffffffffffffffffffffffffffffffffffffff85168152836020820152826040820152608060608201526000614a276080830184614bbf565b600082601f830112614cb857600080fd5b81516020614cc8613fcf83613f8a565b82815260059290921b84018101918181019086841115614ce757600080fd5b8286015b84811015610c1a5780518352918301918301614ceb565b60008060408385031215614d1557600080fd5b825167ffffffffffffffff80821115614d2d57600080fd5b614d3986838701614ca7565b93506020850151915080821115614d4f57600080fd5b50614d5c85828601614ca7565b9150509250929050565b8281526040602082015260006106046040830184614858565b601f8211156109ba57600081815260208120601f850160051c81016020861015614da65750805b601f850160051c820191505b81811015614dc557828155600101614db2565b505050505050565b815167ffffffffffffffff811115614de757614de7613c2b565b614dfb81614df58454614575565b84614d7f565b602080601f831160018114614e4e5760008415614e185750858301515b7fffffffffffffffffffffffffffffffffffffffffffffffffffffffffffffffff600386901b1c1916600185901b178555614dc5565b6000858152602081207fffffffffffffffffffffffffffffffffffffffffffffffffffffffffffffffe08616915b82811015614e9b57888601518255948401946001909101908401614e7c565b5085821015614ed757878501517fffffffffffffffffffffffffffffffffffffffffffffffffffffffffffffffff600388901b60f8161c191681555b5050505050600190811b01905550565b606081016105318284805173ffffffffffffffffffffffffffffffffffffffff908116835260208083015182169084015260409182015116910152565b7f4e487b7100000000000000000000000000000000000000000000000000000000600052602160045260246000fd5b8281526040602082015260006106046040830184613b80565b600060208284031215614f7e57600080fd5b5051919050565b600082614fbb577f4e487b7100000000000000000000000000000000000000000000000000000000600052601260045260246000fd5b500490565b600060208284031215614fd257600080fd5b8151801515811461062b57600080fdfe416464726573733a206c6f772d6c6576656c2064656c65676174652063616c6c206661696c6564a26469706673582212207b005cbb1c2500f407ca6e43d3adc3908e18847366e70bd8ee15211fb41e280c64736f6c63430008120033",
  "linkReferences": {},
  "deployedLinkReferences": {}
}