{
  "_format": "hh-sol-artifact-1",
  "contractName": "Sale",
  "sourceName": "contracts/sale/Sale.sol",
  "abi": [
    {
      "inputs": [
        {
          "components": [
            {
              "internalType": "uint256",
              "name": "maximumSaleTimeout",
              "type": "uint256"
            },
            {
              "internalType": "contract CloneFactory",
              "name": "cloneFactory",
              "type": "address"
            },
            {
              "internalType": "address",
              "name": "redeemableERC20Implementation",
              "type": "address"
            },
            {
              "components": [
                {
                  "internalType": "address",
                  "name": "deployer",
                  "type": "address"
                },
                {
                  "internalType": "bytes",
                  "name": "meta",
                  "type": "bytes"
                }
              ],
              "internalType": "struct DeployerDiscoverableMetaV1ConstructionConfig",
              "name": "deployerDiscoverableMetaConfig",
              "type": "tuple"
            }
          ],
          "internalType": "struct SaleConstructorConfig",
          "name": "config_",
          "type": "tuple"
        }
      ],
      "stateMutability": "nonpayable",
      "type": "constructor"
    },
    {
      "inputs": [
        {
          "internalType": "address",
          "name": "caller",
          "type": "address"
        },
        {
          "internalType": "address",
          "name": "sender",
          "type": "address"
        },
        {
          "internalType": "uint256",
          "name": "cooldownExpiresAt",
          "type": "uint256"
        }
      ],
      "name": "ActiveCooldown",
      "type": "error"
    },
    {
      "inputs": [
        {
          "internalType": "uint256",
          "name": "i",
          "type": "uint256"
        }
      ],
      "name": "InvalidSignature",
      "type": "error"
    },
    {
      "inputs": [
        {
          "internalType": "bytes",
          "name": "unmeta",
          "type": "bytes"
        }
      ],
      "name": "NotRainMetaV1",
      "type": "error"
    },
    {
      "inputs": [],
      "name": "Reinitialize",
      "type": "error"
    },
    {
      "inputs": [
        {
          "internalType": "bytes32",
          "name": "expectedHash",
          "type": "bytes32"
        },
        {
          "internalType": "bytes32",
          "name": "actualHash",
          "type": "bytes32"
        }
      ],
      "name": "UnexpectedMetaHash",
      "type": "error"
    },
    {
      "inputs": [],
      "name": "Uninitialized",
      "type": "error"
    },
    {
      "inputs": [],
      "name": "ZeroInitCooldown",
      "type": "error"
    },
    {
      "anonymous": false,
      "inputs": [
        {
          "indexed": false,
          "internalType": "address",
          "name": "sender",
          "type": "address"
        },
        {
          "components": [
            {
              "internalType": "address",
              "name": "feeRecipient",
              "type": "address"
            },
            {
              "internalType": "uint256",
              "name": "fee",
              "type": "uint256"
            },
            {
              "internalType": "uint256",
              "name": "minimumUnits",
              "type": "uint256"
            },
            {
              "internalType": "uint256",
              "name": "desiredUnits",
              "type": "uint256"
            },
            {
              "internalType": "uint256",
              "name": "maximumPrice",
              "type": "uint256"
            }
          ],
          "indexed": false,
          "internalType": "struct BuyConfig",
          "name": "config",
          "type": "tuple"
        },
        {
          "components": [
            {
              "internalType": "uint256",
              "name": "id",
              "type": "uint256"
            },
            {
              "internalType": "address",
              "name": "feeRecipient",
              "type": "address"
            },
            {
              "internalType": "uint256",
              "name": "fee",
              "type": "uint256"
            },
            {
              "internalType": "uint256",
              "name": "units",
              "type": "uint256"
            },
            {
              "internalType": "uint256",
              "name": "price",
              "type": "uint256"
            }
          ],
          "indexed": false,
          "internalType": "struct Receipt",
          "name": "receipt",
          "type": "tuple"
        }
      ],
      "name": "Buy",
      "type": "event"
    },
    {
      "anonymous": false,
      "inputs": [
        {
          "indexed": false,
          "internalType": "address",
          "name": "sender",
          "type": "address"
        },
        {
          "components": [
            {
              "internalType": "uint256",
              "name": "maximumSaleTimeout",
              "type": "uint256"
            },
            {
              "internalType": "contract CloneFactory",
              "name": "cloneFactory",
              "type": "address"
            },
            {
              "internalType": "address",
              "name": "redeemableERC20Implementation",
              "type": "address"
            },
            {
              "components": [
                {
                  "internalType": "address",
                  "name": "deployer",
                  "type": "address"
                },
                {
                  "internalType": "bytes",
                  "name": "meta",
                  "type": "bytes"
                }
              ],
              "internalType": "struct DeployerDiscoverableMetaV1ConstructionConfig",
              "name": "deployerDiscoverableMetaConfig",
              "type": "tuple"
            }
          ],
          "indexed": false,
          "internalType": "struct SaleConstructorConfig",
          "name": "config",
          "type": "tuple"
        }
      ],
      "name": "Construct",
      "type": "event"
    },
    {
      "anonymous": false,
      "inputs": [
        {
          "indexed": false,
          "internalType": "address",
          "name": "sender",
          "type": "address"
        },
        {
          "indexed": false,
          "internalType": "uint256[][]",
          "name": "context",
          "type": "uint256[][]"
        }
      ],
      "name": "Context",
      "type": "event"
    },
    {
      "anonymous": false,
      "inputs": [
        {
          "indexed": false,
          "internalType": "address",
          "name": "sender",
          "type": "address"
        },
        {
          "indexed": false,
          "internalType": "uint256",
          "name": "cooldownDuration",
          "type": "uint256"
        }
      ],
      "name": "CooldownInitialize",
      "type": "event"
    },
    {
      "anonymous": false,
      "inputs": [
        {
          "indexed": false,
          "internalType": "address",
          "name": "sender",
          "type": "address"
        },
        {
          "indexed": false,
          "internalType": "uint256",
          "name": "cooldownExpiry",
          "type": "uint256"
        }
      ],
      "name": "CooldownTriggered",
      "type": "event"
    },
    {
      "anonymous": false,
      "inputs": [
        {
          "indexed": false,
          "internalType": "address",
          "name": "sender",
          "type": "address"
        },
        {
          "indexed": false,
          "internalType": "enum SaleStatus",
          "name": "saleStatus",
          "type": "uint8"
        }
      ],
      "name": "End",
      "type": "event"
    },
    {
      "anonymous": false,
      "inputs": [
        {
          "indexed": false,
          "internalType": "address",
          "name": "sender",
          "type": "address"
        },
        {
          "components": [
            {
              "internalType": "address",
              "name": "recipient",
              "type": "address"
            },
            {
              "internalType": "address",
              "name": "reserve",
              "type": "address"
            },
            {
              "internalType": "uint32",
              "name": "saleTimeout",
              "type": "uint32"
            },
            {
              "internalType": "uint32",
              "name": "cooldownDuration",
              "type": "uint32"
            },
            {
              "internalType": "uint256",
              "name": "minimumRaise",
              "type": "uint256"
            },
            {
              "internalType": "uint256",
              "name": "dustSize",
              "type": "uint256"
            },
            {
              "components": [
                {
                  "internalType": "contract IExpressionDeployerV1",
                  "name": "deployer",
                  "type": "address"
                },
                {
                  "internalType": "bytes[]",
                  "name": "sources",
                  "type": "bytes[]"
                },
                {
                  "internalType": "uint256[]",
                  "name": "constants",
                  "type": "uint256[]"
                }
              ],
              "internalType": "struct EvaluableConfig",
              "name": "evaluableConfig",
              "type": "tuple"
            }
          ],
          "indexed": false,
          "internalType": "struct SaleConfig",
          "name": "config",
          "type": "tuple"
        },
        {
          "components": [
            {
              "components": [
                {
                  "internalType": "string",
                  "name": "name",
                  "type": "string"
                },
                {
                  "internalType": "string",
                  "name": "symbol",
                  "type": "string"
                },
                {
                  "internalType": "address",
                  "name": "distributor",
                  "type": "address"
                },
                {
                  "internalType": "uint256",
                  "name": "initialSupply",
                  "type": "uint256"
                }
              ],
              "internalType": "struct ERC20Config",
              "name": "erc20Config",
              "type": "tuple"
            },
            {
              "internalType": "address",
              "name": "tier",
              "type": "address"
            },
            {
              "internalType": "uint256",
              "name": "minimumTier",
              "type": "uint256"
            },
            {
              "internalType": "address",
              "name": "distributionEndForwardingAddress",
              "type": "address"
            }
          ],
          "indexed": false,
          "internalType": "struct SaleRedeemableERC20Config",
          "name": "saleRedeemableERC20Config",
          "type": "tuple"
        },
        {
          "indexed": false,
          "internalType": "address",
          "name": "token",
          "type": "address"
        }
      ],
      "name": "Initialize",
      "type": "event"
    },
    {
      "anonymous": false,
      "inputs": [
        {
          "indexed": false,
          "internalType": "uint8",
          "name": "version",
          "type": "uint8"
        }
      ],
      "name": "Initialized",
      "type": "event"
    },
    {
      "anonymous": false,
      "inputs": [
        {
          "indexed": false,
          "internalType": "address",
          "name": "sender",
          "type": "address"
        },
        {
          "indexed": false,
          "internalType": "uint256",
          "name": "subject",
          "type": "uint256"
        },
        {
          "indexed": false,
          "internalType": "bytes",
          "name": "meta",
          "type": "bytes"
        }
      ],
      "name": "MetaV1",
      "type": "event"
    },
    {
      "anonymous": false,
      "inputs": [
        {
          "indexed": false,
          "internalType": "address",
          "name": "sender",
          "type": "address"
        },
        {
          "components": [
            {
              "internalType": "uint256",
              "name": "id",
              "type": "uint256"
            },
            {
              "internalType": "address",
              "name": "feeRecipient",
              "type": "address"
            },
            {
              "internalType": "uint256",
              "name": "fee",
              "type": "uint256"
            },
            {
              "internalType": "uint256",
              "name": "units",
              "type": "uint256"
            },
            {
              "internalType": "uint256",
              "name": "price",
              "type": "uint256"
            }
          ],
          "indexed": false,
          "internalType": "struct Receipt",
          "name": "receipt",
          "type": "tuple"
        }
      ],
      "name": "Refund",
      "type": "event"
    },
    {
      "anonymous": false,
      "inputs": [
        {
          "indexed": false,
          "internalType": "address",
          "name": "sender",
          "type": "address"
        }
      ],
      "name": "Start",
      "type": "event"
    },
    {
      "anonymous": false,
      "inputs": [
        {
          "indexed": false,
          "internalType": "address",
          "name": "sender",
          "type": "address"
        }
      ],
      "name": "Timeout",
      "type": "event"
    },
    {
      "inputs": [
        {
          "components": [
            {
              "internalType": "address",
              "name": "feeRecipient",
              "type": "address"
            },
            {
              "internalType": "uint256",
              "name": "fee",
              "type": "uint256"
            },
            {
              "internalType": "uint256",
              "name": "minimumUnits",
              "type": "uint256"
            },
            {
              "internalType": "uint256",
              "name": "desiredUnits",
              "type": "uint256"
            },
            {
              "internalType": "uint256",
              "name": "maximumPrice",
              "type": "uint256"
            }
          ],
          "internalType": "struct BuyConfig",
          "name": "config_",
          "type": "tuple"
        }
      ],
      "name": "buy",
      "outputs": [],
      "stateMutability": "nonpayable",
      "type": "function"
    },
    {
      "inputs": [
        {
          "internalType": "address",
          "name": "recipient_",
          "type": "address"
        }
      ],
      "name": "claimFees",
      "outputs": [],
      "stateMutability": "nonpayable",
      "type": "function"
    },
    {
      "inputs": [],
      "name": "end",
      "outputs": [],
      "stateMutability": "nonpayable",
      "type": "function"
    },
    {
      "inputs": [
        {
          "internalType": "bytes",
          "name": "data_",
          "type": "bytes"
        }
      ],
      "name": "initialize",
      "outputs": [],
      "stateMutability": "nonpayable",
      "type": "function"
    },
    {
      "inputs": [
        {
          "internalType": "uint256",
          "name": "targetUnits_",
          "type": "uint256"
        }
      ],
      "name": "previewCalculateBuy",
      "outputs": [
        {
          "internalType": "uint256",
          "name": "",
          "type": "uint256"
        },
        {
          "internalType": "uint256",
          "name": "",
          "type": "uint256"
        }
      ],
      "stateMutability": "view",
      "type": "function"
    },
    {
      "inputs": [],
      "name": "previewCanLive",
      "outputs": [
        {
          "internalType": "bool",
          "name": "",
          "type": "bool"
        }
      ],
      "stateMutability": "view",
      "type": "function"
    },
    {
      "inputs": [
        {
          "components": [
            {
              "internalType": "uint256",
              "name": "id",
              "type": "uint256"
            },
            {
              "internalType": "address",
              "name": "feeRecipient",
              "type": "address"
            },
            {
              "internalType": "uint256",
              "name": "fee",
              "type": "uint256"
            },
            {
              "internalType": "uint256",
              "name": "units",
              "type": "uint256"
            },
            {
              "internalType": "uint256",
              "name": "price",
              "type": "uint256"
            }
          ],
          "internalType": "struct Receipt",
          "name": "receipt_",
          "type": "tuple"
        }
      ],
      "name": "refund",
      "outputs": [],
      "stateMutability": "nonpayable",
      "type": "function"
    },
    {
      "inputs": [],
      "name": "remainingTokenInventory",
      "outputs": [
        {
          "internalType": "uint256",
          "name": "",
          "type": "uint256"
        }
      ],
      "stateMutability": "view",
      "type": "function"
    },
    {
      "inputs": [],
      "name": "reserve",
      "outputs": [
        {
          "internalType": "address",
          "name": "",
          "type": "address"
        }
      ],
      "stateMutability": "view",
      "type": "function"
    },
    {
      "inputs": [],
      "name": "saleStatus",
      "outputs": [
        {
          "internalType": "enum SaleStatus",
          "name": "",
          "type": "uint8"
        }
      ],
      "stateMutability": "view",
      "type": "function"
    },
    {
      "inputs": [],
      "name": "start",
      "outputs": [],
      "stateMutability": "nonpayable",
      "type": "function"
    },
    {
      "inputs": [],
      "name": "timeout",
      "outputs": [],
      "stateMutability": "nonpayable",
      "type": "function"
    },
    {
      "inputs": [],
      "name": "token",
      "outputs": [
        {
          "internalType": "address",
          "name": "",
          "type": "address"
        }
      ],
      "stateMutability": "view",
      "type": "function"
    },
    {
      "inputs": [],
      "name": "totalReserveReceived",
      "outputs": [
        {
          "internalType": "uint256",
          "name": "",
          "type": "uint256"
        }
      ],
      "stateMutability": "view",
      "type": "function"
    }
  ],
  "bytecode": "0x60e06040523480156200001157600080fd5b506040516200510838038062005108833981016040819052620000349162000444565b7f6b84e000a8f199fdcf4a85bbf63fa0870101003b452b4c28930be0ae5bd1d30160001b8160600151620000788282602001516200014560201b62001f991760201c565b60208101516040517fbea766d03fa1efd3f81cc8634d08320bc62bb0ed9234ac59bbaafa5893fb6b1391620000b19133913091620005bc565b60405180910390a1620000d381600001516200018c60201b62001fec1760201c565b50620000e0905062000250565b805160805260208101516001600160a01b0390811660a05260408083015190911660c052517faafca8deb61680277e7d3907ecc204636cb1639cef1bb72e9c231bf81309d0cf90620001369033908490620005ee565b60405180910390a15062000796565b805160208201208281146200017c5760405163074fe10f60e41b815260048101849052602481018290526044015b60405180910390fd5b62000187826200030f565b505050565b604080516000808252602082019092526001600160a01b03831691635511cb679190620001ca565b6060815260200190600190039081620001b45790505b5060408051600080825260208201908152818301928390526001600160e01b031960e086901b169092526200020492916044820162000693565b6060604051808303816000875af115801562000224573d6000803e3d6000fd5b505050506040513d601f19601f820116820180604052508101906200024a919062000726565b50505050565b600254610100900460ff1615620002ba5760405162461bcd60e51b815260206004820152602760248201527f496e697469616c697a61626c653a20636f6e747261637420697320696e697469604482015266616c697a696e6760c81b606482015260840162000173565b60025460ff90811610156200030d576002805460ff191660ff9081179091556040519081527f7f26b83ff96e1f2b6a682f133852f6798a09c465da95921460cefb38474024989060200160405180910390a15b565b6200031a816200033f565b6200033c5780604051630c89984b60e31b81526004016200017391906200077a565b50565b60006008825110156200035457506000919050565b50600801516001600160401b031667ff0a89c674ee78741490565b634e487b7160e01b600052604160045260246000fd5b604051608081016001600160401b0381118282101715620003aa57620003aa6200036f565b60405290565b604080519081016001600160401b0381118282101715620003aa57620003aa6200036f565b604051601f8201601f191681016001600160401b03811182821017156200040057620004006200036f565b604052919050565b6001600160a01b03811681146200033c57600080fd5b60005b838110156200043b57818101518382015260200162000421565b50506000910152565b600060208083850312156200045857600080fd5b82516001600160401b03808211156200047057600080fd5b90840190608082870312156200048557600080fd5b6200048f62000385565b8251815283830151620004a28162000408565b818501526040830151620004b68162000408565b6040820152606083015182811115620004ce57600080fd5b929092019160408388031215620004e457600080fd5b620004ee620003b0565b8351620004fb8162000408565b815283850151838111156200050f57600080fd5b80850194505087601f8501126200052557600080fd5b8351838111156200053a576200053a6200036f565b6200054e601f8201601f19168701620003d5565b935080845288868287010111156200056557600080fd5b62000576818786018888016200041e565b50938401919091526060810192909252509392505050565b60008151808452620005a88160208601602086016200041e565b601f01601f19169290920160200192915050565b60018060a01b0384168152826020820152606060408201526000620005e560608301846200058e565b95945050505050565b600060018060a01b03808516835260406020840152835160408401528060208501511660608401528060408501511660808401526060840151608060a08501528181511660c08501526020810151915050604060e0840152620005e56101008401826200058e565b600081518084526020808501945080840160005b8381101562000688578151875295820195908201906001016200066a565b509495945050505050565b6000606082016060835280865180835260808501915060808160051b8601019250602080890160005b83811015620006ee57607f19888703018552620006db8683516200058e565b95509382019390820190600101620006bc565b50508584038187015250505062000706818662000656565b905082810360408401526200071c818562000656565b9695505050505050565b6000806000606084860312156200073c57600080fd5b8351620007498162000408565b60208501519093506200075c8162000408565b60408501519092506200076f8162000408565b809150509250925092565b6020815260006200078f60208301846200058e565b9392505050565b60805160a05160c051614942620007c660003960006107ca0152600061079f015260006104d501526149426000f3fe608060405234801561001057600080fd5b50600436106100ea5760003560e01c8063be9a65551161008c578063ec14b06e11610066578063ec14b06e146101ee578063efbe1c1c146101f7578063f9020e33146101ff578063fc0c546a1461023157600080fd5b8063be9a65551461018e578063cd3293de14610196578063d48827e9146101db57600080fd5b8063439fab91116100c8578063439fab911461014957806347e4bbb91461015c578063504d14f81461017357806370dea79a1461018657600080fd5b806315a0ea6a146100ef57806324936d2e14610104578063419a6f5d14610121575b600080fd5b6101026100fd366004613950565b610251565b005b61010c610354565b60405190151581526020015b60405180910390f35b61013461012f36600461396d565b610368565b60408051928352602083019190915201610118565b610102610157366004613986565b610387565b610165603a5481565b604051908152602001610118565b6101026101813660046139f8565b610a7a565b610102610cf7565b610102610f2f565b603c546101b69073ffffffffffffffffffffffffffffffffffffffff1681565b60405173ffffffffffffffffffffffffffffffffffffffff9091168152602001610118565b6101026101e9366004613afd565b6110dc565b61016560395481565b610102611e7c565b603c546102249074010000000000000000000000000000000000000000900460ff1681565b6040516101189190613be0565b603b546101b69073ffffffffffffffffffffffffffffffffffffffff1681565b6002603c5474010000000000000000000000000000000000000000900460ff16600381111561028257610282613b76565b146102ee576040517f08c379a000000000000000000000000000000000000000000000000000000000815260206004820152600b60248201527f4e4f545f5355434345535300000000000000000000000000000000000000000060448201526064015b60405180910390fd5b73ffffffffffffffffffffffffffffffffffffffff811660009081526043602052604090205480156103505773ffffffffffffffffffffffffffffffffffffffff808316600090815260436020526040812055603c54610350911683836120c8565b5050565b60008061035f61219c565b50909392505050565b6000806000806103778561237b565b5092989197509095505050505050565b600254610100900460ff16158080156103a75750600254600160ff909116105b806103c15750303b1580156103c1575060025460ff166001145b61044d576040517f08c379a000000000000000000000000000000000000000000000000000000000815260206004820152602e60248201527f496e697469616c697a61626c653a20636f6e747261637420697320616c72656160448201527f647920696e697469616c697a656400000000000000000000000000000000000060648201526084016102e5565b600280547fffffffffffffffffffffffffffffffffffffffffffffffffffffffffffffff0016600117905580156104ab57600280547fffffffffffffffffffffffffffffffffffffffffffffffffffffffffffff00ff166101001790555b6104b36125dd565b6000806104c284860186613f10565b915091506104d3826060015161267e565b7f0000000000000000000000000000000000000000000000000000000000000000826040015163ffffffff161115610567576040517f08c379a000000000000000000000000000000000000000000000000000000000815260206004820152600b60248201527f4d41585f54494d454f555400000000000000000000000000000000000000000060448201526064016102e5565b604082015161057c9063ffffffff1642614029565b60405560808201516105ea576040517f08c379a000000000000000000000000000000000000000000000000000000000815260206004820152600b60248201527f4d494e5f52414953455f3000000000000000000000000000000000000000000060448201526064016102e5565b8160800151603e8190555060008260c00151602001516002815181106106125761061261403c565b602002602001015151111561064d57603880547fffffffffffffffffffffffffffffffffffffffffffffffffffffffffffffff001660011790555b8151603d80547fffffffffffffffffffffffff00000000000000000000000000000000000000001673ffffffffffffffffffffffffffffffffffffffff92831617905560a0830151603f55603c805460208501517fffffffffffffffffffffff0000000000000000000000000000000000000000009091169083161790558151604001511615610739576040517f08c379a000000000000000000000000000000000000000000000000000000000815260206004820152600f60248201527f4449535452494255544f525f534554000000000000000000000000000000000060448201526064016102e5565b8051306040918201528151606090810151603955815160a08101835260208581015173ffffffffffffffffffffffffffffffffffffffff9081168352855182840152818601518116838601528486015183850152928501518316608083015292516000937f000000000000000000000000000000000000000000000000000000000000000090931692630fbe133c927f0000000000000000000000000000000000000000000000000000000000000000926107f4920161413e565b6040516020818303038152906040526040518363ffffffff1660e01b81526004016108209291906141aa565b6020604051808303816000875af115801561083f573d6000803e3d6000fd5b505050506040513d601f19601f8201168201806040525081019061086391906141d9565b603b80547fffffffffffffffffffffffff00000000000000000000000000000000000000001673ffffffffffffffffffffffffffffffffffffffff83161790556040519091507ffab5ff20bd8a46ad13e84b00ba5a1242e9b22050c28d852bf607287782800312906108dc90339086908690869061432c565b60405180910390a160008060008560c001516000015173ffffffffffffffffffffffffffffffffffffffff16635511cb678760c00151602001518860c001516040015161092d60016002600061276f565b6040518463ffffffff1660e01b815260040161094b939291906143f7565b6060604051808303816000875af115801561096a573d6000803e3d6000fd5b505050506040513d601f19601f8201168201806040525081019061098e919061443a565b6040805160608101825273ffffffffffffffffffffffffffffffffffffffff94851680825293851660208201819052929094169301839052603580547fffffffffffffffffffffffff000000000000000000000000000000000000000090811690931790556036805483169091179055603780549091169091179055505084159350610a759250505057600280547fffffffffffffffffffffffffffffffffffffffffffffffffffffffffffff00ff169055604051600181527f7f26b83ff96e1f2b6a682f133852f6798a09c465da95921460cefb38474024989060200160405180910390a15b505050565b6002603c5474010000000000000000000000000000000000000000900460ff166003811115610aab57610aab613b76565b03610b12576040517f08c379a000000000000000000000000000000000000000000000000000000000815260206004820152600e60248201527f524546554e445f5355434345535300000000000000000000000000000000000060448201526064016102e5565b6003603c5474010000000000000000000000000000000000000000900460ff166003811115610b4357610b43613b76565b14610b5057610b506127b2565b3360009081526041602090815260408083209051909291610b73918591016144d3565b6040516020818303038152906040528051906020012081526020019081526020016000206000815480929190610ba8906144e1565b9091555060009050610bc4608083013560608401356001612986565b905080603a6000828254610bd89190614516565b92505081905550816060013560396000828254610bf59190614029565b909155505060408201803590604390600090610c149060208701613950565b73ffffffffffffffffffffffffffffffffffffffff1673ffffffffffffffffffffffffffffffffffffffff1681526020019081526020016000206000828254610c5d9190614516565b90915550506040517f92f85a40e83c8d882fe8d6e484c07c775950072962f3b22dd739834849a5a32490610c949033908590614529565b60405180910390a1603b54610cc59073ffffffffffffffffffffffffffffffffffffffff16333060608601356129a4565b61035033610cd7604085013584614029565b603c5473ffffffffffffffffffffffffffffffffffffffff1691906120c8565b4260405410610d62576040517f08c379a000000000000000000000000000000000000000000000000000000000815260206004820152600d60248201527f4541524c595f54494d454f55540000000000000000000000000000000000000060448201526064016102e5565b6000603c5474010000000000000000000000000000000000000000900460ff166003811115610d9357610d93613b76565b1480610dcd57506001603c5474010000000000000000000000000000000000000000900460ff166003811115610dcb57610dcb613b76565b145b610e33576040517f08c379a000000000000000000000000000000000000000000000000000000000815260206004820152600d60248201527f414c52454144595f454e4445440000000000000000000000000000000000000060448201526064016102e5565b6000603955603c80547fffffffffffffffffffffff00ffffffffffffffffffffffffffffffffffffffff16740300000000000000000000000000000000000000001790556040805133815290517f71b8d288b6b795cd40378095d6a9c6466eb4a081c0238dfd691b0b1f5868f1809181900360200190a1603b546040517f8b24259b00000000000000000000000000000000000000000000000000000000815230600482015273ffffffffffffffffffffffffffffffffffffffff90911690638b24259b90602401600060405180830381600087803b158015610f1557600080fd5b505af1158015610f29573d6000803e3d6000fd5b50505050565b6000603c5474010000000000000000000000000000000000000000900460ff166003811115610f6057610f60613b76565b14610fc7576040517f08c379a000000000000000000000000000000000000000000000000000000000815260206004820152600b60248201527f4e4f545f50454e44494e4700000000000000000000000000000000000000000060448201526064016102e5565b6000806000610fd461219c565b92509250925082611041576040517f08c379a000000000000000000000000000000000000000000000000000000000815260206004820152600860248201527f4e4f545f4c49564500000000000000000000000000000000000000000000000060448201526064016102e5565b611049612a02565b805115610a75576040517f946aadc600000000000000000000000000000000000000000000000000000000815273ffffffffffffffffffffffffffffffffffffffff83169063946aadc6906110a5906000908590600401614553565b600060405180830381600087803b1580156110bf57600080fd5b505af11580156110d3573d6000803e3d6000fd5b50505050505050565b60005463ffffffff166001811015611120576040517f1c72fad400000000000000000000000000000000000000000000000000000000815260040160405180910390fd5b600054640100000000900473ffffffffffffffffffffffffffffffffffffffff168061117e5750600080547fffffffffffffffff0000000000000000000000000000000000000000ffffffff16336401000000008102919091179091555b73ffffffffffffffffffffffffffffffffffffffff81166000908152600160205260409020544210156112135773ffffffffffffffffffffffffffffffffffffffff8116600081815260016020526040908190205490517f8dafa474000000000000000000000000000000000000000000000000000000008152600481019290925233602483015260448201526064016102e5565b600061121f8342614029565b73ffffffffffffffffffffffffffffffffffffffff8316600081815260016020908152604091829020849055815192835282018390529192507fdd9ec76fd04aab7ee6b385c04a7bdf966620500e72b134bfc3f19654fae20f25910160405180910390a161128b612a76565b83604001516000106112f9576040517f08c379a000000000000000000000000000000000000000000000000000000000815260206004820152600960248201527f305f4d494e494d554d000000000000000000000000000000000000000000000060448201526064016102e5565b83606001518460400151111561136b576040517f08c379a000000000000000000000000000000000000000000000000000000000815260206004820152601460248201527f4d494e494d554d5f4f5645525f4445534952454400000000000000000000000060448201526064016102e5565b6040805160608101825260355473ffffffffffffffffffffffffffffffffffffffff9081168252603654811660208301526037541691810191909152600080806113b361219c565b92509250925060008151111561144b576040517f946aadc600000000000000000000000000000000000000000000000000000000815273ffffffffffffffffffffffffffffffffffffffff83169063946aadc690611418906000908590600401614553565b600060405180830381600087803b15801561143257600080fd5b505af1158015611446573d6000803e3d6000fd5b505050505b8215611494576000603c5474010000000000000000000000000000000000000000900460ff16600381111561148257611482613b76565b0361148f5761148f612a02565b6114db565b6001603c5474010000000000000000000000000000000000000000900460ff1660038111156114c5576114c5613b76565b036114db576114d2612ae9565b50505050611e44565b6001603c5474010000000000000000000000000000000000000000900460ff16600381111561150c5761150c613b76565b14611573576040517f08c379a000000000000000000000000000000000000000000000000000000000815260206004820152600a60248201527f4e4f545f4143544956450000000000000000000000000000000000000000000060448201526064016102e5565b505060395460608701516000925061158a91612c4f565b9050600080606080600061159d8661237b565b805194995092975090955090935091501561163a576040517f946aadc600000000000000000000000000000000000000000000000000000000815273ffffffffffffffffffffffffffffffffffffffff82169063946aadc690611607906000908690600401614553565b600060405180830381600087803b15801561162157600080fd5b505af1158015611635573d6000803e3d6000fd5b505050505b50600090506116498486612c4f565b905089604001518110156116b9576040517f08c379a000000000000000000000000000000000000000000000000000000000815260206004820152601260248201527f494e53554646494349454e545f53544f434b000000000000000000000000000060448201526064016102e5565b8960800151831115611727576040517f08c379a000000000000000000000000000000000000000000000000000000000815260206004820152600d60248201527f4d4158494d554d5f50524943450000000000000000000000000000000000000060448201526064016102e5565b600061173584836001612986565b905060006040518060a0016040528060425481526020018d6000015173ffffffffffffffffffffffffffffffffffffffff1681526020018d602001518152602001848152602001868152509050604260008154809291906117959061456c565b909155505033600090815260416020908152604080832090519092916117bd918591016145a4565b60405160208183030381529060405280519060200120815260200190815260200160002060008154809291906117f29061456c565b90915550506020808d01518d5173ffffffffffffffffffffffffffffffffffffffff166000908152604390925260408220805491929091611834908490614029565b92505081905550828460028151811061184f5761184f61403c565b60200260200101516000815181106118695761186961403c565b6020026020010181815250506039548460028151811061188b5761188b61403c565b60200260200101516001815181106118a5576118a561403c565b60200260200101818152505082846002815181106118c5576118c561403c565b60200260200101516001815181106118df576118df61403c565b60200260200101516118f19190614516565b846002815181106119045761190461403c565b602002602001015160028151811061191e5761191e61403c565b6020026020010181815250508360028151811061193d5761193d61403c565b60200260200101516002815181106119575761195761403c565b60200260200101516039819055508b602001518460028151811061197d5761197d61403c565b60200260200101516003815181106119975761199761403c565b60200260200101818152505081846002815181106119b7576119b761403c565b60200260200101516004815181106119d1576119d161403c565b602002602001018181525050603a54846002815181106119f3576119f361403c565b6020026020010151600581518110611a0d57611a0d61403c565b6020026020010181815250508184600281518110611a2d57611a2d61403c565b6020026020010151600581518110611a4757611a4761403c565b6020026020010151611a599190614029565b84600281518110611a6c57611a6c61403c565b6020026020010151600681518110611a8657611a8661403c565b60200260200101818152505083600281518110611aa557611aa561403c565b6020026020010151600681518110611abf57611abf61403c565b6020026020010151603a6000828254611ad89190614029565b925050819055506000611aee8960400151612c69565b60385490915060ff1615611c7a577f17a5c0f3785132a57703932032f6863e7920434150aa1dc940e567b440fdce1f3386604051611b2d929190614638565b60405180910390a1885160208a01516040517f6715f82500000000000000000000000000000000000000000000000000000000815260009273ffffffffffffffffffffffffffffffffffffffff1691636715f82591611b959190859087908c90600401614667565b600060405180830381865afa158015611bb2573d6000803e3d6000fd5b505050506040513d6000823e601f3d9081017fffffffffffffffffffffffffffffffffffffffffffffffffffffffffffffffe0168201604052611bf891908101906146fd565b915050600081511115611c7857896020015173ffffffffffffffffffffffffffffffffffffffff1663946aadc66000836040518363ffffffff1660e01b8152600401611c45929190614553565b600060405180830381600087803b158015611c5f57600080fd5b505af1158015611c73573d6000803e3d6000fd5b505050505b505b50611cb133308e6020015185611c909190614029565b603c5473ffffffffffffffffffffffffffffffffffffffff169291906129a4565b603b54611cd59073ffffffffffffffffffffffffffffffffffffffff1633856120c8565b7fde28bbdf409354cf811d2e1f52147a0a2a1b89be5848c4b5a41587f63b7cfa6a338d83604051611d0893929190614757565b60405180910390a16000806000611d1d61219c565b925092509250600081511115611db5576040517f946aadc600000000000000000000000000000000000000000000000000000000815273ffffffffffffffffffffffffffffffffffffffff83169063946aadc690611d82906000908590600401614553565b600060405180830381600087803b158015611d9c57600080fd5b505af1158015611db0573d6000803e3d6000fd5b505050505b8215611e3057603f546039541015611e2b576040517f08c379a00000000000000000000000000000000000000000000000000000000081526004016102e59060208082526004908201527f4455535400000000000000000000000000000000000000000000000000000000604082015260600190565b611e38565b611e38612ae9565b50505050505050505050505b611e4e6001600355565b5050600080547fffffffffffffffff0000000000000000000000000000000000000000ffffffff1690555050565b6001603c5474010000000000000000000000000000000000000000900460ff166003811115611ead57611ead613b76565b14611f14576040517f08c379a000000000000000000000000000000000000000000000000000000000815260206004820152600a60248201527f4e4f545f4143544956450000000000000000000000000000000000000000000060448201526064016102e5565b6000806000611f2161219c565b9250925092508215611f91576040517f08c379a00000000000000000000000000000000000000000000000000000000081526004016102e59060208082526004908201527f4c49564500000000000000000000000000000000000000000000000000000000604082015260600190565b611049612ae9565b80516020820120828114611fe3576040517f74fe10f000000000000000000000000000000000000000000000000000000000815260048101849052602481018290526044016102e5565b610a7582612c9b565b6040805160008082526020820190925273ffffffffffffffffffffffffffffffffffffffff831691635511cb679190612035565b60608152602001906001900390816120205790505b5060408051600080825260208201908152818301928390527fffffffff0000000000000000000000000000000000000000000000000000000060e086901b169092526120859291604482016143f7565b6060604051808303816000875af11580156120a4573d6000803e3d6000fd5b505050506040513d601f19601f82011682018060405250810190610f29919061443a565b60405173ffffffffffffffffffffffffffffffffffffffff8316602482015260448101829052610a759084907fa9059cbb00000000000000000000000000000000000000000000000000000000906064015b604080517fffffffffffffffffffffffffffffffffffffffffffffffffffffffffffffffe08184030181529190526020810180517bffffffffffffffffffffffffffffffffffffffffffffffffffffffff167fffffffff0000000000000000000000000000000000000000000000000000000090931692909217909152612cdf565b6000806060600160395410156121c5575050604080516000808252602082019092529092839250565b6040805160608101825260355473ffffffffffffffffffffffffffffffffffffffff908116808352603654821660208401819052603754909216938301849052919260009283929091636715f8259190849061222090612deb565b604080516000808252602082019092526122c09161224e565b60608152602001906001900390816122395790505b50604080516000808252602082018181528284019093529091906122ba565b6122a76040518060600160405280600073ffffffffffffffffffffffffffffffffffffffff16815260200160608152602001606081525090565b81526020019060019003908161226d5790505b50612e14565b6040518563ffffffff1660e01b81526004016122df9493929190614667565b600060405180830381865afa1580156122fc573d6000803e3d6000fd5b505050506040513d6000823e601f3d9081017fffffffffffffffffffffffffffffffffffffffffffffffffffffffffffffffe016820160405261234291908101906146fd565b9150915060008260018451038151811061235e5761235e61403c565b602002602001015111836020015182955095509550505050909192565b600080606081818161242d60026040519080825280602002602001820160405280156123bb57816020015b60608152602001906001900390816123a65790505b506123c58961317e565b60408051600080825260208201909252906122ba565b6124156040518060600160405280600073ffffffffffffffffffffffffffffffffffffffff16815260200160608152602001606081525090565b8152602001906001900390816123db57905050612e14565b6040805160608101825260355473ffffffffffffffffffffffffffffffffffffffff90811680835260365482166020840181905260375490921693830184905293945090926000928392636715f825918490612488906131b0565b886040518563ffffffff1660e01b81526004016124a89493929190614667565b600060405180830381865afa1580156124c5573d6000803e3d6000fd5b505050506040513d6000823e601f3d9081017fffffffffffffffffffffffffffffffffffffffffffffffffffffffffffffffe016820160405261250b91908101906146fd565b915091506000826002845103815181106125275761252761403c565b602002602001015190506000836001855103815181106125495761254961403c565b60200260200101519050600061255f83836131db565b905080876001815181106125755761257561403c565b602090810291909101015260408051600780825261010082019092529081602001602082028036833701905050876002815181106125b5576125b561403c565b6020908102919091018101919091529590950151919c909b5094995097509550919350505050565b600254610100900460ff16612674576040517f08c379a000000000000000000000000000000000000000000000000000000000815260206004820152602b60248201527f496e697469616c697a61626c653a20636f6e7472616374206973206e6f74206960448201527f6e697469616c697a696e6700000000000000000000000000000000000000000060648201526084016102e5565b61267c61320f565b565b60018163ffffffff1610156126bf576040517f0cfcc71600000000000000000000000000000000000000000000000000000000815260040160405180910390fd5b60005463ffffffff16156126ff576040517fede5856400000000000000000000000000000000000000000000000000000000815260040160405180910390fd5b600080547fffffffffffffffffffffffffffffffffffffffffffffffffffffffff000000001663ffffffff83169081179091556040805133815260208101929092527f6153539ba1c54ed4ef5b6f1fda4b7183eeaa1b5707c152abed56f61e09452521910160405180910390a150565b60408051600380825260808201909252606091600091906020820184803683375050506020810186905260408101859052606081018490529150505b9392505050565b60005463ffffffff1660018110156127f6576040517f1c72fad400000000000000000000000000000000000000000000000000000000815260040160405180910390fd5b600054640100000000900473ffffffffffffffffffffffffffffffffffffffff16806128545750600080547fffffffffffffffff0000000000000000000000000000000000000000ffffffff16336401000000008102919091179091555b73ffffffffffffffffffffffffffffffffffffffff81166000908152600160205260409020544210156128e95773ffffffffffffffffffffffffffffffffffffffff8116600081815260016020526040908190205490517f8dafa474000000000000000000000000000000000000000000000000000000008152600481019290925233602483015260448201526064016102e5565b60006128f58342614029565b73ffffffffffffffffffffffffffffffffffffffff8316600081815260016020908152604091829020849055815192835282018390529192507fdd9ec76fd04aab7ee6b385c04a7bdf966620500e72b134bfc3f19654fae20f25910160405180910390a15050600080547fffffffffffffffff0000000000000000000000000000000000000000ffffffff16905550565b600061299c8484670de0b6b3a7640000856132a6565b949350505050565b60405173ffffffffffffffffffffffffffffffffffffffff80851660248301528316604482015260648101829052610f299085907f23b872dd000000000000000000000000000000000000000000000000000000009060840161211a565b603c80547fffffffffffffffffffffff00ffffffffffffffffffffffffffffffffffffffff16740100000000000000000000000000000000000000001790556040805133815290517f84d0447ca38875fa61115673259a210915bc1dd53a3c112d6f0790f15956a9659181900360200190a1565b600260035403612ae2576040517f08c379a000000000000000000000000000000000000000000000000000000000815260206004820152601f60248201527f5265656e7472616e637947756172643a207265656e7472616e742063616c6c0060448201526064016102e5565b6002600355565b603e54603a541015600081612aff576003612b02565b60025b6000603955603c805491925082917fffffffffffffffffffffff00ffffffffffffffffffffffffffffffffffffffff1674010000000000000000000000000000000000000000836003811115612b5a57612b5a613b76565b02179055507f9aef4e6c636914c533cde859f632ab5e2b68cfd8f06b6a2e18f89783f00072cd3382604051612b909291906147fa565b60405180910390a1603b546040517f8b24259b00000000000000000000000000000000000000000000000000000000815230600482015273ffffffffffffffffffffffffffffffffffffffff90911690638b24259b90602401600060405180830381600087803b158015612c0357600080fd5b505af1158015612c17573d6000803e3d6000fd5b50505050811561035057603d54603a54603c546103509273ffffffffffffffffffffffffffffffffffffffff918216929116906120c8565b6000818310612c5e5781612c60565b825b90505b92915050565b600062020000602083901b77ffffffffffffffffffffffffffffffffffffffff000000001617612c63565b6001600355565b612ca481613303565b612cdc57806040517f644cc2580000000000000000000000000000000000000000000000000000000081526004016102e59190614824565b50565b6000612d41826040518060400160405280602081526020017f5361666545524332303a206c6f772d6c6576656c2063616c6c206661696c65648152508573ffffffffffffffffffffffffffffffffffffffff166133339092919063ffffffff16565b805190915015610a755780806020019051810190612d5f9190614837565b610a75576040517f08c379a000000000000000000000000000000000000000000000000000000000815260206004820152602a60248201527f5361666545524332303a204552433230206f7065726174696f6e20646964206e60448201527f6f7420737563636565640000000000000000000000000000000000000000000060648201526084016102e5565b6000602082901b77ffffffffffffffffffffffffffffffffffffffff0000000016600117612c63565b60606000825167ffffffffffffffff811115612e3257612e32613a10565b604051908082528060200260200182016040528015612e5b578160200160208202803683370190505b509050600080845111612e6f576000612e75565b83516001015b865101600201905060008167ffffffffffffffff811115612e9857612e98613a10565b604051908082528060200260200182016040528015612ecb57816020015b6060815260200190600190039081612eb65790505b5090506000612ed8613342565b828281518110612eea57612eea61403c565b602002602001018190525060005b8851811015612f48578180600101925050888181518110612f1b57612f1b61403c565b6020026020010151838381518110612f3557612f3561403c565b6020908102919091010152600101612ef8565b50808060010191505086828281518110612f6457612f6461403c565b602090810291909101015285511561317357808060010191505083828281518110612f9157612f9161403c565b602002602001018190525060005b86518110156131715761309b878281518110612fbd57612fbd61403c565b602002602001015160000151613078898481518110612fde57612fde61403c565b602002602001015160400151604051602001612ffa9190614859565b604080517fffffffffffffffffffffffffffffffffffffffffffffffffffffffffffffffe081840301815282825280516020918201207f19457468657265756d205369676e6564204d6573736167653a0a33320000000084830152603c8085019190915282518085039091018152605c909301909152815191012090565b89848151811061308a5761308a61403c565b602002602001015160200151613353565b6130d4576040517f52bf9848000000000000000000000000000000000000000000000000000000008152600481018290526024016102e5565b8681815181106130e6576130e661403c565b60200260200101516000015173ffffffffffffffffffffffffffffffffffffffff1685828151811061311a5761311a61403c565b60200260200101818152505081806001019250508681815181106131405761314061403c565b60200260200101516040015183838151811061315e5761315e61403c565b6020908102919091010152600101612f9f565b505b509695505050505050565b604080516001808252818301909252606091600091906020808301908036833750505060208101939093525090919050565b600062010002602083901b77ffffffffffffffffffffffffffffffffffffffff000000001617612c63565b6040805160028082526060808301845292600092919060208301908036833750505060208101949094525050604082015290565b600254610100900460ff16612c94576040517f08c379a000000000000000000000000000000000000000000000000000000000815260206004820152602b60248201527f496e697469616c697a61626c653a20636f6e7472616374206973206e6f74206960448201527f6e697469616c697a696e6700000000000000000000000000000000000000000060648201526084016102e5565b6000806132b4868686613520565b905060018360028111156132ca576132ca613b76565b1480156132e75750600084806132e2576132e261488f565b868809115b156132fa576132f7600182614029565b90505b95945050505050565b600060088251101561331757506000919050565b506008015167ffffffffffffffff1667ff0a89c674ee78741490565b606061299c84846000856135ed565b606061334e33306131db565b905090565b60008060006133628585613706565b9092509050600081600481111561337b5761337b613b76565b1480156133b357508573ffffffffffffffffffffffffffffffffffffffff168273ffffffffffffffffffffffffffffffffffffffff16145b156133c3576001925050506127ab565b6000808773ffffffffffffffffffffffffffffffffffffffff16631626ba7e60e01b88886040516024016133f89291906148be565b604080517fffffffffffffffffffffffffffffffffffffffffffffffffffffffffffffffe08184030181529181526020820180517bffffffffffffffffffffffffffffffffffffffffffffffffffffffff167fffffffff0000000000000000000000000000000000000000000000000000000090941693909317909252905161348191906148d7565b600060405180830381855afa9150503d80600081146134bc576040519150601f19603f3d011682016040523d82523d6000602084013e6134c1565b606091505b50915091508180156134d4575080516020145b8015613514575080517f1626ba7e000000000000000000000000000000000000000000000000000000009061351290830160209081019084016148f3565b145b98975050505050505050565b600080807fffffffffffffffffffffffffffffffffffffffffffffffffffffffffffffffff858709858702925082811083820303915050806000036135785783828161356e5761356e61488f565b04925050506127ab565b80841161358457600080fd5b60008486880960026001871981018816978890046003810283188082028403028082028403028082028403028082028403028082028403029081029092039091026000889003889004909101858311909403939093029303949094049190911702949350505050565b60608247101561367f576040517f08c379a000000000000000000000000000000000000000000000000000000000815260206004820152602660248201527f416464726573733a20696e73756666696369656e742062616c616e636520666f60448201527f722063616c6c000000000000000000000000000000000000000000000000000060648201526084016102e5565b6000808673ffffffffffffffffffffffffffffffffffffffff1685876040516136a891906148d7565b60006040518083038185875af1925050503d80600081146136e5576040519150601f19603f3d011682016040523d82523d6000602084013e6136ea565b606091505b50915091506136fb8783838761374b565b979650505050505050565b600080825160410361373c5760208301516040840151606085015160001a613730878285856137eb565b94509450505050613744565b506000905060025b9250929050565b606083156137e15782516000036137da5773ffffffffffffffffffffffffffffffffffffffff85163b6137da576040517f08c379a000000000000000000000000000000000000000000000000000000000815260206004820152601d60248201527f416464726573733a2063616c6c20746f206e6f6e2d636f6e747261637400000060448201526064016102e5565b508161299c565b61299c83836138da565b6000807f7fffffffffffffffffffffffffffffff5d576e7357a4501ddfe92f46681b20a083111561382257506000905060036138d1565b6040805160008082526020820180845289905260ff881692820192909252606081018690526080810185905260019060a0016020604051602081039080840390855afa158015613876573d6000803e3d6000fd5b50506040517fffffffffffffffffffffffffffffffffffffffffffffffffffffffffffffffe0015191505073ffffffffffffffffffffffffffffffffffffffff81166138ca576000600192509250506138d1565b9150600090505b94509492505050565b8151156138ea5781518083602001fd5b806040517f08c379a00000000000000000000000000000000000000000000000000000000081526004016102e59190614824565b73ffffffffffffffffffffffffffffffffffffffff81168114612cdc57600080fd5b803561394b8161391e565b919050565b60006020828403121561396257600080fd5b81356127ab8161391e565b60006020828403121561397f57600080fd5b5035919050565b6000806020838503121561399957600080fd5b823567ffffffffffffffff808211156139b157600080fd5b818501915085601f8301126139c557600080fd5b8135818111156139d457600080fd5b8660208285010111156139e657600080fd5b60209290920196919550909350505050565b600060a08284031215613a0a57600080fd5b50919050565b7f4e487b7100000000000000000000000000000000000000000000000000000000600052604160045260246000fd5b6040516060810167ffffffffffffffff81118282101715613a6257613a62613a10565b60405290565b6040516080810167ffffffffffffffff81118282101715613a6257613a62613a10565b60405160e0810167ffffffffffffffff81118282101715613a6257613a62613a10565b604051601f82017fffffffffffffffffffffffffffffffffffffffffffffffffffffffffffffffe016810167ffffffffffffffff81118282101715613af557613af5613a10565b604052919050565b600060a08284031215613b0f57600080fd5b60405160a0810181811067ffffffffffffffff82111715613b3257613b32613a10565b6040528235613b408161391e565b80825250602083013560208201526040830135604082015260608301356060820152608083013560808201528091505092915050565b7f4e487b7100000000000000000000000000000000000000000000000000000000600052602160045260246000fd5b60048110613bdc577f4e487b7100000000000000000000000000000000000000000000000000000000600052602160045260246000fd5b9052565b60208101612c638284613ba5565b803563ffffffff8116811461394b57600080fd5b600067ffffffffffffffff821115613c1c57613c1c613a10565b5060051b60200190565b600067ffffffffffffffff831115613c4057613c40613a10565b613c7160207fffffffffffffffffffffffffffffffffffffffffffffffffffffffffffffffe0601f86011601613aae565b9050828152838383011115613c8557600080fd5b828260208301376000602084830101529392505050565b600082601f830112613cad57600080fd5b81356020613cc2613cbd83613c02565b613aae565b82815260059290921b84018101918181019086841115613ce157600080fd5b8286015b848110156131735780358352918301918301613ce5565b600060608284031215613d0e57600080fd5b613d16613a3f565b90508135613d238161391e565b815260208281013567ffffffffffffffff80821115613d4157600080fd5b818501915085601f830112613d5557600080fd5b8135613d63613cbd82613c02565b81815260059190911b83018401908481019088831115613d8257600080fd5b8585015b83811015613dcf57803585811115613d9e5760008081fd5b8601603f81018b13613db05760008081fd5b613dc18b8983013560408401613c26565b845250918601918601613d86565b5080868801525050506040850135925080831115613dec57600080fd5b5050613dfa84828501613c9c565b60408301525092915050565b600082601f830112613e1757600080fd5b612c6083833560208501613c26565b600060808284031215613e3857600080fd5b613e40613a68565b9050813567ffffffffffffffff80821115613e5a57600080fd5b9083019060808286031215613e6e57600080fd5b613e76613a68565b823582811115613e8557600080fd5b613e9187828601613e06565b825250602083013582811115613ea657600080fd5b613eb287828601613e06565b60208301525060408301359150613ec88261391e565b81604082015260608301356060820152808452505050613eea60208301613940565b602082015260408201356040820152613f0560608301613940565b606082015292915050565b60008060408385031215613f2357600080fd5b823567ffffffffffffffff80821115613f3b57600080fd5b9084019060e08287031215613f4f57600080fd5b613f57613a8b565b613f6083613940565b8152613f6e60208401613940565b6020820152613f7f60408401613bee565b6040820152613f9060608401613bee565b60608201526080830135608082015260a083013560a082015260c083013582811115613fbb57600080fd5b613fc788828601613cfc565b60c08301525093506020850135915080821115613fe357600080fd5b50613ff085828601613e26565b9150509250929050565b7f4e487b7100000000000000000000000000000000000000000000000000000000600052601160045260246000fd5b80820180821115612c6357612c63613ffa565b7f4e487b7100000000000000000000000000000000000000000000000000000000600052603260045260246000fd5b60005b8381101561408657818101518382015260200161406e565b50506000910152565b600081518084526140a781602086016020860161406b565b601f017fffffffffffffffffffffffffffffffffffffffffffffffffffffffffffffffe0169290920160200192915050565b60008151608084526140ee608085018261408f565b905060208301518482036020860152614107828261408f565b91505073ffffffffffffffffffffffffffffffffffffffff6040840151166040850152606083015160608501528091505092915050565b60208152600073ffffffffffffffffffffffffffffffffffffffff808451166020840152602084015160a0604085015261417b60c08501826140d9565b9050816040860151166060850152606085015160808501528160808601511660a0850152809250505092915050565b73ffffffffffffffffffffffffffffffffffffffff8316815260406020820152600061299c604083018461408f565b6000602082840312156141eb57600080fd5b81516127ab8161391e565b6000815180845260208085019450848260051b860182860160005b8581101561423b57838303895261422983835161408f565b98850198925090840190600101614211565b5090979650505050505050565b600081518084526020808501945080840160005b838110156142785781518752958201959082019060010161425c565b509495945050505050565b73ffffffffffffffffffffffffffffffffffffffff815116825260006020820151606060208501526142b860608501826141f6565b9050604083015184820360408601526132fa8282614248565b60008151608084526142e660808501826140d9565b9050602083015173ffffffffffffffffffffffffffffffffffffffff80821660208701526040850151604087015280606086015116606087015250508091505092915050565b600073ffffffffffffffffffffffffffffffffffffffff8087168352608060208401528086511660808401528060208701511660a08401525063ffffffff60408601511660c0830152606085015161438c60e084018263ffffffff169052565b50608085015161010083015260a085015161012083015260c085015160e06101408401526143be610160840182614283565b905082810360408401526143d281866142d1565b9150506132fa606083018473ffffffffffffffffffffffffffffffffffffffff169052565b60608152600061440a60608301866141f6565b828103602084015261441c8186614248565b905082810360408401526144308185614248565b9695505050505050565b60008060006060848603121561444f57600080fd5b835161445a8161391e565b602085015190935061446b8161391e565b604085015190925061447c8161391e565b809150509250925092565b8035825260208101356144998161391e565b73ffffffffffffffffffffffffffffffffffffffff1660208301526040818101359083015260608082013590830152608090810135910152565b60a08101612c638284614487565b6000816144f0576144f0613ffa565b507fffffffffffffffffffffffffffffffffffffffffffffffffffffffffffffffff0190565b81810381811115612c6357612c63613ffa565b73ffffffffffffffffffffffffffffffffffffffff8316815260c081016127ab6020830184614487565b82815260406020820152600061299c6040830184614248565b60007fffffffffffffffffffffffffffffffffffffffffffffffffffffffffffffffff820361459d5761459d613ffa565b5060010190565b60a08101612c6382848051825273ffffffffffffffffffffffffffffffffffffffff60208201511660208301526040810151604083015260608101516060830152608081015160808301525050565b6000815180845260208085019450848260051b860182860160005b8581101561423b578383038952614626838351614248565b9885019892509084019060010161460e565b73ffffffffffffffffffffffffffffffffffffffff8316815260406020820152600061299c60408301846145f3565b73ffffffffffffffffffffffffffffffffffffffff8516815283602082015282604082015260806060820152600061443060808301846145f3565b600082601f8301126146b357600080fd5b815160206146c3613cbd83613c02565b82815260059290921b840181019181810190868411156146e257600080fd5b8286015b8481101561317357805183529183019183016146e6565b6000806040838503121561471057600080fd5b825167ffffffffffffffff8082111561472857600080fd5b614734868387016146a2565b9350602085015191508082111561474a57600080fd5b50613ff0858286016146a2565b60006101608201905073ffffffffffffffffffffffffffffffffffffffff808616835280855116602084015250602084015160408301526040840151606083015260608401516080830152608084015160a083015261299c60c08301848051825273ffffffffffffffffffffffffffffffffffffffff60208201511660208301526040810151604083015260608101516060830152608081015160808301525050565b73ffffffffffffffffffffffffffffffffffffffff83168152604081016127ab6020830184613ba5565b602081526000612c60602083018461408f565b60006020828403121561484957600080fd5b815180151581146127ab57600080fd5b815160009082906020808601845b8381101561488357815185529382019390820190600101614867565b50929695505050505050565b7f4e487b7100000000000000000000000000000000000000000000000000000000600052601260045260246000fd5b82815260406020820152600061299c604083018461408f565b600082516148e981846020870161406b565b9190910192915050565b60006020828403121561490557600080fd5b505191905056fea2646970667358221220f03349fa184b9b0b896911eda7d0a496f2c300c7404f685c6154f93ec34e48dd64736f6c63430008120033",
  "linkReferences": {},
  "deployedLinkReferences": {}
}