{
  "_format": "hh-sol-artifact-1",
  "contractName": "FlowERC721Factory",
  "sourceName": "contracts/flow/erc721/FlowERC721Factory.sol",
  "abi": [
    {
      "inputs": [],
      "stateMutability": "nonpayable",
      "type": "constructor"
    },
    {
      "inputs": [
        {
          "internalType": "address",
          "name": "child",
          "type": "address"
        }
      ],
      "name": "DuplicateChild",
      "type": "error"
    },
    {
      "anonymous": false,
      "inputs": [
        {
          "indexed": false,
          "internalType": "address",
          "name": "sender",
          "type": "address"
        },
        {
          "indexed": false,
          "internalType": "address",
          "name": "implementation",
          "type": "address"
        }
      ],
      "name": "Implementation",
      "type": "event"
    },
    {
      "anonymous": false,
      "inputs": [
        {
          "indexed": false,
          "internalType": "uint8",
          "name": "version",
          "type": "uint8"
        }
      ],
      "name": "Initialized",
      "type": "event"
    },
    {
      "anonymous": false,
      "inputs": [
        {
          "indexed": false,
          "internalType": "address",
          "name": "sender",
          "type": "address"
        },
        {
          "indexed": false,
          "internalType": "address",
          "name": "child",
          "type": "address"
        }
      ],
      "name": "NewChild",
      "type": "event"
    },
    {
      "inputs": [
        {
          "internalType": "bytes",
          "name": "data_",
          "type": "bytes"
        }
      ],
      "name": "createChild",
      "outputs": [
        {
          "internalType": "address",
          "name": "",
          "type": "address"
        }
      ],
      "stateMutability": "nonpayable",
      "type": "function"
    },
    {
      "inputs": [
        {
          "components": [
            {
              "internalType": "string",
              "name": "name",
              "type": "string"
            },
            {
              "internalType": "string",
              "name": "symbol",
              "type": "string"
            },
            {
              "components": [
                {
                  "internalType": "contract IExpressionDeployerV1",
                  "name": "deployer",
                  "type": "address"
                },
                {
                  "internalType": "contract IInterpreterV1",
                  "name": "interpreter",
                  "type": "address"
                },
                {
                  "internalType": "contract IInterpreterStoreV1",
                  "name": "store",
                  "type": "address"
                },
                {
                  "components": [
                    {
                      "internalType": "bytes[]",
                      "name": "sources",
                      "type": "bytes[]"
                    },
                    {
                      "internalType": "uint256[]",
                      "name": "constants",
                      "type": "uint256[]"
                    }
                  ],
                  "internalType": "struct ExpressionConfig",
                  "name": "expressionConfig",
                  "type": "tuple"
                }
              ],
              "internalType": "struct EvaluableConfig",
              "name": "evaluableConfig",
              "type": "tuple"
            },
            {
              "components": [
                {
                  "internalType": "contract IExpressionDeployerV1",
                  "name": "deployer",
                  "type": "address"
                },
                {
                  "internalType": "contract IInterpreterV1",
                  "name": "interpreter",
                  "type": "address"
                },
                {
                  "internalType": "contract IInterpreterStoreV1",
                  "name": "store",
                  "type": "address"
                },
                {
                  "components": [
                    {
                      "internalType": "bytes[]",
                      "name": "sources",
                      "type": "bytes[]"
                    },
                    {
                      "internalType": "uint256[]",
                      "name": "constants",
                      "type": "uint256[]"
                    }
                  ],
                  "internalType": "struct ExpressionConfig",
                  "name": "expressionConfig",
                  "type": "tuple"
                }
              ],
              "internalType": "struct EvaluableConfig[]",
              "name": "flowConfig",
              "type": "tuple[]"
            }
          ],
          "internalType": "struct FlowERC721Config",
          "name": "config_",
          "type": "tuple"
        }
      ],
      "name": "createChildTyped",
      "outputs": [
        {
          "internalType": "contract FlowERC721",
          "name": "",
          "type": "address"
        }
      ],
      "stateMutability": "nonpayable",
      "type": "function"
    },
    {
      "inputs": [],
      "name": "implementation",
      "outputs": [
        {
          "internalType": "address",
          "name": "",
          "type": "address"
        }
      ],
      "stateMutability": "view",
      "type": "function"
    },
    {
      "inputs": [
        {
          "internalType": "address",
          "name": "maybeChild_",
          "type": "address"
        }
      ],
      "name": "isChild",
      "outputs": [
        {
          "internalType": "bool",
          "name": "",
          "type": "bool"
        }
      ],
      "stateMutability": "view",
      "type": "function"
    }
  ],
  "bytecode": "0x60a060405234801561001057600080fd5b50610019610099565b600060405161002790610159565b604051809103906000f080158015610043573d6000803e3d6000fd5b50604080513381526001600160a01b03831660208201529192507f7fac34ecf0b1b374cd9659e3d17db602659d53f1162b1f20142e6c02694aed70910160405180910390a16001600160a01b0316608052610167565b600054610100900460ff16156101055760405162461bcd60e51b815260206004820152602760248201527f496e697469616c697a61626c653a20636f6e747261637420697320696e697469604482015266616c697a696e6760c81b606482015260840160405180910390fd5b60005460ff9081161015610157576000805460ff191660ff9081179091556040519081527f7f26b83ff96e1f2b6a682f133852f6798a09c465da95921460cefb38474024989060200160405180910390a15b565b6160ab80620010fc83390190565b608051610f736200018960003960008181609301526103020152610f736000f3fe608060405234801561001057600080fd5b506004361061004c5760003560e01c80632ea72a49146100515780635c60da1b1461008e578063cbd7a26b146100b5578063fc91a897146100c8575b600080fd5b61006461005f3660046105de565b610111565b60405173ffffffffffffffffffffffffffffffffffffffff90911681526020015b60405180910390f35b6100647f000000000000000000000000000000000000000000000000000000000000000081565b6100646100c336600461088d565b61023f565b6101016100d6366004610966565b73ffffffffffffffffffffffffffffffffffffffff1660009081526033602052604090205460ff1690565b6040519015158152602001610085565b600061011b61026f565b6000610126836102e2565b73ffffffffffffffffffffffffffffffffffffffff811660009081526033602052604090205490915060ff16156101a6576040517fd23867da00000000000000000000000000000000000000000000000000000000815273ffffffffffffffffffffffffffffffffffffffff821660048201526024015b60405180910390fd5b73ffffffffffffffffffffffffffffffffffffffff811660008181526033602090815260409182902080547fffffffffffffffffffffffffffffffffffffffffffffffffffffffffffffff001660011790558151338152908101929092527f7da70c4e5387d7038610b79ca7d304caaef815826e51e67cf247135387a79bce910160405180910390a1905061023a60018055565b919050565b6000610269826040516020016102559190610b16565b604051602081830303815290604052610111565b92915050565b6002600154036102db576040517f08c379a000000000000000000000000000000000000000000000000000000000815260206004820152601f60248201527f5265656e7472616e637947756172643a207265656e7472616e742063616c6c00604482015260640161019d565b6002600155565b600080828060200190518101906102f99190610e73565b905060006103267f00000000000000000000000000000000000000000000000000000000000000006103b5565b6040517fc33c041800000000000000000000000000000000000000000000000000000000815290915073ffffffffffffffffffffffffffffffffffffffff82169063c33c04189061037b908590600401610b16565b600060405180830381600087803b15801561039557600080fd5b505af11580156103a9573d6000803e3d6000fd5b50929695505050505050565b6000763d602d80600a3d3981f3363d3d373d3d3d363d730000008260601b60e81c176000526e5af43d82803e903d91602b57fd5bf38260781b17602052603760096000f0905073ffffffffffffffffffffffffffffffffffffffff811661023a576040517f08c379a000000000000000000000000000000000000000000000000000000000815260206004820152601660248201527f455243313136373a20637265617465206661696c656400000000000000000000604482015260640161019d565b7f4e487b7100000000000000000000000000000000000000000000000000000000600052604160045260246000fd5b6040516080810167ffffffffffffffff811182821017156104ca576104ca610478565b60405290565b6040805190810167ffffffffffffffff811182821017156104ca576104ca610478565b604051601f82017fffffffffffffffffffffffffffffffffffffffffffffffffffffffffffffffe016810167ffffffffffffffff8111828210171561053a5761053a610478565b604052919050565b600067ffffffffffffffff82111561055c5761055c610478565b50601f017fffffffffffffffffffffffffffffffffffffffffffffffffffffffffffffffe01660200190565b600082601f83011261059957600080fd5b81356105ac6105a782610542565b6104f3565b8181528460208386010111156105c157600080fd5b816020850160208301376000918101602001919091529392505050565b6000602082840312156105f057600080fd5b813567ffffffffffffffff81111561060757600080fd5b61061384828501610588565b949350505050565b73ffffffffffffffffffffffffffffffffffffffff8116811461063d57600080fd5b50565b600067ffffffffffffffff82111561065a5761065a610478565b5060051b60200190565b600082601f83011261067557600080fd5b813560206106856105a783610640565b82815260059290921b840181019181810190868411156106a457600080fd5b8286015b848110156106bf57803583529183019183016106a8565b509695505050505050565b6000608082840312156106dc57600080fd5b6106e46104a7565b905081356106f18161061b565b81526020828101356107028161061b565b8282015260408301356107148161061b565b6040830152606083013567ffffffffffffffff8082111561073457600080fd5b908401906040828703121561074857600080fd5b6107506104d0565b82358281111561075f57600080fd5b8301601f8101881361077057600080fd5b803561077e6105a782610640565b81815260059190911b8201860190868101908a83111561079d57600080fd5b8784015b838110156107d5578035878111156107b95760008081fd5b6107c78d8b83890101610588565b8452509188019188016107a1565b50845250505082840135828111156107ec57600080fd5b6107f888828601610664565b85830152508060608601525050505092915050565b600082601f83011261081e57600080fd5b8135602061082e6105a783610640565b82815260059290921b8401810191818101908684111561084d57600080fd5b8286015b848110156106bf57803567ffffffffffffffff8111156108715760008081fd5b61087f8986838b01016106ca565b845250918301918301610851565b60006020828403121561089f57600080fd5b813567ffffffffffffffff808211156108b757600080fd5b90830190608082860312156108cb57600080fd5b6108d36104a7565b8235828111156108e257600080fd5b6108ee87828601610588565b82525060208301358281111561090357600080fd5b61090f87828601610588565b60208301525060408301358281111561092757600080fd5b610933878286016106ca565b60408301525060608301358281111561094b57600080fd5b6109578782860161080d565b60608301525095945050505050565b60006020828403121561097857600080fd5b81356109838161061b565b9392505050565b60005b838110156109a557818101518382015260200161098d565b50506000910152565b600081518084526109c681602086016020860161098a565b601f017fffffffffffffffffffffffffffffffffffffffffffffffffffffffffffffffe0169290920160200192915050565b600073ffffffffffffffffffffffffffffffffffffffff808351168452602081818501511681860152816040850151166040860152606084015191506080606086015260c0850182516040608088015281815180845260e08901915060e08160051b8a01019350848301925060005b81811015610ab3577fffffffffffffffffffffffffffffffffffffffffffffffffffffffffffffff208a8603018352610aa18585516109ae565b94509285019291850191600101610a67565b50505050918101518583037fffffffffffffffffffffffffffffffffffffffffffffffffffffffffffffff800160a0870152805180845290820192600091908301905b808310156106bf5784518252938301936001929092019190830190610af6565b600060208083528351608082850152610b3260a08501826109ae565b9050818501517fffffffffffffffffffffffffffffffffffffffffffffffffffffffffffffffe080868403016040870152610b6d83836109ae565b92506040870151915080868403016060870152610b8a83836109f8565b60608801518782038301608089015280518083529194508501925084840190600581901b8501860160005b82811015610be15784878303018452610bcf8287516109f8565b95880195938801939150600101610bb5565b509998505050505050505050565b6000610bfd6105a784610542565b9050828152838383011115610c1157600080fd5b61098383602083018461098a565b600082601f830112610c3057600080fd5b61098383835160208501610bef565b600082601f830112610c5057600080fd5b81516020610c606105a783610640565b82815260059290921b84018101918181019086841115610c7f57600080fd5b8286015b848110156106bf5780518352918301918301610c83565b600060808284031215610cac57600080fd5b610cb46104a7565b90508151610cc18161061b565b8152602082810151610cd28161061b565b82820152604083810151610ce58161061b565b83820152606084015167ffffffffffffffff80821115610d0457600080fd5b8186019150828288031215610d1857600080fd5b610d206104d0565b825182811115610d2f57600080fd5b8301601f81018913610d4057600080fd5b8051610d4e6105a782610640565b81815260059190911b8201870190878101908b831115610d6d57600080fd5b8884015b83811015610db957805187811115610d895760008081fd5b8501603f81018e13610d9b5760008081fd5b610dab8e8c8301518c8401610bef565b845250918901918901610d71565b50845250505082850151935081841115610dd257600080fd5b610dde88858501610c3f565b85820152806060870152505050505092915050565b600082601f830112610e0457600080fd5b81516020610e146105a783610640565b82815260059290921b84018101918181019086841115610e3357600080fd5b8286015b848110156106bf57805167ffffffffffffffff811115610e575760008081fd5b610e658986838b0101610c9a565b845250918301918301610e37565b600060208284031215610e8557600080fd5b815167ffffffffffffffff80821115610e9d57600080fd5b9083019060808286031215610eb157600080fd5b610eb96104a7565b825182811115610ec857600080fd5b610ed487828601610c1f565b825250602083015182811115610ee957600080fd5b610ef587828601610c1f565b602083015250604083015182811115610f0d57600080fd5b610f1987828601610c9a565b604083015250606083015182811115610f3157600080fd5b61095787828601610df356fea2646970667358221220917354a971688574e35275b878b653dd33d24d320bfb1b1341e805ff957ecc7964736f6c6343000811003360806040523480156200001157600080fd5b506200001c62000022565b620000e4565b600054610100900460ff16156200008f5760405162461bcd60e51b815260206004820152602760248201527f496e697469616c697a61626c653a20636f6e747261637420697320696e697469604482015266616c697a696e6760c81b606482015260840160405180910390fd5b60005460ff9081161015620000e2576000805460ff191660ff9081179091556040519081527f7f26b83ff96e1f2b6a682f133852f6798a09c465da95921460cefb38474024989060200160405180910390a15b565b615fb780620000f46000396000f3fe6080604052600436106101635760003560e01c8063a22cb465116100c0578063c33c041811610074578063e985e9c511610059578063e985e9c514610433578063f23a6e611461048a578063f6420112146104cf57600080fd5b8063c33c0418146103f3578063c87b56dd1461041357600080fd5b8063b88d4fde116100a5578063b88d4fde1461036e578063bc197c811461038e578063bffc7d48146103d357600080fd5b8063a22cb46514610321578063ac9650d81461034157600080fd5b806323b872dd116101175780636352211e116100fc5780636352211e146102be57806370a08231146102de57806395d89b411461030c57600080fd5b806323b872dd1461027e57806342842e0e1461029e57600080fd5b8063081812fc11610148578063081812fc146101c6578063095ea7b31461020b578063150b7a021461022d57600080fd5b806301ffc9a71461016f57806306fdde03146101a457600080fd5b3661016a57005b600080fd5b34801561017b57600080fd5b5061018f61018a3660046146ca565b6104ef565b60405190151581526020015b60405180910390f35b3480156101b057600080fd5b506101b9610500565b60405161019b9190614755565b3480156101d257600080fd5b506101e66101e1366004614768565b610593565b60405173ffffffffffffffffffffffffffffffffffffffff909116815260200161019b565b34801561021757600080fd5b5061022b6102263660046147a3565b6105c8565b005b34801561023957600080fd5b5061024d61024836600461494a565b610759565b6040517fffffffff00000000000000000000000000000000000000000000000000000000909116815260200161019b565b34801561028a57600080fd5b5061022b6102993660046149b6565b610783565b3480156102aa57600080fd5b5061022b6102b93660046149b6565b610824565b3480156102ca57600080fd5b506101e66102d9366004614768565b61083f565b3480156102ea57600080fd5b506102fe6102f93660046149f7565b6108cc565b60405190815260200161019b565b34801561031857600080fd5b506101b961099b565b34801561032d57600080fd5b5061022b61033c366004614a22565b6109ab565b34801561034d57600080fd5b5061036161035c366004614a5b565b6109ba565b60405161019b9190614b25565b34801561037a57600080fd5b5061022b61038936600461494a565b610aaf565b34801561039a57600080fd5b5061024d6103a9366004614bbc565b7fbc197c810000000000000000000000000000000000000000000000000000000095945050505050565b6103e66103e1366004614c6a565b610b57565b60405161019b9190614f60565b3480156103ff57600080fd5b5061022b61040e366004615081565b610b74565b34801561041f57600080fd5b506101b961042e366004614768565b610fa4565b34801561043f57600080fd5b5061018f61044e3660046150bc565b73ffffffffffffffffffffffffffffffffffffffff91821660009081526101656020908152604080832093909416825291909152205460ff1690565b34801561049657600080fd5b5061024d6104a53660046150ea565b7ff23a6e610000000000000000000000000000000000000000000000000000000095945050505050565b3480156104db57600080fd5b506103e66104ea366004614c6a565b611017565b60006104fa8261107a565b92915050565b6060610160805461051090615153565b80601f016020809104026020016040519081016040528092919081815260200182805461053c90615153565b80156105895780601f1061055e57610100808354040283529160200191610589565b820191906000526020600020905b81548152906001019060200180831161056c57829003601f168201915b5050505050905090565b600061059e8261111c565b506000908152610164602052604090205473ffffffffffffffffffffffffffffffffffffffff1690565b60006105d38261083f565b90508073ffffffffffffffffffffffffffffffffffffffff168373ffffffffffffffffffffffffffffffffffffffff1603610695576040517f08c379a000000000000000000000000000000000000000000000000000000000815260206004820152602160248201527f4552433732313a20617070726f76616c20746f2063757272656e74206f776e6560448201527f720000000000000000000000000000000000000000000000000000000000000060648201526084015b60405180910390fd5b3373ffffffffffffffffffffffffffffffffffffffff821614806106be57506106be813361044e565b61074a576040517f08c379a000000000000000000000000000000000000000000000000000000000815260206004820152603d60248201527f4552433732313a20617070726f76652063616c6c6572206973206e6f7420746f60448201527f6b656e206f776e6572206f7220617070726f76656420666f7220616c6c000000606482015260840161068c565b61075483836111ab565b505050565b7f150b7a02000000000000000000000000000000000000000000000000000000005b949350505050565b61078d338261124c565b610819576040517f08c379a000000000000000000000000000000000000000000000000000000000815260206004820152602d60248201527f4552433732313a2063616c6c6572206973206e6f7420746f6b656e206f776e6560448201527f72206f7220617070726f76656400000000000000000000000000000000000000606482015260840161068c565b61075483838361130c565b61075483838360405180602001604052806000815250610aaf565b6000818152610162602052604081205473ffffffffffffffffffffffffffffffffffffffff16806104fa576040517f08c379a000000000000000000000000000000000000000000000000000000000815260206004820152601860248201527f4552433732313a20696e76616c696420746f6b656e2049440000000000000000604482015260640161068c565b600073ffffffffffffffffffffffffffffffffffffffff8216610971576040517f08c379a000000000000000000000000000000000000000000000000000000000815260206004820152602960248201527f4552433732313a2061646472657373207a65726f206973206e6f74206120766160448201527f6c6964206f776e65720000000000000000000000000000000000000000000000606482015260840161068c565b5073ffffffffffffffffffffffffffffffffffffffff166000908152610163602052604090205490565b6060610161805461051090615153565b6109b633838361161f565b5050565b60608167ffffffffffffffff8111156109d5576109d56147cf565b604051908082528060200260200182016040528015610a0857816020015b60608152602001906001900390816109f35790505b50905060005b82811015610aa857610a7830858584818110610a2c57610a2c6151a6565b9050602002810190610a3e91906151d5565b8080601f01602080910402602001604051908101604052809392919081815260200183838082843760009201919091525061174d92505050565b828281518110610a8a57610a8a6151a6565b60200260200101819052508080610aa090615269565b915050610a0e565b5092915050565b610ab9338361124c565b610b45576040517f08c379a000000000000000000000000000000000000000000000000000000000815260206004820152602d60248201527f4552433732313a2063616c6c6572206973206e6f7420746f6b656e206f776e6560448201527f72206f7220617070726f76656400000000000000000000000000000000000000606482015260840161068c565b610b518484848461188c565b50505050565b610b5f614653565b610b6a84848461192f565b90505b9392505050565b600054610100900460ff1615808015610b945750600054600160ff909116105b80610bae5750303b158015610bae575060005460ff166001145b610c3a576040517f08c379a000000000000000000000000000000000000000000000000000000000815260206004820152602e60248201527f496e697469616c697a61626c653a20636f6e747261637420697320616c72656160448201527f647920696e697469616c697a6564000000000000000000000000000000000000606482015260840161068c565b600080547fffffffffffffffffffffffffffffffffffffffffffffffffffffffffffffff001660011790558015610c9857600080547fffffffffffffffffffffffffffffffffffffffffffffffffffffffffffff00ff166101001790555b7fa80ba18d50befd584ddb863bdbbbe2e1afd717264df34012c5d5c0581062dba23383604051610cc992919061557c565b60405180910390a1610cd9611aef565b610d62610ce683806151d5565b8080601f016020809104026020016040519081016040528093929190818152602001838380828437600092019190915250610d289250505060208501856151d5565b8080601f016020809104026020016040519081016040528093929190818152602001838380828437600092019190915250611b9092505050565b6040518060600160405280838060400190610d7d91906156be565b610d8e9060408101906020016149f7565b73ffffffffffffffffffffffffffffffffffffffff168152602001610db660408501856156be565b610dc79060608101906040016149f7565b73ffffffffffffffffffffffffffffffffffffffff168152602001610def60408501856156be565b610dfd9060208101906149f7565b73ffffffffffffffffffffffffffffffffffffffff16631ed061d9610e2560408701876156be565b610e339060608101906156fc565b610e3d6001611c31565b6040518363ffffffff1660e01b8152600401610e5a929190615760565b6020604051808303816000875af1158015610e79573d6000803e3d6000fd5b505050506040513d601f19601f82011682018060405250810190610e9d9190615785565b73ffffffffffffffffffffffffffffffffffffffff908116909152815161019280547fffffffffffffffffffffffff000000000000000000000000000000000000000090811692841692909217905560208301516101938054831691841691909117905560409092015161019480549093169116179055610f3e610f2460608401846157a2565b610f2d9161580a565b610f39600460026159ab565b611c63565b80156109b657600080547fffffffffffffffffffffffffffffffffffffffffffffffffffffffffffff00ff169055604051600181527f7f26b83ff96e1f2b6a682f133852f6798a09c465da95921460cefb38474024989060200160405180910390a15050565b6060610faf8261111c565b6000610fc660408051602081019091526000815290565b90506000815111610fe65760405180602001604052806000815250610b6d565b80610ff084611f58565b6040516020016110019291906159be565b6040516020818303038152906040529392505050565b61101f614653565b6000611061815b60405190808252806020026020018201604052801561105957816020015b60608152602001906001900390816110445790505b508585612016565b9050600061106f868361231c565b509695505050505050565b60007fffffffff0000000000000000000000000000000000000000000000000000000082167f80ac58cd00000000000000000000000000000000000000000000000000000000148061110d57507fffffffff0000000000000000000000000000000000000000000000000000000082167f5b5e139f00000000000000000000000000000000000000000000000000000000145b806104fa57506104fa8261243b565b6000818152610162602052604090205473ffffffffffffffffffffffffffffffffffffffff166111a8576040517f08c379a000000000000000000000000000000000000000000000000000000000815260206004820152601860248201527f4552433732313a20696e76616c696420746f6b656e2049440000000000000000604482015260640161068c565b50565b60008181526101646020526040902080547fffffffffffffffffffffffff00000000000000000000000000000000000000001673ffffffffffffffffffffffffffffffffffffffff841690811790915581906112068261083f565b73ffffffffffffffffffffffffffffffffffffffff167f8c5be1e5ebec7d5bd14f71427d1e84f3dd0314c0f7b2291e5b200ac8c7c3b92560405160405180910390a45050565b6000806112588361083f565b90508073ffffffffffffffffffffffffffffffffffffffff168473ffffffffffffffffffffffffffffffffffffffff1614806112c7575073ffffffffffffffffffffffffffffffffffffffff8082166000908152610165602090815260408083209388168352929052205460ff165b8061077b57508373ffffffffffffffffffffffffffffffffffffffff166112ed84610593565b73ffffffffffffffffffffffffffffffffffffffff1614949350505050565b8273ffffffffffffffffffffffffffffffffffffffff1661132c8261083f565b73ffffffffffffffffffffffffffffffffffffffff16146113cf576040517f08c379a000000000000000000000000000000000000000000000000000000000815260206004820152602560248201527f4552433732313a207472616e736665722066726f6d20696e636f72726563742060448201527f6f776e6572000000000000000000000000000000000000000000000000000000606482015260840161068c565b73ffffffffffffffffffffffffffffffffffffffff8216611471576040517f08c379a0000000000000000000000000000000000000000000000000000000008152602060048201526024808201527f4552433732313a207472616e7366657220746f20746865207a65726f2061646460448201527f7265737300000000000000000000000000000000000000000000000000000000606482015260840161068c565b61147e83838360016124d2565b8273ffffffffffffffffffffffffffffffffffffffff1661149e8261083f565b73ffffffffffffffffffffffffffffffffffffffff1614611541576040517f08c379a000000000000000000000000000000000000000000000000000000000815260206004820152602560248201527f4552433732313a207472616e736665722066726f6d20696e636f72726563742060448201527f6f776e6572000000000000000000000000000000000000000000000000000000606482015260840161068c565b60008181526101646020908152604080832080547fffffffffffffffffffffffff000000000000000000000000000000000000000090811690915573ffffffffffffffffffffffffffffffffffffffff878116808652610163855283862080547fffffffffffffffffffffffffffffffffffffffffffffffffffffffffffffffff0190559087168086528386208054600101905586865261016290945282852080549092168417909155905184937fddf252ad1be2c89b69c2b068fc378daa952ba7f163c4a11628f55a4df523b3ef91a46107548383836001612590565b8173ffffffffffffffffffffffffffffffffffffffff168373ffffffffffffffffffffffffffffffffffffffff16036116b4576040517f08c379a000000000000000000000000000000000000000000000000000000000815260206004820152601960248201527f4552433732313a20617070726f766520746f2063616c6c657200000000000000604482015260640161068c565b73ffffffffffffffffffffffffffffffffffffffff8381166000818152610165602090815260408083209487168084529482529182902080547fffffffffffffffffffffffffffffffffffffffffffffffffffffffffffffff001686151590811790915591519182527f17307eab39ab6107e8899845ad3d59bd9653f200f220920489ca2b5937696c31910160405180910390a3505050565b606073ffffffffffffffffffffffffffffffffffffffff83163b6117f3576040517f08c379a000000000000000000000000000000000000000000000000000000000815260206004820152602660248201527f416464726573733a2064656c65676174652063616c6c20746f206e6f6e2d636f60448201527f6e74726163740000000000000000000000000000000000000000000000000000606482015260840161068c565b6000808473ffffffffffffffffffffffffffffffffffffffff168460405161181b91906159ed565b600060405180830381855af49150503d8060008114611856576040519150601f19603f3d011682016040523d82523d6000602084013e61185b565b606091505b50915091506118838282604051806060016040528060278152602001615f5b60279139612853565b95945050505050565b61189784848461130c565b6118a38484848461286c565b610b51576040517f08c379a000000000000000000000000000000000000000000000000000000000815260206004820152603260248201527f4552433732313a207472616e7366657220746f206e6f6e20455243373231526560448201527f63656976657220696d706c656d656e7465720000000000000000000000000000606482015260840161068c565b611937614653565b61193f612a5c565b600061194a81611026565b90507f17a5c0f3785132a57703932032f6863e7920434150aa1dc940e567b440fdce1f338260405161197d929190615a47565b60405180910390a1600080611992878461231c565b9150915060005b8251518110156119f7576119ef836000015182815181106119bc576119bc6151a6565b602002602001015160000151846000015183815181106119de576119de6151a6565b602002602001015160200151612acf565b600101611999565b5060005b826020015151811015611ace57600083602001518281518110611a2057611a206151a6565b602002602001015160200151905083602001518281518110611a4457611a446151a6565b60200260200101516000015173ffffffffffffffffffffffffffffffffffffffff16611a6f8261083f565b73ffffffffffffffffffffffffffffffffffffffff1614611abc576040517f375e3a0c00000000000000000000000000000000000000000000000000000000815260040160405180910390fd5b611ac581612ae9565b506001016119fb565b50611ae28260400151886020015183612bdc565b50915050610b6d60018055565b600054610100900460ff16611b86576040517f08c379a000000000000000000000000000000000000000000000000000000000815260206004820152602b60248201527f496e697469616c697a61626c653a20636f6e7472616374206973206e6f74206960448201527f6e697469616c697a696e67000000000000000000000000000000000000000000606482015260840161068c565b611b8e612c95565b565b600054610100900460ff16611c27576040517f08c379a000000000000000000000000000000000000000000000000000000000815260206004820152602b60248201527f496e697469616c697a61626c653a20636f6e7472616374206973206e6f74206960448201527f6e697469616c697a696e67000000000000000000000000000000000000000000606482015260840161068c565b6109b68282612d2c565b604080516001808252818301909252606091600091906020808301908036833750505060208101939093525090919050565b600054610100900460ff16611cfa576040517f08c379a000000000000000000000000000000000000000000000000000000000815260206004820152602b60248201527f496e697469616c697a61626c653a20636f6e7472616374206973206e6f74206960448201527f6e697469616c697a696e67000000000000000000000000000000000000000000606482015260840161068c565b611d02612dde565b611d0a612dde565b611d12612dde565b6004811015611d7d576040517f08c379a000000000000000000000000000000000000000000000000000000000815260206004820152601560248201527f424144204d494e20535441434b53204c454e4754480000000000000000000000604482015260640161068c565b60005b8251811015610754576000838281518110611d9d57611d9d6151a6565b60200260200101516000015173ffffffffffffffffffffffffffffffffffffffff16631ed061d9858481518110611dd657611dd66151a6565b602002602001015160600151611deb86611c31565b6040518363ffffffff1660e01b8152600401611e08929190615a76565b6020604051808303816000875af1158015611e27573d6000803e3d6000fd5b505050506040513d601f19601f82011682018060405250810190611e4b9190615785565b905060006040518060600160405280868581518110611e6c57611e6c6151a6565b60200260200101516020015173ffffffffffffffffffffffffffffffffffffffff168152602001868581518110611ea557611ea56151a6565b60200260200101516040015173ffffffffffffffffffffffffffffffffffffffff1681526020018373ffffffffffffffffffffffffffffffffffffffff168152509050600161015f6000611ef884612e75565b8152602001908152602001600020819055507fed510090abe2a95b97a621e3d2c947ea3c26eced1c87470474d17e353dcc53383382604051611f3b929190615ae1565b60405180910390a150508080611f5090615269565b915050611d80565b60606000611f6583612ea5565b600101905060008167ffffffffffffffff811115611f8557611f856147cf565b6040519080825280601f01601f191660200182016040528015611faf576020820181803683370190505b5090508181016020015b7fffffffffffffffffffffffffffffffffffffffffffffffffffffffffffffffff017f3031323334353637383961626364656600000000000000000000000000000000600a86061a8153600a8504945084611fb957509392505050565b60606000825167ffffffffffffffff811115612034576120346147cf565b60405190808252806020026020018201604052801561205d578160200160208202803683370190505b509050600080845111612071576000612077565b83516001015b865101600201905060008167ffffffffffffffff81111561209a5761209a6147cf565b6040519080825280602002602001820160405280156120cd57816020015b60608152602001906001900390816120b85790505b50905060006120da612f87565b8282815181106120ec576120ec6151a6565b602002602001018190525060005b885181101561214a57818060010192505088818151811061211d5761211d6151a6565b6020026020010151838381518110612137576121376151a6565b60209081029190910101526001016120fa565b50808060010191505086828281518110612166576121666151a6565b602090810291909101015285511561106f57808060010191505083828281518110612193576121936151a6565b602002602001018190525060005b86518110156123105761223a8782815181106121bf576121bf6151a6565b6020026020010151600001516122178984815181106121e0576121e06151a6565b6020026020010151604001516040516020016121fc9190615b3a565b60405160208183030381529060405280519060200120612f98565b898481518110612229576122296151a6565b602002602001015160200151612fd3565b612273576040517f52bf98480000000000000000000000000000000000000000000000000000000081526004810182905260240161068c565b868181518110612285576122856151a6565b60200260200101516000015173ffffffffffffffffffffffffffffffffffffffff168582815181106122b9576122b96151a6565b60200260200101818152505081806001019250508681815181106122df576122df6151a6565b6020026020010151604001518383815181106122fd576122fd6151a6565b60209081029190910101526001016121a1565b50509695505050505050565b612324614653565b60608061232f614653565b600080600061233e89896131a0565b60408051808201909152601981527f5241494e5f464c4f575f4552433732315f53454e54494e454c00000000000000602090910152919450925090506123a782847ffe90d819490b07580877ce7c3005704048c62af96c6745886d7e356e0b63924a60026132df565b80865260408051808201909152601981527f5241494e5f464c4f575f4552433732315f53454e54494e454c000000000000006020909101529550915061241082847ffe90d819490b07580877ce7c3005704048c62af96c6745886d7e356e0b63924a60026132df565b60208601819052955091506124258383613390565b60408501529295509193505050505b9250929050565b60007fffffffff0000000000000000000000000000000000000000000000000000000082167f4e2312e00000000000000000000000000000000000000000000000000000000014806104fa57507f01ffc9a7000000000000000000000000000000000000000000000000000000007fffffffff000000000000000000000000000000000000000000000000000000008316146104fa565b6001811115610b515773ffffffffffffffffffffffffffffffffffffffff8416156125335773ffffffffffffffffffffffffffffffffffffffff8416600090815261016360205260408120805483929061252d908490615b70565b90915550505b73ffffffffffffffffffffffffffffffffffffffff831615610b515773ffffffffffffffffffffffffffffffffffffffff831660009081526101636020526040812080548392906125859084906159ab565b909155505050505050565b73ffffffffffffffffffffffffffffffffffffffff841615806125c7575073ffffffffffffffffffffffffffffffffffffffff8316155b610b5157604080516060810182526101925473ffffffffffffffffffffffffffffffffffffffff90811682526101935481166020830152610194548116928201929092529060009061262090878116908716868661359c565b9050600080836000015173ffffffffffffffffffffffffffffffffffffffff16636715f8258560200151600061265988604001516135df565b604080516000808252602082019092526126f291612687565b60608152602001906001900390816126725790505b50604080516000808252602082019092528b916126ec565b6126d96040518060600160405280600073ffffffffffffffffffffffffffffffffffffffff16815260200160608152602001606081525090565b81526020019060019003908161269f5790505b50612016565b6040518563ffffffff1660e01b81526004016127119493929190615b83565b600060405180830381865afa15801561272e573d6000803e3d6000fd5b505050506040513d6000823e601f3d9081017fffffffffffffffffffffffffffffffffffffffffffffffffffffffffffffffe01682016040526127749190810190615c23565b915091508160018351038151811061278e5761278e6151a6565b60200260200101516000036127cf576040517f2f35253100000000000000000000000000000000000000000000000000000000815260040160405180910390fd5b80511561284957836020015173ffffffffffffffffffffffffffffffffffffffff1663946aadc66000836040518363ffffffff1660e01b8152600401612816929190615c87565b600060405180830381600087803b15801561283057600080fd5b505af1158015612844573d6000803e3d6000fd5b505050505b5050505050505050565b60608315612862575081610b6d565b610b6d8383613608565b600073ffffffffffffffffffffffffffffffffffffffff84163b15612a54576040517f150b7a0200000000000000000000000000000000000000000000000000000000815273ffffffffffffffffffffffffffffffffffffffff85169063150b7a02906128e3903390899088908890600401615ca0565b6020604051808303816000875af192505050801561293c575060408051601f3d9081017fffffffffffffffffffffffffffffffffffffffffffffffffffffffffffffffe016820190925261293991810190615cdf565b60015b612a09573d80801561296a576040519150601f19603f3d011682016040523d82523d6000602084013e61296f565b606091505b508051600003612a01576040517f08c379a000000000000000000000000000000000000000000000000000000000815260206004820152603260248201527f4552433732313a207472616e7366657220746f206e6f6e20455243373231526560448201527f63656976657220696d706c656d656e7465720000000000000000000000000000606482015260840161068c565b805181602001fd5b7fffffffff00000000000000000000000000000000000000000000000000000000167f150b7a020000000000000000000000000000000000000000000000000000000014905061077b565b50600161077b565b600260015403612ac8576040517f08c379a000000000000000000000000000000000000000000000000000000000815260206004820152601f60248201527f5265656e7472616e637947756172643a207265656e7472616e742063616c6c00604482015260640161068c565b6002600155565b6109b682826040518060200160405280600081525061364c565b6000612af48261083f565b9050612b048160008460016124d2565b612b0d8261083f565b60008381526101646020908152604080832080547fffffffffffffffffffffffff000000000000000000000000000000000000000090811690915573ffffffffffffffffffffffffffffffffffffffff8516808552610163845282852080547fffffffffffffffffffffffffffffffffffffffffffffffffffffffffffffffff019055878552610162909352818420805490911690555192935084927fddf252ad1be2c89b69c2b068fc378daa952ba7f163c4a11628f55a4df523b3ef908390a46109b6816000846001612590565b805115612c6b576040517f946aadc600000000000000000000000000000000000000000000000000000000815273ffffffffffffffffffffffffffffffffffffffff83169063946aadc690612c38906000908590600401615c87565b600060405180830381600087803b158015612c5257600080fd5b505af1158015612c66573d6000803e3d6000fd5b505050505b612c74836136ef565b612c7d836138bd565b612c8683613a1b565b61075483613bac565b60018055565b600054610100900460ff16612c8f576040517f08c379a000000000000000000000000000000000000000000000000000000000815260206004820152602b60248201527f496e697469616c697a61626c653a20636f6e7472616374206973206e6f74206960448201527f6e697469616c697a696e67000000000000000000000000000000000000000000606482015260840161068c565b600054610100900460ff16612dc3576040517f08c379a000000000000000000000000000000000000000000000000000000000815260206004820152602b60248201527f496e697469616c697a61626c653a20636f6e7472616374206973206e6f74206960448201527f6e697469616c697a696e67000000000000000000000000000000000000000000606482015260840161068c565b610160612dd08382615d4a565b506101616107548282615d4a565b600054610100900460ff16611b8e576040517f08c379a000000000000000000000000000000000000000000000000000000000815260206004820152602b60248201527f496e697469616c697a61626c653a20636f6e7472616374206973206e6f74206960448201527f6e697469616c697a696e67000000000000000000000000000000000000000000606482015260840161068c565b600081604051602001612e889190615e64565b604051602081830303815290604052805190602001209050919050565b6000807a184f03e93ff9f4daa797ed6e38ed64bf6a1f0100000000000000008310612eee577a184f03e93ff9f4daa797ed6e38ed64bf6a1f010000000000000000830492506040015b6d04ee2d6d415b85acef81000000008310612f1a576d04ee2d6d415b85acef8100000000830492506020015b662386f26fc100008310612f3857662386f26fc10000830492506010015b6305f5e1008310612f50576305f5e100830492506008015b6127108310612f6457612710830492506004015b60648310612f76576064830492506002015b600a83106104fa5760010192915050565b6060612f933330613d5c565b905090565b6040517f19457468657265756d205369676e6564204d6573736167653a0a3332000000006020820152603c8101829052600090605c01612e88565b6000806000612fe28585613d90565b90925090506000816004811115612ffb57612ffb615ea1565b14801561303357508573ffffffffffffffffffffffffffffffffffffffff168273ffffffffffffffffffffffffffffffffffffffff16145b1561304357600192505050610b6d565b6000808773ffffffffffffffffffffffffffffffffffffffff16631626ba7e60e01b8888604051602401613078929190615ed0565b604080517fffffffffffffffffffffffffffffffffffffffffffffffffffffffffffffffe08184030181529181526020820180517bffffffffffffffffffffffffffffffffffffffffffffffffffffffff167fffffffff0000000000000000000000000000000000000000000000000000000090941693909317909252905161310191906159ed565b600060405180830381855afa9150503d806000811461313c576040519150601f19603f3d011682016040523d82523d6000602084013e613141565b606091505b5091509150818015613154575080516020145b8015613194575080517f1626ba7e00000000000000000000000000000000000000000000000000000000906131929083016020908101908401615ee9565b145b98975050505050505050565b60008060608460006131b182612e75565b600081815261015f6020526040812054919250036131fe576040517f7a80ba4d0000000000000000000000000000000000000000000000000000000081526004810182905260240161068c565b600080886000015173ffffffffffffffffffffffffffffffffffffffff16636715f8258a6020015160006132358d60400151613dd2565b8c6040518563ffffffff1660e01b81526004016132559493929190615b83565b600060405180830381865afa158015613272573d6000803e3d6000fd5b505050506040513d6000823e601f3d9081017fffffffffffffffffffffffffffffffffffffffffffffffffffffffffffffffe01682016040526132b89190810190615c23565b915091506132c68260200190565b8251909a60209182029093010198509650945050505050565b6000606081806132f188888888613dfc565b9150915060008582516133049190615f02565b905060008167ffffffffffffffff811115613321576133216147cf565b60405190808252806020026020018201604052801561334a578160200160208202803683370190505b509050602081016020830281016020850160208a025b8284101561337a5781845260209093019290810190613360565b5095975091955050505050505b94509492505050565b6133bb6040518060800160405280606081526020016060815260200160608152602001606081525090565b6133e66040518060800160405280606081526020016060815260200160608152602001606081525090565b60408051808201909152601281527f5241494e5f464c4f575f53454e54494e454c0000000000000000000000000000602090910152606061344a84867ffea74d0c9bf4a3c28f0dd0674db22a3d7f8bf259c56af19f4ac1e735b156974f60036132df565b80845260408051808201909152601281527f5241494e5f464c4f575f53454e54494e454c000000000000000000000000000060209091015290945090506134b484867ffea74d0c9bf4a3c28f0dd0674db22a3d7f8bf259c56af19f4ac1e735b156974f60046132df565b602084810182905260408051808201909152601281527f5241494e5f464c4f575f53454e54494e454c0000000000000000000000000000910152909450905061352084867ffea74d0c9bf4a3c28f0dd0674db22a3d7f8bf259c56af19f4ac1e735b156974f60046132df565b60408481018290528051808201909152601281527f5241494e5f464c4f575f53454e54494e454c0000000000000000000000000000602090910152909450905061358d84867ffea74d0c9bf4a3c28f0dd0674db22a3d7f8bf259c56af19f4ac1e735b156974f60056132df565b60608401525090949350505050565b60408051600480825260a0820190925260609160009190602082016080803683375050506020810196909652505060408401929092526060830152608082015290565b6000602082901b77ffffffffffffffffffffffffffffffffffffffff00000000166001176104fa565b8151156136185781518083602001fd5b806040517f08c379a000000000000000000000000000000000000000000000000000000000815260040161068c9190614755565b6136568383613e5c565b613663600084848461286c565b610754576040517f08c379a000000000000000000000000000000000000000000000000000000000815260206004820152603260248201527f4552433732313a207472616e7366657220746f206e6f6e20455243373231526560448201527f63656976657220696d706c656d656e7465720000000000000000000000000000606482015260840161068c565b60408051606081018252600080825260208201819052918101829052819060005b84515181101561389e57845180518290811061372e5761372e6151a6565b602002602001015191503373ffffffffffffffffffffffffffffffffffffffff16826000015173ffffffffffffffffffffffffffffffffffffffff16036137d057602082015173ffffffffffffffffffffffffffffffffffffffff1630146137c2576040517f56c7455200000000000000000000000000000000000000000000000000000000815260040160405180910390fd5b816040015184019350613896565b815173ffffffffffffffffffffffffffffffffffffffff163014613820576040517f56c7455200000000000000000000000000000000000000000000000000000000815260040160405180910390fd5b3373ffffffffffffffffffffffffffffffffffffffff16826020015173ffffffffffffffffffffffffffffffffffffffff160361386557816040015183019250613896565b6138968260400151836020015173ffffffffffffffffffffffffffffffffffffffff1661409d90919063ffffffff16565b600101613710565b5082156138ad57823403820191505b8115610b5157610b51338361409d565b6040805160808101825260008082526020820181905291810182905260608101829052905b8260200151518110156107545782602001518181518110613905576139056151a6565b602002602001015191503373ffffffffffffffffffffffffffffffffffffffff16826020015173ffffffffffffffffffffffffffffffffffffffff160361397c576040820151606083015183516139779273ffffffffffffffffffffffffffffffffffffffff909116913391906141f7565b613a13565b3073ffffffffffffffffffffffffffffffffffffffff16826020015173ffffffffffffffffffffffffffffffffffffffff16036139e1576040820151606083015183516139779273ffffffffffffffffffffffffffffffffffffffff909116916142d3565b6040517fa521c60f00000000000000000000000000000000000000000000000000000000815260040160405180910390fd5b6001016138e2565b6040805160808101825260008082526020820181905291810182905260608101829052905b8260400151518110156107545782604001518181518110613a6357613a636151a6565b602002602001015191503373ffffffffffffffffffffffffffffffffffffffff16826020015173ffffffffffffffffffffffffffffffffffffffff1614158015613ac75750602082015173ffffffffffffffffffffffffffffffffffffffff163014155b15613afe576040517f3a5befc500000000000000000000000000000000000000000000000000000000815260040160405180910390fd5b81516020830151604080850151606086015191517f42842e0e00000000000000000000000000000000000000000000000000000000815273ffffffffffffffffffffffffffffffffffffffff9384166004820152908316602482015260448101919091529116906342842e0e90606401600060405180830381600087803b158015613b8857600080fd5b505af1158015613b9c573d6000803e3d6000fd5b505060019092019150613a409050565b6040805160a0810182526000808252602082018190529181018290526060810182905260808101829052905b8260600151518110156107545782606001518181518110613bfb57613bfb6151a6565b602002602001015191503373ffffffffffffffffffffffffffffffffffffffff16826020015173ffffffffffffffffffffffffffffffffffffffff1614158015613c5f5750602082015173ffffffffffffffffffffffffffffffffffffffff163014155b15613c96576040517fc6a91ecc00000000000000000000000000000000000000000000000000000000815260040160405180910390fd5b815160208301516040808501516060860151608087015192517ff242432a00000000000000000000000000000000000000000000000000000000815273ffffffffffffffffffffffffffffffffffffffff948516600482015291841660248301526044820152606481019190915260a06084820152600060a482015291169063f242432a9060c401600060405180830381600087803b158015613d3857600080fd5b505af1158015613d4c573d6000803e3d6000fd5b505060019092019150613bd89050565b6040805160028082526060808301845292600092919060208301908036833750505060208101949094525050604082015290565b6000808251604103613dc65760208301516040840151606085015160001a613dba87828585614329565b94509450505050612434565b50600090506002612434565b6000602082901b77ffffffffffffffffffffffffffffffffffffffff000000001661ffff176104fa565b600060608085613e0b57600080fd5b6000806020860260208a039950602089035b808b1115613e43578a518903613e35578a9350613e43565b998190039991870191613e1d565b505081613e4f57600080fd5b8152969795505050505050565b73ffffffffffffffffffffffffffffffffffffffff8216613ed9576040517f08c379a000000000000000000000000000000000000000000000000000000000815260206004820181905260248201527f4552433732313a206d696e7420746f20746865207a65726f2061646472657373604482015260640161068c565b6000818152610162602052604090205473ffffffffffffffffffffffffffffffffffffffff1615613f66576040517f08c379a000000000000000000000000000000000000000000000000000000000815260206004820152601c60248201527f4552433732313a20746f6b656e20616c7265616479206d696e74656400000000604482015260640161068c565b613f746000838360016124d2565b6000818152610162602052604090205473ffffffffffffffffffffffffffffffffffffffff1615614001576040517f08c379a000000000000000000000000000000000000000000000000000000000815260206004820152601c60248201527f4552433732313a20746f6b656e20616c7265616479206d696e74656400000000604482015260640161068c565b73ffffffffffffffffffffffffffffffffffffffff82166000818152610163602090815260408083208054600101905584835261016290915280822080547fffffffffffffffffffffffff0000000000000000000000000000000000000000168417905551839291907fddf252ad1be2c89b69c2b068fc378daa952ba7f163c4a11628f55a4df523b3ef908290a46109b6600083836001612590565b80471015614107576040517f08c379a000000000000000000000000000000000000000000000000000000000815260206004820152601d60248201527f416464726573733a20696e73756666696369656e742062616c616e6365000000604482015260640161068c565b60008273ffffffffffffffffffffffffffffffffffffffff168260405160006040518083038185875af1925050503d8060008114614161576040519150601f19603f3d011682016040523d82523d6000602084013e614166565b606091505b5050905080610754576040517f08c379a000000000000000000000000000000000000000000000000000000000815260206004820152603a60248201527f416464726573733a20756e61626c6520746f2073656e642076616c75652c207260448201527f6563697069656e74206d61792068617665207265766572746564000000000000606482015260840161068c565b60405173ffffffffffffffffffffffffffffffffffffffff80851660248301528316604482015260648101829052610b519085907f23b872dd00000000000000000000000000000000000000000000000000000000906084015b604080517fffffffffffffffffffffffffffffffffffffffffffffffffffffffffffffffe08184030181529190526020810180517bffffffffffffffffffffffffffffffffffffffffffffffffffffffff167fffffffff0000000000000000000000000000000000000000000000000000000090931692909217909152614415565b60405173ffffffffffffffffffffffffffffffffffffffff83166024820152604481018290526107549084907fa9059cbb0000000000000000000000000000000000000000000000000000000090606401614251565b6000807f7fffffffffffffffffffffffffffffff5d576e7357a4501ddfe92f46681b20a08311156143605750600090506003613387565b6040805160008082526020820180845289905260ff881692820192909252606081018690526080810185905260019060a0016020604051602081039080840390855afa1580156143b4573d6000803e3d6000fd5b50506040517fffffffffffffffffffffffffffffffffffffffffffffffffffffffffffffffe0015191505073ffffffffffffffffffffffffffffffffffffffff811661440857600060019250925050613387565b9660009650945050505050565b6000614477826040518060400160405280602081526020017f5361666545524332303a206c6f772d6c6576656c2063616c6c206661696c65648152508573ffffffffffffffffffffffffffffffffffffffff166145219092919063ffffffff16565b80519091501561075457808060200190518101906144959190615f3d565b610754576040517f08c379a000000000000000000000000000000000000000000000000000000000815260206004820152602a60248201527f5361666545524332303a204552433230206f7065726174696f6e20646964206e60448201527f6f74207375636365656400000000000000000000000000000000000000000000606482015260840161068c565b6060610b6a8484600085856000808673ffffffffffffffffffffffffffffffffffffffff16858760405161455591906159ed565b60006040518083038185875af1925050503d8060008114614592576040519150601f19603f3d011682016040523d82523d6000602084013e614597565b606091505b50915091506145a8878383876145b3565b979650505050505050565b606083156146495782516000036146425773ffffffffffffffffffffffffffffffffffffffff85163b614642576040517f08c379a000000000000000000000000000000000000000000000000000000000815260206004820152601d60248201527f416464726573733a2063616c6c20746f206e6f6e2d636f6e7472616374000000604482015260640161068c565b508161077b565b61077b8383613608565b604051806060016040528060608152602001606081526020016146976040518060800160405280606081526020016060815260200160608152602001606081525090565b905290565b7fffffffff00000000000000000000000000000000000000000000000000000000811681146111a857600080fd5b6000602082840312156146dc57600080fd5b8135610b6d8161469c565b60005b838110156147025781810151838201526020016146ea565b50506000910152565b600081518084526147238160208601602086016146e7565b601f017fffffffffffffffffffffffffffffffffffffffffffffffffffffffffffffffe0169290920160200192915050565b602081526000610b6d602083018461470b565b60006020828403121561477a57600080fd5b5035919050565b73ffffffffffffffffffffffffffffffffffffffff811681146111a857600080fd5b600080604083850312156147b657600080fd5b82356147c181614781565b946020939093013593505050565b7f4e487b7100000000000000000000000000000000000000000000000000000000600052604160045260246000fd5b6040516060810167ffffffffffffffff81118282101715614821576148216147cf565b60405290565b6040516080810167ffffffffffffffff81118282101715614821576148216147cf565b6040805190810167ffffffffffffffff81118282101715614821576148216147cf565b604051601f82017fffffffffffffffffffffffffffffffffffffffffffffffffffffffffffffffe016810167ffffffffffffffff811182821017156148b4576148b46147cf565b604052919050565b600082601f8301126148cd57600080fd5b813567ffffffffffffffff8111156148e7576148e76147cf565b61491860207fffffffffffffffffffffffffffffffffffffffffffffffffffffffffffffffe0601f8401160161486d565b81815284602083860101111561492d57600080fd5b816020850160208301376000918101602001919091529392505050565b6000806000806080858703121561496057600080fd5b843561496b81614781565b9350602085013561497b81614781565b925060408501359150606085013567ffffffffffffffff81111561499e57600080fd5b6149aa878288016148bc565b91505092959194509250565b6000806000606084860312156149cb57600080fd5b83356149d681614781565b925060208401356149e681614781565b929592945050506040919091013590565b600060208284031215614a0957600080fd5b8135610b6d81614781565b80151581146111a857600080fd5b60008060408385031215614a3557600080fd5b8235614a4081614781565b91506020830135614a5081614a14565b809150509250929050565b60008060208385031215614a6e57600080fd5b823567ffffffffffffffff80821115614a8657600080fd5b818501915085601f830112614a9a57600080fd5b813581811115614aa957600080fd5b8660208260051b8501011115614abe57600080fd5b60209290920196919550909350505050565b600081518084526020808501808196508360051b8101915082860160005b85811015614b18578284038952614b0684835161470b565b98850198935090840190600101614aee565b5091979650505050505050565b602081526000610b6d6020830184614ad0565b600067ffffffffffffffff821115614b5257614b526147cf565b5060051b60200190565b600082601f830112614b6d57600080fd5b81356020614b82614b7d83614b38565b61486d565b82815260059290921b84018101918181019086841115614ba157600080fd5b8286015b8481101561106f5780358352918301918301614ba5565b600080600080600060a08688031215614bd457600080fd5b8535614bdf81614781565b94506020860135614bef81614781565b9350604086013567ffffffffffffffff80821115614c0c57600080fd5b614c1889838a01614b5c565b94506060880135915080821115614c2e57600080fd5b614c3a89838a01614b5c565b93506080880135915080821115614c5057600080fd5b50614c5d888289016148bc565b9150509295509295909350565b600080600083850360a0811215614c8057600080fd5b6060811215614c8e57600080fd5b50614c976147fe565b8435614ca281614781565b8152602085810135614cb381614781565b828201526040860135614cc581614781565b604083015290935060608501359067ffffffffffffffff80831115614ce957600080fd5b614cf588848901614b5c565b94506080870135925080831115614d0b57600080fd5b828701925087601f840112614d1f57600080fd5b8235614d2d614b7d82614b38565b81815260059190911b8401830190838101908a831115614d4c57600080fd5b8486015b83811015614e0f57803585811115614d685760008081fd5b87016060818e037fffffffffffffffffffffffffffffffffffffffffffffffffffffffffffffffe0011215614d9d5760008081fd5b614da56147fe565b87820135614db281614781565b8152604082013587811115614dc75760008081fd5b614dd58f8a838601016148bc565b8983015250606082013587811115614ded5760008081fd5b614dfb8f8a83860101614b5c565b604083015250845250918501918501614d50565b508096505050505050509250925092565b600081518084526020808501945080840160005b83811015614e71578151805173ffffffffffffffffffffffffffffffffffffffff1688528301518388015260409096019590820190600101614e34565b509495945050505050565b600081518084526020808501945080840160005b83811015614e71578151805173ffffffffffffffffffffffffffffffffffffffff9081168952848201518116858a0152604080830151909116908901526060908101519088015260809096019590820190600101614e90565b600081518084526020808501945080840160005b83811015614e71578151805173ffffffffffffffffffffffffffffffffffffffff9081168952848201518116858a015260408083015190911690890152606080820151908901526080908101519088015260a09096019590820190600101614efd565b60006020808352835160608083860152614f7d6080860183614e20565b9150828601517fffffffffffffffffffffffffffffffffffffffffffffffffffffffffffffffe06040818886030181890152614fb98584614e20565b89820151898203909301858a01528251608080835281519083018190529196509293509186019160009060a08701905b80831015615033578451805173ffffffffffffffffffffffffffffffffffffffff90811684528a820151168a84015284015184830152938801936001929092019190860190614fe9565b508785015193508681038888015261504b8185614e7c565b9750505080830151915084860381860152506150678582614e7c565b945050818101519050828403828401526145a88482614ee9565b60006020828403121561509357600080fd5b813567ffffffffffffffff8111156150aa57600080fd5b820160808185031215610b6d57600080fd5b600080604083850312156150cf57600080fd5b82356150da81614781565b91506020830135614a5081614781565b600080600080600060a0868803121561510257600080fd5b853561510d81614781565b9450602086013561511d81614781565b93506040860135925060608601359150608086013567ffffffffffffffff81111561514757600080fd5b614c5d888289016148bc565b600181811c9082168061516757607f821691505b6020821081036151a0577f4e487b7100000000000000000000000000000000000000000000000000000000600052602260045260246000fd5b50919050565b7f4e487b7100000000000000000000000000000000000000000000000000000000600052603260045260246000fd5b60008083357fffffffffffffffffffffffffffffffffffffffffffffffffffffffffffffffe184360301811261520a57600080fd5b83018035915067ffffffffffffffff82111561522557600080fd5b60200191503681900382131561243457600080fd5b7f4e487b7100000000000000000000000000000000000000000000000000000000600052601160045260246000fd5b60007fffffffffffffffffffffffffffffffffffffffffffffffffffffffffffffffff820361529a5761529a61523a565b5060010190565b60008083357fffffffffffffffffffffffffffffffffffffffffffffffffffffffffffffffe18436030181126152d657600080fd5b830160208101925035905067ffffffffffffffff8111156152f657600080fd5b80360382131561243457600080fd5b8183528181602085013750600060208284010152600060207fffffffffffffffffffffffffffffffffffffffffffffffffffffffffffffffe0601f840116840101905092915050565b600082357fffffffffffffffffffffffffffffffffffffffffffffffffffffffffffffff8183360301811261538257600080fd5b90910192915050565b60008083357fffffffffffffffffffffffffffffffffffffffffffffffffffffffffffffffe18436030181126153c057600080fd5b830160208101925035905067ffffffffffffffff8111156153e057600080fd5b8060051b360382131561243457600080fd5b600060408301615402838461538b565b604086528281845260608701905060608260051b88010193508260005b8381101561547a577fffffffffffffffffffffffffffffffffffffffffffffffffffffffffffffffa089870301835261545882866152a1565b615463888284615305565b97505050602092830192919091019060010161541f565b505050505061548c602084018461538b565b85830360208701528083527f07ffffffffffffffffffffffffffffffffffffffffffffffffffffffffffffff8111156154c457600080fd5b60051b8082602085013791909101602001949350505050565b600081356154ea81614781565b73ffffffffffffffffffffffffffffffffffffffff908116845260208301359061551382614781565b908116602085015260408301359061552a82614781565b1660408401526060820135368390037fffffffffffffffffffffffffffffffffffffffffffffffffffffffffffffffc101811261556657600080fd5b6080606085015261077b608085018483016153f2565b73ffffffffffffffffffffffffffffffffffffffff83168152600060206040818401526155a984856152a1565b608060408601526155be60c086018284615305565b9150506155cd828601866152a1565b7fffffffffffffffffffffffffffffffffffffffffffffffffffffffffffffffc080878503016060880152615603848385615305565b9350615612604089018961534e565b92508087850301608088015261562884846154dd565b9350615637606089018961538b565b88860390920160a08901528185529092509050838301600583901b840185018260005b858110156156ae577fffffffffffffffffffffffffffffffffffffffffffffffffffffffffffffffe087840301845261569c83615697848861534e565b6154dd565b9388019392509087019060010161565a565b50909a9950505050505050505050565b600082357fffffffffffffffffffffffffffffffffffffffffffffffffffffffffffffff818336030181126156f257600080fd5b9190910192915050565b600082357fffffffffffffffffffffffffffffffffffffffffffffffffffffffffffffffc18336030181126156f257600080fd5b600081518084526020808501945080840160005b83811015614e7157815187529582019590820190600101615744565b60408152600061577360408301856153f2565b82810360208401526118838185615730565b60006020828403121561579757600080fd5b8151610b6d81614781565b60008083357fffffffffffffffffffffffffffffffffffffffffffffffffffffffffffffffe18436030181126157d757600080fd5b83018035915067ffffffffffffffff8211156157f257600080fd5b6020019150600581901b360382131561243457600080fd5b6000615818614b7d84614b38565b80848252602080830192508560051b85013681111561583657600080fd5b855b8181101561599f57803567ffffffffffffffff808211156158595760008081fd5b81890191506080823603121561586f5760008081fd5b615877614827565b823561588281614781565b81528286013561589181614781565b818701526040838101356158a481614781565b82820152606084810135848111156158bc5760008081fd5b8086019550508185360312156158d25760008081fd5b6158da61484a565b91508435848111156158ec5760008081fd5b850136601f8201126158fe5760008081fd5b803561590c614b7d82614b38565b81815260059190911b82018a01908a8101903683111561592c5760008081fd5b8b84015b83811015615964578035898111156159485760008081fd5b615956368f838901016148bc565b845250918c01918c01615930565b508552505050848801358481111561597c5760008081fd5b61598836828801614b5c565b838a01525082015287525050938201938201615838565b50919695505050505050565b808201808211156104fa576104fa61523a565b600083516159d08184602088016146e7565b8351908301906159e48183602088016146e7565b01949350505050565b600082516156f28184602087016146e7565b600081518084526020808501808196508360051b8101915082860160005b85811015614b18578284038952615a35848351615730565b98850198935090840190600101615a1d565b73ffffffffffffffffffffffffffffffffffffffff83168152604060208201526000610b6a60408301846159ff565b6040815260008351604080840152615a916080840182614ad0565b905060208501517fffffffffffffffffffffffffffffffffffffffffffffffffffffffffffffffc0848303016060850152615acc8282615730565b91505082810360208401526118838185615730565b73ffffffffffffffffffffffffffffffffffffffff8316815260808101610b6d6020830184805173ffffffffffffffffffffffffffffffffffffffff908116835260208083015182169084015260409182015116910152565b815160009082906020808601845b83811015615b6457815185529382019390820190600101615b48565b50929695505050505050565b818103818111156104fa576104fa61523a565b73ffffffffffffffffffffffffffffffffffffffff85168152836020820152826040820152608060608201526000615bbe60808301846159ff565b9695505050505050565b600082601f830112615bd957600080fd5b81516020615be9614b7d83614b38565b82815260059290921b84018101918181019086841115615c0857600080fd5b8286015b8481101561106f5780518352918301918301615c0c565b60008060408385031215615c3657600080fd5b825167ffffffffffffffff80821115615c4e57600080fd5b615c5a86838701615bc8565b93506020850151915080821115615c7057600080fd5b50615c7d85828601615bc8565b9150509250929050565b828152604060208201526000610b6a6040830184615730565b600073ffffffffffffffffffffffffffffffffffffffff808716835280861660208401525083604083015260806060830152615bbe608083018461470b565b600060208284031215615cf157600080fd5b8151610b6d8161469c565b601f82111561075457600081815260208120601f850160051c81016020861015615d235750805b601f850160051c820191505b81811015615d4257828155600101615d2f565b505050505050565b815167ffffffffffffffff811115615d6457615d646147cf565b615d7881615d728454615153565b84615cfc565b602080601f831160018114615dcb5760008415615d955750858301515b7fffffffffffffffffffffffffffffffffffffffffffffffffffffffffffffffff600386901b1c1916600185901b178555615d42565b6000858152602081207fffffffffffffffffffffffffffffffffffffffffffffffffffffffffffffffe08616915b82811015615e1857888601518255948401946001909101908401615df9565b5085821015615e5457878501517fffffffffffffffffffffffffffffffffffffffffffffffffffffffffffffffff600388901b60f8161c191681555b5050505050600190811b01905550565b606081016104fa8284805173ffffffffffffffffffffffffffffffffffffffff908116835260208083015182169084015260409182015116910152565b7f4e487b7100000000000000000000000000000000000000000000000000000000600052602160045260246000fd5b828152604060208201526000610b6a604083018461470b565b600060208284031215615efb57600080fd5b5051919050565b600082615f38577f4e487b7100000000000000000000000000000000000000000000000000000000600052601260045260246000fd5b500490565b600060208284031215615f4f57600080fd5b8151610b6d81614a1456fe416464726573733a206c6f772d6c6576656c2064656c65676174652063616c6c206661696c6564a264697066735822122076eb0803a5e214a84d08bd750e68d24b7bec3b1956c389291e5f32ff8ccb6b3e64736f6c63430008110033",
  "linkReferences": {},
  "deployedLinkReferences": {}
}