{
  "_format": "hh-sol-artifact-1",
  "contractName": "SaleFactory",
  "sourceName": "contracts/sale/SaleFactory.sol",
  "abi": [
    {
      "inputs": [
        {
          "components": [
            {
              "internalType": "uint256",
              "name": "maximumSaleTimeout",
              "type": "uint256"
            },
            {
              "internalType": "contract RedeemableERC20Factory",
              "name": "redeemableERC20Factory",
              "type": "address"
            }
          ],
          "internalType": "struct SaleConstructorConfig",
          "name": "config_",
          "type": "tuple"
        }
      ],
      "stateMutability": "nonpayable",
      "type": "constructor"
    },
    {
      "inputs": [
        {
          "internalType": "address",
          "name": "child",
          "type": "address"
        }
      ],
      "name": "DuplicateChild",
      "type": "error"
    },
    {
      "anonymous": false,
      "inputs": [
        {
          "indexed": false,
          "internalType": "address",
          "name": "sender",
          "type": "address"
        },
        {
          "indexed": false,
          "internalType": "address",
          "name": "implementation",
          "type": "address"
        }
      ],
      "name": "Implementation",
      "type": "event"
    },
    {
      "anonymous": false,
      "inputs": [
        {
          "indexed": false,
          "internalType": "uint8",
          "name": "version",
          "type": "uint8"
        }
      ],
      "name": "Initialized",
      "type": "event"
    },
    {
      "anonymous": false,
      "inputs": [
        {
          "indexed": false,
          "internalType": "address",
          "name": "sender",
          "type": "address"
        },
        {
          "indexed": false,
          "internalType": "address",
          "name": "child",
          "type": "address"
        }
      ],
      "name": "NewChild",
      "type": "event"
    },
    {
      "inputs": [
        {
          "internalType": "bytes",
          "name": "data_",
          "type": "bytes"
        }
      ],
      "name": "createChild",
      "outputs": [
        {
          "internalType": "address",
          "name": "",
          "type": "address"
        }
      ],
      "stateMutability": "nonpayable",
      "type": "function"
    },
    {
      "inputs": [
        {
          "components": [
            {
              "internalType": "address",
              "name": "recipient",
              "type": "address"
            },
            {
              "internalType": "address",
              "name": "reserve",
              "type": "address"
            },
            {
              "internalType": "uint256",
              "name": "saleTimeout",
              "type": "uint256"
            },
            {
              "internalType": "uint256",
              "name": "cooldownDuration",
              "type": "uint256"
            },
            {
              "internalType": "uint256",
              "name": "minimumRaise",
              "type": "uint256"
            },
            {
              "internalType": "uint256",
              "name": "dustSize",
              "type": "uint256"
            },
            {
              "components": [
                {
                  "internalType": "contract IExpressionDeployerV1",
                  "name": "deployer",
                  "type": "address"
                },
                {
                  "internalType": "contract IInterpreterV1",
                  "name": "interpreter",
                  "type": "address"
                },
                {
                  "internalType": "contract IInterpreterStoreV1",
                  "name": "store",
                  "type": "address"
                },
                {
                  "components": [
                    {
                      "internalType": "bytes[]",
                      "name": "sources",
                      "type": "bytes[]"
                    },
                    {
                      "internalType": "uint256[]",
                      "name": "constants",
                      "type": "uint256[]"
                    }
                  ],
                  "internalType": "struct ExpressionConfig",
                  "name": "expressionConfig",
                  "type": "tuple"
                }
              ],
              "internalType": "struct EvaluableConfig",
              "name": "evaluableConfig",
              "type": "tuple"
            }
          ],
          "internalType": "struct SaleConfig",
          "name": "config_",
          "type": "tuple"
        },
        {
          "components": [
            {
              "components": [
                {
                  "internalType": "string",
                  "name": "name",
                  "type": "string"
                },
                {
                  "internalType": "string",
                  "name": "symbol",
                  "type": "string"
                },
                {
                  "internalType": "address",
                  "name": "distributor",
                  "type": "address"
                },
                {
                  "internalType": "uint256",
                  "name": "initialSupply",
                  "type": "uint256"
                }
              ],
              "internalType": "struct ERC20Config",
              "name": "erc20Config",
              "type": "tuple"
            },
            {
              "internalType": "address",
              "name": "tier",
              "type": "address"
            },
            {
              "internalType": "uint256",
              "name": "minimumTier",
              "type": "uint256"
            },
            {
              "internalType": "address",
              "name": "distributionEndForwardingAddress",
              "type": "address"
            }
          ],
          "internalType": "struct SaleRedeemableERC20Config",
          "name": "saleRedeemableERC20Config_",
          "type": "tuple"
        }
      ],
      "name": "createChildTyped",
      "outputs": [
        {
          "internalType": "contract Sale",
          "name": "",
          "type": "address"
        }
      ],
      "stateMutability": "nonpayable",
      "type": "function"
    },
    {
      "inputs": [
        {
          "internalType": "address",
          "name": "maybeChild_",
          "type": "address"
        }
      ],
      "name": "isChild",
      "outputs": [
        {
          "internalType": "bool",
          "name": "",
          "type": "bool"
        }
      ],
      "stateMutability": "view",
      "type": "function"
    }
  ],
  "bytecode": "0x60a06040523480156200001157600080fd5b5060405162006065380380620060658339810160408190526200003491620001b1565b6200003e620000e1565b6000816040516200004f90620001a3565b815181526020918201516001600160a01b031691810191909152604001604051809103906000f08015801562000089573d6000803e3d6000fd5b50604080513381526001600160a01b03831660208201529192507f7fac34ecf0b1b374cd9659e3d17db602659d53f1162b1f20142e6c02694aed70910160405180910390a16001600160a01b03166080525062000223565b600054610100900460ff16156200014e5760405162461bcd60e51b815260206004820152602760248201527f496e697469616c697a61626c653a20636f6e747261637420697320696e697469604482015266616c697a696e6760c81b606482015260840160405180910390fd5b60005460ff9081161015620001a1576000805460ff191660ff9081179091556040519081527f7f26b83ff96e1f2b6a682f133852f6798a09c465da95921460cefb38474024989060200160405180910390a15b565b614bb880620014ad83390190565b600060408284031215620001c457600080fd5b604080519081016001600160401b0381118282101715620001f557634e487b7160e01b600052604160045260246000fd5b6040528251815260208301516001600160a01b03811681146200021757600080fd5b60208201529392505050565b60805161126e6200023f60003960006102d7015261126e6000f3fe608060405234801561001057600080fd5b50600436106100415760003560e01c80632ea72a4914610046578063cca12bad14610083578063fc91a89714610096575b600080fd5b6100596100543660046105c1565b6100df565b60405173ffffffffffffffffffffffffffffffffffffffff90911681526020015b60405180910390f35b610059610091366004610662565b61020d565b6100cf6100a436600461079c565b73ffffffffffffffffffffffffffffffffffffffff1660009081526033602052604090205460ff1690565b604051901515815260200161007a565b60006100e9610240565b60006100f4836102b3565b73ffffffffffffffffffffffffffffffffffffffff811660009081526033602052604090205490915060ff1615610174576040517fd23867da00000000000000000000000000000000000000000000000000000000815273ffffffffffffffffffffffffffffffffffffffff821660048201526024015b60405180910390fd5b73ffffffffffffffffffffffffffffffffffffffff811660008181526033602090815260409182902080547fffffffffffffffffffffffffffffffffffffffffffffffffffffffffffffff001660011790558151338152908101929092527f7da70c4e5387d7038610b79ca7d304caaef815826e51e67cf247135387a79bce910160405180910390a1905061020860018055565b919050565b60006102398383604051602001610225929190610bec565b6040516020818303038152906040526100df565b9392505050565b6002600154036102ac576040517f08c379a000000000000000000000000000000000000000000000000000000000815260206004820152601f60248201527f5265656e7472616e637947756172643a207265656e7472616e742063616c6c00604482015260640161016b565b6002600155565b6000806000838060200190518101906102cc9190610fc3565b9150915060006102fb7f000000000000000000000000000000000000000000000000000000000000000061038d565b6040517f249ac09400000000000000000000000000000000000000000000000000000000815290915073ffffffffffffffffffffffffffffffffffffffff82169063249ac0949061035290869086906004016110a0565b600060405180830381600087803b15801561036c57600080fd5b505af1158015610380573d6000803e3d6000fd5b5092979650505050505050565b6000763d602d80600a3d3981f3363d3d373d3d3d363d730000008260601b60e81c176000526e5af43d82803e903d91602b57fd5bf38260781b17602052603760096000f0905073ffffffffffffffffffffffffffffffffffffffff8116610208576040517f08c379a000000000000000000000000000000000000000000000000000000000815260206004820152601660248201527f455243313136373a20637265617465206661696c656400000000000000000000604482015260640161016b565b7f4e487b7100000000000000000000000000000000000000000000000000000000600052604160045260246000fd5b6040516080810167ffffffffffffffff811182821017156104a2576104a2610450565b60405290565b6040805190810167ffffffffffffffff811182821017156104a2576104a2610450565b60405160e0810167ffffffffffffffff811182821017156104a2576104a2610450565b604051601f82017fffffffffffffffffffffffffffffffffffffffffffffffffffffffffffffffe016810167ffffffffffffffff8111828210171561053557610535610450565b604052919050565b600067ffffffffffffffff82111561055757610557610450565b50601f017fffffffffffffffffffffffffffffffffffffffffffffffffffffffffffffffe01660200190565b60006105966105918461053d565b6104ee565b90508281528383830111156105aa57600080fd5b828260208301376000602084830101529392505050565b6000602082840312156105d357600080fd5b813567ffffffffffffffff8111156105ea57600080fd5b8201601f810184136105fb57600080fd5b61060a84823560208401610583565b949350505050565b600082601f83011261062357600080fd5b61023983833560208501610583565b73ffffffffffffffffffffffffffffffffffffffff8116811461065457600080fd5b50565b803561020881610632565b6000806040838503121561067557600080fd5b823567ffffffffffffffff8082111561068d57600080fd5b9084019060e082870312156106a157600080fd5b909250602084013590808211156106b757600080fd5b90840190608082870312156106cb57600080fd5b6106d361047f565b8235828111156106e257600080fd5b8301608081890312156106f457600080fd5b6106fc61047f565b81358481111561070b57600080fd5b6107178a828501610612565b82525060208201358481111561072c57600080fd5b6107388a828501610612565b6020830152506040820135935061074e84610632565b83604082015260608201356060820152808352505061076f60208401610657565b60208201526040830135604082015261078a60608401610657565b60608201528093505050509250929050565b6000602082840312156107ae57600080fd5b813561023981610632565b600082357fffffffffffffffffffffffffffffffffffffffffffffffffffffffffffffff818336030181126107ed57600080fd5b90910192915050565b60008083357fffffffffffffffffffffffffffffffffffffffffffffffffffffffffffffffe184360301811261082b57600080fd5b830160208101925035905067ffffffffffffffff81111561084b57600080fd5b8060051b360382131561085d57600080fd5b9250929050565b8183528181602085013750600060208284010152600060207fffffffffffffffffffffffffffffffffffffffffffffffffffffffffffffffe0601f840116840101905092915050565b81835260007f07ffffffffffffffffffffffffffffffffffffffffffffffffffffffffffffff8311156108df57600080fd5b8260051b80836020870137939093016020019392505050565b6000813561090581610632565b73ffffffffffffffffffffffffffffffffffffffff90811684526020908382013561092f81610632565b811685830152604084013561094381610632565b1660408501526060830135368490037fffffffffffffffffffffffffffffffffffffffffffffffffffffffffffffffc101811261097f57600080fd5b60806060860152830160c0850161099682806107f6565b604060808901528281845260e08901905060e08260051b8a010193508260005b83811015610a61577fffffffffffffffffffffffffffffffffffffffffffffffffffffffffffffff208b870301835281357fffffffffffffffffffffffffffffffffffffffffffffffffffffffffffffffe1863603018112610a1757600080fd5b8501888101903567ffffffffffffffff811115610a3357600080fd5b803603821315610a4257600080fd5b610a4d888284610864565b9750505091870191908701906001016109b6565b5050505050610a72838301836107f6565b935091507fffffffffffffffffffffffffffffffffffffffffffffffffffffffffffffff808682030160a0870152610aab8184846108ad565b9695505050505050565b60005b83811015610ad0578181015183820152602001610ab8565b50506000910152565b60008151808452610af1816020860160208601610ab5565b601f017fffffffffffffffffffffffffffffffffffffffffffffffffffffffffffffffe0169290920160200192915050565b60008151608084528051608080860152610b41610100860182610ad9565b905060208201517fffffffffffffffffffffffffffffffffffffffffffffffffffffffffffffff808683030160a0870152610b7c8282610ad9565b915050604082015173ffffffffffffffffffffffffffffffffffffffff80821660c0880152606084015160e08801528060208701511660208801525050604084015160408601526060840151915061060a606086018373ffffffffffffffffffffffffffffffffffffffff169052565b6040815260008335610bfd81610632565b73ffffffffffffffffffffffffffffffffffffffff9081166040840152602085013590610c2982610632565b8082166060850152505060408401356080830152606084013560a0830152608084013560c083015260a084013560e0830152610c6860c08501856107b9565b60e0610100840152610c7e6101208401826108f8565b90508281036020840152610c928185610b23565b95945050505050565b805161020881610632565b600067ffffffffffffffff821115610cc057610cc0610450565b5060051b60200190565b6000610cd86105918461053d565b9050828152838383011115610cec57600080fd5b610239836020830184610ab5565b600082601f830112610d0b57600080fd5b81516020610d1b61059183610ca6565b82815260059290921b84018101918181019086841115610d3a57600080fd5b8286015b84811015610d555780518352918301918301610d3e565b509695505050505050565b600060808284031215610d7257600080fd5b610d7a61047f565b90508151610d8781610632565b8152602082810151610d9881610632565b82820152604083810151610dab81610632565b83820152606084015167ffffffffffffffff80821115610dca57600080fd5b8186019150828288031215610dde57600080fd5b610de66104a8565b825182811115610df557600080fd5b8301601f81018913610e0657600080fd5b8051610e1461059182610ca6565b81815260059190911b8201870190878101908b831115610e3357600080fd5b8884015b83811015610e7f57805187811115610e4f5760008081fd5b8501603f81018e13610e615760008081fd5b610e718e8c8301518c8401610cca565b845250918901918901610e37565b50845250505082850151935081841115610e9857600080fd5b610ea488858501610cfa565b85820152806060870152505050505092915050565b600082601f830112610eca57600080fd5b61023983835160208501610cca565b600060808284031215610eeb57600080fd5b610ef361047f565b9050815167ffffffffffffffff80821115610f0d57600080fd5b9083019060808286031215610f2157600080fd5b610f2961047f565b825182811115610f3857600080fd5b610f4487828601610eb9565b825250602083015182811115610f5957600080fd5b610f6587828601610eb9565b60208301525060408301519150610f7b82610632565b81604082015260608301516060820152808452505050610f9d60208301610c9b565b602082015260408201516040820152610fb860608301610c9b565b606082015292915050565b60008060408385031215610fd657600080fd5b825167ffffffffffffffff80821115610fee57600080fd5b9084019060e0828703121561100257600080fd5b61100a6104cb565b61101383610c9b565b815261102160208401610c9b565b602082015260408301516040820152606083015160608201526080830151608082015260a083015160a082015260c08301518281111561106057600080fd5b61106c88828601610d60565b60c083015250602086015190945091508082111561108957600080fd5b5061109685828601610ed9565b9150509250929050565b60408152600073ffffffffffffffffffffffffffffffffffffffff8085511660408401526020818187015116606085015260408601516080850152606086015160a0850152608086015160c085015260a086015160e085015260c086015160e06101008601528281511661012086015282828201511661014086015282604082015116610160860152606081015192505060806101808501526101e08401825160406101a087015281815180845261020093508388019150838160051b8901019350848301925060005b818110156111b6577ffffffffffffffffffffffffffffffffffffffffffffffffffffffffffffffe008986030183526111a4858551610ad9565b9450928501929185019160010161116a565b50505050918101518483037ffffffffffffffffffffffffffffffffffffffffffffffffffffffffffffffe60016101c0860152805180845290820192600091908301905b8083101561121a57845182529383019360019290920191908301906111fa565b508581038387015261122c8188610b23565b9897505050505050505056fea264697066735822122091d571f9c931e7254eb73450b11ed0d476eb8bbe07c4e9e34ac35d60fc4b8d3264736f6c6343000811003360c06040523480156200001157600080fd5b5060405162004bb838038062004bb8833981016040819052620000349162000170565b6200003e620000a1565b8051608052602080820180516001600160a01b0390811660a0526040805133815285519481019490945291511682820152517fdfb1b19f96ead124ec3eafbe221fc5ec839fd1c3fdcae0d21e395e3cd817be509181900360600190a150620001e2565b600254600160a81b900460ff1615620001105760405162461bcd60e51b815260206004820152602760248201527f496e697469616c697a61626c653a20636f6e747261637420697320696e697469604482015266616c697a696e6760c81b606482015260840160405180910390fd5b60025460ff600160a01b909104811610156200016e576002805460ff60a01b191660ff60a01b17905560405160ff81527f7f26b83ff96e1f2b6a682f133852f6798a09c465da95921460cefb38474024989060200160405180910390a15b565b6000604082840312156200018357600080fd5b604080519081016001600160401b0381118282101715620001b457634e487b7160e01b600052604160045260246000fd5b6040528251815260208301516001600160a01b0381168114620001d657600080fd5b60208201529392505050565b60805160a0516149b06200020860003960006109ad0152600061050e01526149b06000f3fe608060405234801561001057600080fd5b50600436106100ea5760003560e01c8063be9a65551161008c578063ec14b06e11610066578063ec14b06e146101ee578063efbe1c1c146101f7578063f9020e33146101ff578063fc0c546a1461023157600080fd5b8063be9a65551461018e578063cd3293de14610196578063d48827e9146101db57600080fd5b8063419a6f5d116100c8578063419a6f5d1461013457806347e4bbb91461015c578063504d14f81461017357806370dea79a1461018657600080fd5b806315a0ea6a146100ef57806324936d2e14610104578063249ac09414610121575b600080fd5b6101026100fd3660046139bd565b610251565b005b61010c610354565b60405190151581526020015b60405180910390f35b61010261012f366004613b0f565b610368565b610147610142366004613c49565b610bcd565b60408051928352602083019190915201610118565b610165603a5481565b604051908152602001610118565b610102610181366004613c62565b610bec565b610102610e69565b6101026110a1565b603c546101b69073ffffffffffffffffffffffffffffffffffffffff1681565b60405173ffffffffffffffffffffffffffffffffffffffff9091168152602001610118565b6101026101e9366004613c7a565b61124a565b61016560395481565b610102611fac565b603c546102249074010000000000000000000000000000000000000000900460ff1681565b6040516101189190613d5d565b603b546101b69073ffffffffffffffffffffffffffffffffffffffff1681565b6002603c5474010000000000000000000000000000000000000000900460ff16600381111561028257610282613cf3565b146102ee576040517f08c379a000000000000000000000000000000000000000000000000000000000815260206004820152600b60248201527f4e4f545f5355434345535300000000000000000000000000000000000000000060448201526064015b60405180910390fd5b73ffffffffffffffffffffffffffffffffffffffff811660009081526043602052604090205480156103505773ffffffffffffffffffffffffffffffffffffffff808316600090815260436020526040812055603c5461035091168383612158565b5050565b60008061035f61222c565b50909392505050565b6002547501000000000000000000000000000000000000000000900460ff16158080156103b3575060025460017401000000000000000000000000000000000000000090910460ff16105b806103e55750303b1580156103e5575060025474010000000000000000000000000000000000000000900460ff166001145b610471576040517f08c379a000000000000000000000000000000000000000000000000000000000815260206004820152602e60248201527f496e697469616c697a61626c653a20636f6e747261637420697320616c72656160448201527f647920696e697469616c697a656400000000000000000000000000000000000060648201526084016102e5565b600280547fffffffffffffffffffffff00ffffffffffffffffffffffffffffffffffffffff167401000000000000000000000000000000000000000017905580156104f757600280547fffffffffffffffffffff00ffffffffffffffffffffffffffffffffffffffffff1675010000000000000000000000000000000000000000001790555b6104ff61240b565b61050c83606001356124c0565b7f00000000000000000000000000000000000000000000000000000000000000008360400135111561059a576040517f08c379a000000000000000000000000000000000000000000000000000000000815260206004820152600b60248201527f4d41585f54494d454f555400000000000000000000000000000000000000000060448201526064016102e5565b6105a8604084013542613d9a565b6040556080830135610616576040517f08c379a000000000000000000000000000000000000000000000000000000000815260206004820152600b60248201527f4d494e5f52414953455f3000000000000000000000000000000000000000000060448201526064016102e5565b6080830135603e5560408051606081019091528061063760c0860186613dad565b6106489060408101906020016139bd565b73ffffffffffffffffffffffffffffffffffffffff16815260200161067060c0860186613dad565b6106819060608101906040016139bd565b73ffffffffffffffffffffffffffffffffffffffff1681526020016106a960c0860186613dad565b6106b79060208101906139bd565b73ffffffffffffffffffffffffffffffffffffffff16631ed061d96106df60c0880188613dad565b6106ed906060810190613deb565b6106fb6001600260006125e9565b6040518363ffffffff1660e01b8152600401610718929190614060565b6020604051808303816000875af1158015610737573d6000803e3d6000fd5b505050506040513d601f19601f8201168201806040525081019061075b9190614085565b73ffffffffffffffffffffffffffffffffffffffff9081169091528151603580547fffffffffffffffffffffffff0000000000000000000000000000000000000000908116928416929092179055602083015160368054831691841691909117905560409092015160378054909316911617905560006107de60c0850185613dad565b6107ec906060810190613deb565b6107f690806140a2565b60028181106108075761080761410a565b90506020028101906108199190614139565b9050111561084d57603880547fffffffffffffffffffffffffffffffffffffffffffffffffffffffffffffff001660011790555b61085a60208401846139bd565b603d80547fffffffffffffffffffffffff00000000000000000000000000000000000000001673ffffffffffffffffffffffffffffffffffffffff9290921691909117905560a0830135603f55603c80547fffffffffffffffffffffff00ffffffffffffffffffffffffffffffffffffffff1690556108df60408401602085016139bd565b603c80547fffffffffffffffffffffffff00000000000000000000000000000000000000001673ffffffffffffffffffffffffffffffffffffffff928316179055825160400151161561098e576040517f08c379a000000000000000000000000000000000000000000000000000000000815260206004820152600f60248201527f4449535452494255544f525f534554000000000000000000000000000000000060448201526064016102e5565b815130604091820152825160600151603955805160a0810182526000917f000000000000000000000000000000000000000000000000000000000000000073ffffffffffffffffffffffffffffffffffffffff1691632ea72a499181906109fa90890160208a016139bd565b73ffffffffffffffffffffffffffffffffffffffff16815260200186600001518152602001866020015173ffffffffffffffffffffffffffffffffffffffff16815260200186604001518152602001866060015173ffffffffffffffffffffffffffffffffffffffff16815250604051602001610a77919061420c565b6040516020818303038152906040526040518263ffffffff1660e01b8152600401610aa29190614305565b6020604051808303816000875af1158015610ac1573d6000803e3d6000fd5b505050506040513d601f19601f82011682018060405250810190610ae59190614085565b603b80547fffffffffffffffffffffffff00000000000000000000000000000000000000001673ffffffffffffffffffffffffffffffffffffffff83161790556040519091507fe0010ac7e2f2e52ba6fc51e598e5c757e4084338624b590f40cb7e4e428e438390610b5c903390879085906143f4565b60405180910390a1508015610bc857600280547fffffffffffffffffffff00ffffffffffffffffffffffffffffffffffffffffff169055604051600181527f7f26b83ff96e1f2b6a682f133852f6798a09c465da95921460cefb38474024989060200160405180910390a15b505050565b600080600080610bdc8561262c565b5092989197509095505050505050565b6002603c5474010000000000000000000000000000000000000000900460ff166003811115610c1d57610c1d613cf3565b03610c84576040517f08c379a000000000000000000000000000000000000000000000000000000000815260206004820152600e60248201527f524546554e445f5355434345535300000000000000000000000000000000000060448201526064016102e5565b6003603c5474010000000000000000000000000000000000000000900460ff166003811115610cb557610cb5613cf3565b14610cc257610cc26128b3565b3360009081526041602090815260408083209051909291610ce5918591016144fe565b6040516020818303038152906040528051906020012081526020019081526020016000206000815480929190610d1a9061450c565b9091555060009050610d36608083013560608401356001612a50565b905080603a6000828254610d4a9190614541565b92505081905550816060013560396000828254610d679190613d9a565b909155505060408201803590604390600090610d8690602087016139bd565b73ffffffffffffffffffffffffffffffffffffffff1673ffffffffffffffffffffffffffffffffffffffff1681526020019081526020016000206000828254610dcf9190614541565b90915550506040517f92f85a40e83c8d882fe8d6e484c07c775950072962f3b22dd739834849a5a32490610e069033908590614554565b60405180910390a1603b54610e379073ffffffffffffffffffffffffffffffffffffffff1633306060860135612a6e565b61035033610e49604085013584613d9a565b603c5473ffffffffffffffffffffffffffffffffffffffff169190612158565b4260405410610ed4576040517f08c379a000000000000000000000000000000000000000000000000000000000815260206004820152600d60248201527f4541524c595f54494d454f55540000000000000000000000000000000000000060448201526064016102e5565b6000603c5474010000000000000000000000000000000000000000900460ff166003811115610f0557610f05613cf3565b1480610f3f57506001603c5474010000000000000000000000000000000000000000900460ff166003811115610f3d57610f3d613cf3565b145b610fa5576040517f08c379a000000000000000000000000000000000000000000000000000000000815260206004820152600d60248201527f414c52454144595f454e4445440000000000000000000000000000000000000060448201526064016102e5565b6000603955603c80547fffffffffffffffffffffff00ffffffffffffffffffffffffffffffffffffffff16740300000000000000000000000000000000000000001790556040805133815290517f71b8d288b6b795cd40378095d6a9c6466eb4a081c0238dfd691b0b1f5868f1809181900360200190a1603b546040517f8b24259b00000000000000000000000000000000000000000000000000000000815230600482015273ffffffffffffffffffffffffffffffffffffffff90911690638b24259b90602401600060405180830381600087803b15801561108757600080fd5b505af115801561109b573d6000803e3d6000fd5b50505050565b6000603c5474010000000000000000000000000000000000000000900460ff1660038111156110d2576110d2613cf3565b14611139576040517f08c379a000000000000000000000000000000000000000000000000000000000815260206004820152600b60248201527f4e4f545f50454e44494e4700000000000000000000000000000000000000000060448201526064016102e5565b600080600061114661222c565b925092509250826111b3576040517f08c379a000000000000000000000000000000000000000000000000000000000815260206004820152600860248201527f4e4f545f4c49564500000000000000000000000000000000000000000000000060448201526064016102e5565b805115611242576040517f946aadc600000000000000000000000000000000000000000000000000000000815273ffffffffffffffffffffffffffffffffffffffff83169063946aadc69061120f90600090859060040161457e565b600060405180830381600087803b15801561122957600080fd5b505af115801561123d573d6000803e3d6000fd5b505050505b610bc8612acc565b60025460009073ffffffffffffffffffffffffffffffffffffffff16156112895760025473ffffffffffffffffffffffffffffffffffffffff166112b7565b600280547fffffffffffffffffffffffff000000000000000000000000000000000000000016339081179091555b73ffffffffffffffffffffffffffffffffffffffff8116600090815260016020526040902054909150421015611349576040517f08c379a000000000000000000000000000000000000000000000000000000000815260206004820152600860248201527f434f4f4c444f574e00000000000000000000000000000000000000000000000060448201526064016102e5565b600080546113579042613d9a565b73ffffffffffffffffffffffffffffffffffffffff8316600081815260016020908152604091829020849055815192835282018390529192507fdd9ec76fd04aab7ee6b385c04a7bdf966620500e72b134bfc3f19654fae20f25910160405180910390a16113c3612b40565b8260400151600010611431576040517f08c379a000000000000000000000000000000000000000000000000000000000815260206004820152600960248201527f305f4d494e494d554d000000000000000000000000000000000000000000000060448201526064016102e5565b8260600151836040015111156114a3576040517f08c379a000000000000000000000000000000000000000000000000000000000815260206004820152601460248201527f4d494e494d554d5f4f5645525f4445534952454400000000000000000000000060448201526064016102e5565b6040805160608101825260355473ffffffffffffffffffffffffffffffffffffffff9081168252603654811660208301526037541691810191909152600080806114eb61222c565b925092509250600081511115611583576040517f946aadc600000000000000000000000000000000000000000000000000000000815273ffffffffffffffffffffffffffffffffffffffff83169063946aadc69061155090600090859060040161457e565b600060405180830381600087803b15801561156a57600080fd5b505af115801561157e573d6000803e3d6000fd5b505050505b82156115cc576000603c5474010000000000000000000000000000000000000000900460ff1660038111156115ba576115ba613cf3565b036115c7576115c7612acc565b611613565b6001603c5474010000000000000000000000000000000000000000900460ff1660038111156115fd576115fd613cf3565b036116135761160a612bb3565b50505050611f75565b6001603c5474010000000000000000000000000000000000000000900460ff16600381111561164457611644613cf3565b146116ab576040517f08c379a000000000000000000000000000000000000000000000000000000000815260206004820152600a60248201527f4e4f545f4143544956450000000000000000000000000000000000000000000060448201526064016102e5565b50506039546060860151600092506116c291612d19565b905060008060608060006116d58661262c565b8051949950929750909550909350915015611772576040517f946aadc600000000000000000000000000000000000000000000000000000000815273ffffffffffffffffffffffffffffffffffffffff82169063946aadc69061173f90600090869060040161457e565b600060405180830381600087803b15801561175957600080fd5b505af115801561176d573d6000803e3d6000fd5b505050505b50600090506117818486612d19565b905088604001518110156117f1576040517f08c379a000000000000000000000000000000000000000000000000000000000815260206004820152601260248201527f494e53554646494349454e545f53544f434b000000000000000000000000000060448201526064016102e5565b886080015183111561185f576040517f08c379a000000000000000000000000000000000000000000000000000000000815260206004820152600d60248201527f4d4158494d554d5f50524943450000000000000000000000000000000000000060448201526064016102e5565b600061186d84836001612a50565b6040805160a081018252604280548083528e5173ffffffffffffffffffffffffffffffffffffffff166020808501919091528f01519383019390935260608201869052608082018890529293509160006118c683614597565b909155505033600090815260416020908152604080832090519092916118ee918591016145cf565b604051602081830303815290604052805190602001208152602001908152602001600020600081548092919061192390614597565b90915550506020808c01518c5173ffffffffffffffffffffffffffffffffffffffff166000908152604390925260408220805491929091611965908490613d9a565b9250508190555082846002815181106119805761198061410a565b602002602001015160008151811061199a5761199a61410a565b602002602001018181525050603954846002815181106119bc576119bc61410a565b60200260200101516001815181106119d6576119d661410a565b60200260200101818152505082846002815181106119f6576119f661410a565b6020026020010151600181518110611a1057611a1061410a565b6020026020010151611a229190614541565b84600281518110611a3557611a3561410a565b6020026020010151600281518110611a4f57611a4f61410a565b60200260200101818152505083600281518110611a6e57611a6e61410a565b6020026020010151600281518110611a8857611a8861410a565b60200260200101516039819055508a6020015184600281518110611aae57611aae61410a565b6020026020010151600381518110611ac857611ac861410a565b6020026020010181815250508184600281518110611ae857611ae861410a565b6020026020010151600481518110611b0257611b0261410a565b602002602001018181525050603a5484600281518110611b2457611b2461410a565b6020026020010151600581518110611b3e57611b3e61410a565b6020026020010181815250508184600281518110611b5e57611b5e61410a565b6020026020010151600581518110611b7857611b7861410a565b6020026020010151611b8a9190613d9a565b84600281518110611b9d57611b9d61410a565b6020026020010151600681518110611bb757611bb761410a565b60200260200101818152505083600281518110611bd657611bd661410a565b6020026020010151600681518110611bf057611bf061410a565b6020026020010151603a6000828254611c099190613d9a565b925050819055506000611c1f8960400151612d33565b60385490915060ff1615611dab577f17a5c0f3785132a57703932032f6863e7920434150aa1dc940e567b440fdce1f3386604051611c5e929190614670565b60405180910390a1885160208a01516040517f6715f82500000000000000000000000000000000000000000000000000000000815260009273ffffffffffffffffffffffffffffffffffffffff1691636715f82591611cc69190859087908c9060040161469f565b600060405180830381865afa158015611ce3573d6000803e3d6000fd5b505050506040513d6000823e601f3d9081017fffffffffffffffffffffffffffffffffffffffffffffffffffffffffffffffe0168201604052611d29919081019061474f565b915050600081511115611da957896020015173ffffffffffffffffffffffffffffffffffffffff1663946aadc66000836040518363ffffffff1660e01b8152600401611d7692919061457e565b600060405180830381600087803b158015611d9057600080fd5b505af1158015611da4573d6000803e3d6000fd5b505050505b505b50611de233308d6020015185611dc19190613d9a565b603c5473ffffffffffffffffffffffffffffffffffffffff16929190612a6e565b603b54611e069073ffffffffffffffffffffffffffffffffffffffff163385612158565b7fde28bbdf409354cf811d2e1f52147a0a2a1b89be5848c4b5a41587f63b7cfa6a338c83604051611e39939291906147b3565b60405180910390a16000806000611e4e61222c565b925092509250600081511115611ee6576040517f946aadc600000000000000000000000000000000000000000000000000000000815273ffffffffffffffffffffffffffffffffffffffff83169063946aadc690611eb390600090859060040161457e565b600060405180830381600087803b158015611ecd57600080fd5b505af1158015611ee1573d6000803e3d6000fd5b505050505b8215611f6157603f546039541015611f5c576040517f08c379a00000000000000000000000000000000000000000000000000000000081526004016102e59060208082526004908201527f4455535400000000000000000000000000000000000000000000000000000000604082015260600190565b611f69565b611f69612bb3565b50505050505050505050505b611f7f6001600355565b5050600280547fffffffffffffffffffffffff000000000000000000000000000000000000000016905550565b6001603c5474010000000000000000000000000000000000000000900460ff166003811115611fdd57611fdd613cf3565b14612044576040517f08c379a000000000000000000000000000000000000000000000000000000000815260206004820152600a60248201527f4e4f545f4143544956450000000000000000000000000000000000000000000060448201526064016102e5565b600080600061205161222c565b92509250925082156120c1576040517f08c379a00000000000000000000000000000000000000000000000000000000081526004016102e59060208082526004908201527f4c49564500000000000000000000000000000000000000000000000000000000604082015260600190565b805115612150576040517f946aadc600000000000000000000000000000000000000000000000000000000815273ffffffffffffffffffffffffffffffffffffffff83169063946aadc69061211d90600090859060040161457e565b600060405180830381600087803b15801561213757600080fd5b505af115801561214b573d6000803e3d6000fd5b505050505b610bc8612bb3565b60405173ffffffffffffffffffffffffffffffffffffffff8316602482015260448101829052610bc89084907fa9059cbb00000000000000000000000000000000000000000000000000000000906064015b604080517fffffffffffffffffffffffffffffffffffffffffffffffffffffffffffffffe08184030181529190526020810180517bffffffffffffffffffffffffffffffffffffffffffffffffffffffff167fffffffff0000000000000000000000000000000000000000000000000000000090931692909217909152612d65565b600080606060016039541015612255575050604080516000808252602082019092529092839250565b6040805160608101825260355473ffffffffffffffffffffffffffffffffffffffff908116808352603654821660208401819052603754909216938301849052919260009283929091636715f825919084906122b090612e71565b60408051600080825260208201909252612350916122de565b60608152602001906001900390816122c95790505b506040805160008082526020820181815282840190935290919061234a565b6123376040518060600160405280600073ffffffffffffffffffffffffffffffffffffffff16815260200160608152602001606081525090565b8152602001906001900390816122fd5790505b50612e9a565b6040518563ffffffff1660e01b815260040161236f949392919061469f565b600060405180830381865afa15801561238c573d6000803e3d6000fd5b505050506040513d6000823e601f3d9081017fffffffffffffffffffffffffffffffffffffffffffffffffffffffffffffffe01682016040526123d2919081019061474f565b915091506000826001845103815181106123ee576123ee61410a565b602002602001015111836020015182955095509550505050909192565b6002547501000000000000000000000000000000000000000000900460ff166124b6576040517f08c379a000000000000000000000000000000000000000000000000000000000815260206004820152602b60248201527f496e697469616c697a61626c653a20636f6e7472616374206973206e6f74206960448201527f6e697469616c697a696e6700000000000000000000000000000000000000000060648201526084016102e5565b6124be613204565b565b6000811161252a576040517f08c379a000000000000000000000000000000000000000000000000000000000815260206004820152600a60248201527f434f4f4c444f574e5f300000000000000000000000000000000000000000000060448201526064016102e5565b63ffffffff811115612598576040517f08c379a000000000000000000000000000000000000000000000000000000000815260206004820152600c60248201527f434f4f4c444f574e5f4d4158000000000000000000000000000000000000000060448201526064016102e5565b600054156125a8576125a8614856565b600081905560408051338152602081018390527f6153539ba1c54ed4ef5b6f1fda4b7183eeaa1b5707c152abed56f61e09452521910160405180910390a150565b60408051600380825260808201909252606091600091906020820184803683375050506020810186905260408101859052606081018490529150505b9392505050565b60008060608181816126de600260405190808252806020026020018201604052801561266c57816020015b60608152602001906001900390816126575790505b50612676896132af565b604080516000808252602082019092529061234a565b6126c66040518060600160405280600073ffffffffffffffffffffffffffffffffffffffff16815260200160608152602001606081525090565b81526020019060019003908161268c57905050612e9a565b6040805160608101825260355473ffffffffffffffffffffffffffffffffffffffff90811680835260365482166020840181905260375490921693830184905293945090926000928392636715f825918490612739906132e1565b886040518563ffffffff1660e01b8152600401612759949392919061469f565b600060405180830381865afa158015612776573d6000803e3d6000fd5b505050506040513d6000823e601f3d9081017fffffffffffffffffffffffffffffffffffffffffffffffffffffffffffffffe01682016040526127bc919081019061474f565b915091506000806128256127d885805160209081029091010190565b7fffffffffffffffffffffffffffffffffffffffffffffffffffffffffffffffc08101517fffffffffffffffffffffffffffffffffffffffffffffffffffffffffffffffe0909101519091565b915091506000612835838361330c565b9050808760018151811061284b5761284b61410a565b6020908102919091010152604080516007808252610100820190925290816020016020820280368337019050508760028151811061288b5761288b61410a565b6020908102919091018101919091529590950151919c909b5094995097509550919350505050565b60025460009073ffffffffffffffffffffffffffffffffffffffff16156128f25760025473ffffffffffffffffffffffffffffffffffffffff16612920565b600280547fffffffffffffffffffffffff000000000000000000000000000000000000000016339081179091555b73ffffffffffffffffffffffffffffffffffffffff81166000908152600160205260409020549091504210156129b2576040517f08c379a000000000000000000000000000000000000000000000000000000000815260206004820152600860248201527f434f4f4c444f574e00000000000000000000000000000000000000000000000060448201526064016102e5565b600080546129c09042613d9a565b73ffffffffffffffffffffffffffffffffffffffff8316600081815260016020908152604091829020849055815192835282018390529192507fdd9ec76fd04aab7ee6b385c04a7bdf966620500e72b134bfc3f19654fae20f25910160405180910390a15050600280547fffffffffffffffffffffffff0000000000000000000000000000000000000000169055565b6000612a668484670de0b6b3a764000085613340565b949350505050565b60405173ffffffffffffffffffffffffffffffffffffffff8085166024830152831660448201526064810182905261109b9085907f23b872dd00000000000000000000000000000000000000000000000000000000906084016121aa565b603c80547fffffffffffffffffffffff00ffffffffffffffffffffffffffffffffffffffff16740100000000000000000000000000000000000000001790556040805133815290517f84d0447ca38875fa61115673259a210915bc1dd53a3c112d6f0790f15956a9659181900360200190a1565b600260035403612bac576040517f08c379a000000000000000000000000000000000000000000000000000000000815260206004820152601f60248201527f5265656e7472616e637947756172643a207265656e7472616e742063616c6c0060448201526064016102e5565b6002600355565b603e54603a541015600081612bc9576003612bcc565b60025b6000603955603c805491925082917fffffffffffffffffffffff00ffffffffffffffffffffffffffffffffffffffff1674010000000000000000000000000000000000000000836003811115612c2457612c24613cf3565b02179055507f9aef4e6c636914c533cde859f632ab5e2b68cfd8f06b6a2e18f89783f00072cd3382604051612c5a929190614885565b60405180910390a1603b546040517f8b24259b00000000000000000000000000000000000000000000000000000000815230600482015273ffffffffffffffffffffffffffffffffffffffff90911690638b24259b90602401600060405180830381600087803b158015612ccd57600080fd5b505af1158015612ce1573d6000803e3d6000fd5b50505050811561035057603d54603a54603c546103509273ffffffffffffffffffffffffffffffffffffffff91821692911690612158565b6000818310612d285781612d2a565b825b90505b92915050565b600062020000602083901b77ffffffffffffffffffffffffffffffffffffffff000000001617612d2d565b6001600355565b6000612dc7826040518060400160405280602081526020017f5361666545524332303a206c6f772d6c6576656c2063616c6c206661696c65648152508573ffffffffffffffffffffffffffffffffffffffff1661339d9092919063ffffffff16565b805190915015610bc85780806020019051810190612de591906148af565b610bc8576040517f08c379a000000000000000000000000000000000000000000000000000000000815260206004820152602a60248201527f5361666545524332303a204552433230206f7065726174696f6e20646964206e60448201527f6f7420737563636565640000000000000000000000000000000000000000000060648201526084016102e5565b6000602082901b77ffffffffffffffffffffffffffffffffffffffff0000000016600117612d2d565b60606000825167ffffffffffffffff811115612eb857612eb86139da565b604051908082528060200260200182016040528015612ee1578160200160208202803683370190505b509050600080845111612ef5576000612efb565b83516001015b865101600201905060008167ffffffffffffffff811115612f1e57612f1e6139da565b604051908082528060200260200182016040528015612f5157816020015b6060815260200190600190039081612f3c5790505b5090506000612f5e6133ac565b828281518110612f7057612f7061410a565b602002602001018190525060005b8851811015612fce578180600101925050888181518110612fa157612fa161410a565b6020026020010151838381518110612fbb57612fbb61410a565b6020908102919091010152600101612f7e565b50808060010191505086828281518110612fea57612fea61410a565b60209081029190910101528551156131f9578080600101915050838282815181106130175761301761410a565b602002602001018190525060005b86518110156131f7576131218782815181106130435761304361410a565b6020026020010151600001516130fe8984815181106130645761306461410a565b60200260200101516040015160405160200161308091906148d1565b604080517fffffffffffffffffffffffffffffffffffffffffffffffffffffffffffffffe081840301815282825280516020918201207f19457468657265756d205369676e6564204d6573736167653a0a33320000000084830152603c8085019190915282518085039091018152605c909301909152815191012090565b8984815181106131105761311061410a565b6020026020010151602001516133bd565b61315a576040517f52bf9848000000000000000000000000000000000000000000000000000000008152600481018290526024016102e5565b86818151811061316c5761316c61410a565b60200260200101516000015173ffffffffffffffffffffffffffffffffffffffff168582815181106131a0576131a061410a565b60200260200101818152505081806001019250508681815181106131c6576131c661410a565b6020026020010151604001518383815181106131e4576131e461410a565b6020908102919091010152600101613025565b505b509695505050505050565b6002547501000000000000000000000000000000000000000000900460ff16612d5e576040517f08c379a000000000000000000000000000000000000000000000000000000000815260206004820152602b60248201527f496e697469616c697a61626c653a20636f6e7472616374206973206e6f74206960448201527f6e697469616c697a696e6700000000000000000000000000000000000000000060648201526084016102e5565b604080516001808252818301909252606091600091906020808301908036833750505060208101939093525090919050565b600062010002602083901b77ffffffffffffffffffffffffffffffffffffffff000000001617612d2d565b6040805160028082526060808301845292600092919060208301908036833750505060208101949094525050604082015290565b60008061334e86868661358a565b9050600183600281111561336457613364613cf3565b14801561338157506000848061337c5761337c614907565b868809115b1561339457613391600182613d9a565b90505b95945050505050565b6060612a668484600085613657565b60606133b8333061330c565b905090565b60008060006133cc8585613770565b909250905060008160048111156133e5576133e5613cf3565b14801561341d57508573ffffffffffffffffffffffffffffffffffffffff168273ffffffffffffffffffffffffffffffffffffffff16145b1561342d57600192505050612625565b6000808773ffffffffffffffffffffffffffffffffffffffff16631626ba7e60e01b8888604051602401613462929190614936565b604080517fffffffffffffffffffffffffffffffffffffffffffffffffffffffffffffffe08184030181529181526020820180517bffffffffffffffffffffffffffffffffffffffffffffffffffffffff167fffffffff000000000000000000000000000000000000000000000000000000009094169390931790925290516134eb919061494f565b600060405180830381855afa9150503d8060008114613526576040519150601f19603f3d011682016040523d82523d6000602084013e61352b565b606091505b509150915081801561353e575080516020145b801561357e575080517f1626ba7e000000000000000000000000000000000000000000000000000000009061357c9083016020908101908401614961565b145b98975050505050505050565b600080807fffffffffffffffffffffffffffffffffffffffffffffffffffffffffffffffff858709858702925082811083820303915050806000036135e2578382816135d8576135d8614907565b0492505050612625565b8084116135ee57600080fd5b60008486880960026001871981018816978890046003810283188082028403028082028403028082028403028082028403028082028403029081029092039091026000889003889004909101858311909403939093029303949094049190911702949350505050565b6060824710156136e9576040517f08c379a000000000000000000000000000000000000000000000000000000000815260206004820152602660248201527f416464726573733a20696e73756666696369656e742062616c616e636520666f60448201527f722063616c6c000000000000000000000000000000000000000000000000000060648201526084016102e5565b6000808673ffffffffffffffffffffffffffffffffffffffff168587604051613712919061494f565b60006040518083038185875af1925050503d806000811461374f576040519150601f19603f3d011682016040523d82523d6000602084013e613754565b606091505b5091509150613765878383876137b5565b979650505050505050565b60008082516041036137a65760208301516040840151606085015160001a61379a87828585613855565b945094505050506137ae565b506000905060025b9250929050565b6060831561384b5782516000036138445773ffffffffffffffffffffffffffffffffffffffff85163b613844576040517f08c379a000000000000000000000000000000000000000000000000000000000815260206004820152601d60248201527f416464726573733a2063616c6c20746f206e6f6e2d636f6e747261637400000060448201526064016102e5565b5081612a66565b612a668383613944565b6000807f7fffffffffffffffffffffffffffffff5d576e7357a4501ddfe92f46681b20a083111561388c575060009050600361393b565b6040805160008082526020820180845289905260ff881692820192909252606081018690526080810185905260019060a0016020604051602081039080840390855afa1580156138e0573d6000803e3d6000fd5b50506040517fffffffffffffffffffffffffffffffffffffffffffffffffffffffffffffffe0015191505073ffffffffffffffffffffffffffffffffffffffff81166139345760006001925092505061393b565b9150600090505b94509492505050565b8151156139545781518083602001fd5b806040517f08c379a00000000000000000000000000000000000000000000000000000000081526004016102e59190614305565b73ffffffffffffffffffffffffffffffffffffffff811681146139aa57600080fd5b50565b80356139b881613988565b919050565b6000602082840312156139cf57600080fd5b813561262581613988565b7f4e487b7100000000000000000000000000000000000000000000000000000000600052604160045260246000fd5b6040516080810167ffffffffffffffff81118282101715613a2c57613a2c6139da565b60405290565b604051601f82017fffffffffffffffffffffffffffffffffffffffffffffffffffffffffffffffe016810167ffffffffffffffff81118282101715613a7957613a796139da565b604052919050565b600082601f830112613a9257600080fd5b813567ffffffffffffffff811115613aac57613aac6139da565b613add60207fffffffffffffffffffffffffffffffffffffffffffffffffffffffffffffffe0601f84011601613a32565b818152846020838601011115613af257600080fd5b816020850160208301376000918101602001919091529392505050565b60008060408385031215613b2257600080fd5b823567ffffffffffffffff80821115613b3a57600080fd5b9084019060e08287031215613b4e57600080fd5b90925060208401359080821115613b6457600080fd5b9084019060808287031215613b7857600080fd5b613b80613a09565b823582811115613b8f57600080fd5b830160808189031215613ba157600080fd5b613ba9613a09565b813584811115613bb857600080fd5b613bc48a828501613a81565b825250602082013584811115613bd957600080fd5b613be58a828501613a81565b60208301525060408201359350613bfb84613988565b836040820152606082013560608201528083525050613c1c602084016139ad565b602082015260408301356040820152613c37606084016139ad565b60608201528093505050509250929050565b600060208284031215613c5b57600080fd5b5035919050565b600060a08284031215613c7457600080fd5b50919050565b600060a08284031215613c8c57600080fd5b60405160a0810181811067ffffffffffffffff82111715613caf57613caf6139da565b6040528235613cbd81613988565b80825250602083013560208201526040830135604082015260608301356060820152608083013560808201528091505092915050565b7f4e487b7100000000000000000000000000000000000000000000000000000000600052602160045260246000fd5b60048110613d59577f4e487b7100000000000000000000000000000000000000000000000000000000600052602160045260246000fd5b9052565b60208101612d2d8284613d22565b7f4e487b7100000000000000000000000000000000000000000000000000000000600052601160045260246000fd5b80820180821115612d2d57612d2d613d6b565b600082357fffffffffffffffffffffffffffffffffffffffffffffffffffffffffffffff81833603018112613de157600080fd5b9190910192915050565b600082357fffffffffffffffffffffffffffffffffffffffffffffffffffffffffffffffc1833603018112613de157600080fd5b60008083357fffffffffffffffffffffffffffffffffffffffffffffffffffffffffffffffe1843603018112613e5457600080fd5b830160208101925035905067ffffffffffffffff811115613e7457600080fd5b8060051b36038213156137ae57600080fd5b8183528181602085013750600060208284010152600060207fffffffffffffffffffffffffffffffffffffffffffffffffffffffffffffffe0601f840116840101905092915050565b81835260007f07ffffffffffffffffffffffffffffffffffffffffffffffffffffffffffffff831115613f0157600080fd5b8260051b80836020870137939093016020019392505050565b600060408301613f2a8384613e1f565b604086528281845260608701905060608260051b88010193508260005b83811015613ff6577fffffffffffffffffffffffffffffffffffffffffffffffffffffffffffffffa089870301835281357fffffffffffffffffffffffffffffffffffffffffffffffffffffffffffffffe1863603018112613fa857600080fd5b8501602081810191359067ffffffffffffffff821115613fc757600080fd5b813603831315613fd657600080fd5b613fe1898385613e86565b98509485019493909301925050600101613f47565b50505050506140086020840184613e1f565b858303602087015261401b838284613ecf565b9695505050505050565b600081518084526020808501945080840160005b8381101561405557815187529582019590820190600101614039565b509495945050505050565b6040815260006140736040830185613f1a565b82810360208401526133948185614025565b60006020828403121561409757600080fd5b815161262581613988565b60008083357fffffffffffffffffffffffffffffffffffffffffffffffffffffffffffffffe18436030181126140d757600080fd5b83018035915067ffffffffffffffff8211156140f257600080fd5b6020019150600581901b36038213156137ae57600080fd5b7f4e487b7100000000000000000000000000000000000000000000000000000000600052603260045260246000fd5b60008083357fffffffffffffffffffffffffffffffffffffffffffffffffffffffffffffffe184360301811261416e57600080fd5b83018035915067ffffffffffffffff82111561418957600080fd5b6020019150368190038213156137ae57600080fd5b60005b838110156141b95781810151838201526020016141a1565b50506000910152565b600081518084526141da81602086016020860161419e565b601f017fffffffffffffffffffffffffffffffffffffffffffffffffffffffffffffffe0169290920160200192915050565b60208152600073ffffffffffffffffffffffffffffffffffffffff808451166020840152602084015160a060408501528051608060c08601526142536101408601826141c2565b905060208201517fffffffffffffffffffffffffffffffffffffffffffffffffffffffffffffff408683030160e087015261428e82826141c2565b915050826040830151166101008601526060820151610120860152604086015192506142d2606086018473ffffffffffffffffffffffffffffffffffffffff169052565b606086015160808601526080860151925061339460a086018473ffffffffffffffffffffffffffffffffffffffff169052565b602081526000612d2a60208301846141c2565b600082357fffffffffffffffffffffffffffffffffffffffffffffffffffffffffffffff8183360301811261434c57600080fd5b90910192915050565b6000813561436281613988565b73ffffffffffffffffffffffffffffffffffffffff908116845260208301359061438b82613988565b90811660208501526040830135906143a282613988565b1660408401526060820135368390037fffffffffffffffffffffffffffffffffffffffffffffffffffffffffffffffc10181126143de57600080fd5b60806060850152612a6660808501848301613f1a565b600073ffffffffffffffffffffffffffffffffffffffff808616835260606020840152843561442281613988565b81166060840152602085013561443781613988565b81811660808501525050604084013560a0830152606084013560c0830152608084013560e083015260a084013561010083015261447760c0850185614318565b60e061012084015261448d610140840182614355565b915050612a66604083018473ffffffffffffffffffffffffffffffffffffffff169052565b8035825260208101356144c481613988565b73ffffffffffffffffffffffffffffffffffffffff1660208301526040818101359083015260608082013590830152608090810135910152565b60a08101612d2d82846144b2565b60008161451b5761451b613d6b565b507fffffffffffffffffffffffffffffffffffffffffffffffffffffffffffffffff0190565b81810381811115612d2d57612d2d613d6b565b73ffffffffffffffffffffffffffffffffffffffff8316815260c0810161262560208301846144b2565b828152604060208201526000612a666040830184614025565b60007fffffffffffffffffffffffffffffffffffffffffffffffffffffffffffffffff82036145c8576145c8613d6b565b5060010190565b60a08101612d2d82848051825273ffffffffffffffffffffffffffffffffffffffff60208201511660208301526040810151604083015260608101516060830152608081015160808301525050565b6000815180845260208085019450848260051b860182860160005b85811015614663578383038952614651838351614025565b98850198925090840190600101614639565b5090979650505050505050565b73ffffffffffffffffffffffffffffffffffffffff83168152604060208201526000612a66604083018461461e565b73ffffffffffffffffffffffffffffffffffffffff8516815283602082015282604082015260806060820152600061401b608083018461461e565b600082601f8301126146eb57600080fd5b8151602067ffffffffffffffff821115614707576147076139da565b8160051b614716828201613a32565b928352848101820192828101908785111561473057600080fd5b83870192505b8483101561376557825182529183019190830190614736565b6000806040838503121561476257600080fd5b825167ffffffffffffffff8082111561477a57600080fd5b614786868387016146da565b9350602085015191508082111561479c57600080fd5b506147a9858286016146da565b9150509250929050565b60006101608201905073ffffffffffffffffffffffffffffffffffffffff808616835280855116602084015250602084015160408301526040840151606083015260608401516080830152608084015160a0830152612a6660c08301848051825273ffffffffffffffffffffffffffffffffffffffff60208201511660208301526040810151604083015260608101516060830152608081015160808301525050565b7f4e487b7100000000000000000000000000000000000000000000000000000000600052600160045260246000fd5b73ffffffffffffffffffffffffffffffffffffffff83168152604081016126256020830184613d22565b6000602082840312156148c157600080fd5b8151801515811461262557600080fd5b815160009082906020808601845b838110156148fb578151855293820193908201906001016148df565b50929695505050505050565b7f4e487b7100000000000000000000000000000000000000000000000000000000600052601260045260246000fd5b828152604060208201526000612a6660408301846141c2565b60008251613de181846020870161419e565b60006020828403121561497357600080fd5b505191905056fea26469706673582212202442a9b3d87c2ff36b60e4ef6e79cdaad2fa4865c97f2276d3f12acc81c3e62e64736f6c63430008110033",
  "linkReferences": {},
  "deployedLinkReferences": {}
}