{
  "_format": "hh-sol-artifact-1",
  "contractName": "StakeFactory",
  "sourceName": "contracts/stake/StakeFactory.sol",
  "abi": [
    {
      "inputs": [],
      "stateMutability": "nonpayable",
      "type": "constructor"
    },
    {
      "inputs": [
        {
          "internalType": "address",
          "name": "child",
          "type": "address"
        }
      ],
      "name": "DuplicateChild",
      "type": "error"
    },
    {
      "anonymous": false,
      "inputs": [
        {
          "indexed": false,
          "internalType": "address",
          "name": "sender",
          "type": "address"
        },
        {
          "indexed": false,
          "internalType": "address",
          "name": "implementation",
          "type": "address"
        }
      ],
      "name": "Implementation",
      "type": "event"
    },
    {
      "anonymous": false,
      "inputs": [
        {
          "indexed": false,
          "internalType": "uint8",
          "name": "version",
          "type": "uint8"
        }
      ],
      "name": "Initialized",
      "type": "event"
    },
    {
      "anonymous": false,
      "inputs": [
        {
          "indexed": false,
          "internalType": "address",
          "name": "sender",
          "type": "address"
        },
        {
          "indexed": false,
          "internalType": "address",
          "name": "child",
          "type": "address"
        }
      ],
      "name": "NewChild",
      "type": "event"
    },
    {
      "inputs": [
        {
          "internalType": "bytes",
          "name": "data_",
          "type": "bytes"
        }
      ],
      "name": "createChild",
      "outputs": [
        {
          "internalType": "address",
          "name": "",
          "type": "address"
        }
      ],
      "stateMutability": "nonpayable",
      "type": "function"
    },
    {
      "inputs": [
        {
          "components": [
            {
              "internalType": "contract IERC20MetadataUpgradeable",
              "name": "asset",
              "type": "address"
            },
            {
              "internalType": "string",
              "name": "name",
              "type": "string"
            },
            {
              "internalType": "string",
              "name": "symbol",
              "type": "string"
            },
            {
              "components": [
                {
                  "internalType": "contract IExpressionDeployerV1",
                  "name": "deployer",
                  "type": "address"
                },
                {
                  "internalType": "contract IInterpreterV1",
                  "name": "interpreter",
                  "type": "address"
                },
                {
                  "internalType": "contract IInterpreterStoreV1",
                  "name": "store",
                  "type": "address"
                },
                {
                  "components": [
                    {
                      "internalType": "bytes[]",
                      "name": "sources",
                      "type": "bytes[]"
                    },
                    {
                      "internalType": "uint256[]",
                      "name": "constants",
                      "type": "uint256[]"
                    }
                  ],
                  "internalType": "struct ExpressionConfig",
                  "name": "expressionConfig",
                  "type": "tuple"
                }
              ],
              "internalType": "struct EvaluableConfig",
              "name": "evaluableConfig",
              "type": "tuple"
            }
          ],
          "internalType": "struct StakeConfig",
          "name": "config_",
          "type": "tuple"
        }
      ],
      "name": "createChildTyped",
      "outputs": [
        {
          "internalType": "contract Stake",
          "name": "",
          "type": "address"
        }
      ],
      "stateMutability": "nonpayable",
      "type": "function"
    },
    {
      "inputs": [],
      "name": "implementation",
      "outputs": [
        {
          "internalType": "address",
          "name": "",
          "type": "address"
        }
      ],
      "stateMutability": "view",
      "type": "function"
    },
    {
      "inputs": [
        {
          "internalType": "address",
          "name": "maybeChild_",
          "type": "address"
        }
      ],
      "name": "isChild",
      "outputs": [
        {
          "internalType": "bool",
          "name": "",
          "type": "bool"
        }
      ],
      "stateMutability": "view",
      "type": "function"
    }
  ],
  "bytecode": "0x60a060405234801561001057600080fd5b50610019610099565b600060405161002790610159565b604051809103906000f080158015610043573d6000803e3d6000fd5b50604080513381526001600160a01b03831660208201529192507f7fac34ecf0b1b374cd9659e3d17db602659d53f1162b1f20142e6c02694aed70910160405180910390a16001600160a01b0316608052610166565b600054610100900460ff16156101055760405162461bcd60e51b815260206004820152602760248201527f496e697469616c697a61626c653a20636f6e747261637420697320696e697469604482015266616c697a696e6760c81b606482015260840160405180910390fd5b60005460ff9081161015610157576000805460ff191660ff9081179091556040519081527f7f26b83ff96e1f2b6a682f133852f6798a09c465da95921460cefb38474024989060200160405180910390a15b565b61498580610f3783390190565b608051610db061018760003960008181609301526103020152610db06000f3fe608060405234801561001057600080fd5b506004361061004c5760003560e01c80632ea72a49146100515780635c60da1b1461008e578063cf36fa41146100b5578063fc91a897146100c8575b600080fd5b61006461005f3660046105de565b610111565b60405173ffffffffffffffffffffffffffffffffffffffff90911681526020015b60405180910390f35b6100647f000000000000000000000000000000000000000000000000000000000000000081565b6100646100c33660046106ca565b61023f565b6101016100d63660046108b8565b73ffffffffffffffffffffffffffffffffffffffff1660009081526033602052604090205460ff1690565b6040519015158152602001610085565b600061011b61026f565b6000610126836102e2565b73ffffffffffffffffffffffffffffffffffffffff811660009081526033602052604090205490915060ff16156101a6576040517fd23867da00000000000000000000000000000000000000000000000000000000815273ffffffffffffffffffffffffffffffffffffffff821660048201526024015b60405180910390fd5b73ffffffffffffffffffffffffffffffffffffffff811660008181526033602090815260409182902080547fffffffffffffffffffffffffffffffffffffffffffffffffffffffffffffff001660011790558151338152908101929092527f7da70c4e5387d7038610b79ca7d304caaef815826e51e67cf247135387a79bce910160405180910390a1905061023a60018055565b919050565b600061026982604051602001610255919061094a565b604051602081830303815290604052610111565b92915050565b6002600154036102db576040517f08c379a000000000000000000000000000000000000000000000000000000000815260206004820152601f60248201527f5265656e7472616e637947756172643a207265656e7472616e742063616c6c00604482015260640161019d565b6002600155565b600080828060200190518101906102f99190610b96565b905060006103267f00000000000000000000000000000000000000000000000000000000000000006103b5565b6040517fe45484b000000000000000000000000000000000000000000000000000000000815290915073ffffffffffffffffffffffffffffffffffffffff82169063e45484b09061037b90859060040161094a565b600060405180830381600087803b15801561039557600080fd5b505af11580156103a9573d6000803e3d6000fd5b50929695505050505050565b6000763d602d80600a3d3981f3363d3d373d3d3d363d730000008260601b60e81c176000526e5af43d82803e903d91602b57fd5bf38260781b17602052603760096000f0905073ffffffffffffffffffffffffffffffffffffffff811661023a576040517f08c379a000000000000000000000000000000000000000000000000000000000815260206004820152601660248201527f455243313136373a20637265617465206661696c656400000000000000000000604482015260640161019d565b7f4e487b7100000000000000000000000000000000000000000000000000000000600052604160045260246000fd5b6040516080810167ffffffffffffffff811182821017156104ca576104ca610478565b60405290565b6040805190810167ffffffffffffffff811182821017156104ca576104ca610478565b604051601f82017fffffffffffffffffffffffffffffffffffffffffffffffffffffffffffffffe016810167ffffffffffffffff8111828210171561053a5761053a610478565b604052919050565b600067ffffffffffffffff82111561055c5761055c610478565b50601f017fffffffffffffffffffffffffffffffffffffffffffffffffffffffffffffffe01660200190565b600082601f83011261059957600080fd5b81356105ac6105a782610542565b6104f3565b8181528460208386010111156105c157600080fd5b816020850160208301376000918101602001919091529392505050565b6000602082840312156105f057600080fd5b813567ffffffffffffffff81111561060757600080fd5b61061384828501610588565b949350505050565b73ffffffffffffffffffffffffffffffffffffffff8116811461063d57600080fd5b50565b600067ffffffffffffffff82111561065a5761065a610478565b5060051b60200190565b600082601f83011261067557600080fd5b813560206106856105a783610640565b82815260059290921b840181019181810190868411156106a457600080fd5b8286015b848110156106bf57803583529183019183016106a8565b509695505050505050565b600060208083850312156106dd57600080fd5b823567ffffffffffffffff808211156106f557600080fd5b908401906080828703121561070957600080fd5b6107116104a7565b823561071c8161061b565b8152828401358281111561072f57600080fd5b61073b88828601610588565b858301525060408301358281111561075257600080fd5b61075e88828601610588565b60408301525060608301358281111561077657600080fd5b92909201916080838803121561078b57600080fd5b6107936104a7565b833561079e8161061b565b8152838501356107ad8161061b565b8186015260408401356107bf8161061b565b60408201526060840135838111156107d657600080fd5b9390930192604084890312156107eb57600080fd5b6107f36104d0565b84358481111561080257600080fd5b8501601f81018a1361081357600080fd5b80356108216105a782610640565b81815260059190911b8201880190888101908c83111561084057600080fd5b8984015b838110156108785780358981111561085c5760008081fd5b61086a8f8d83890101610588565b845250918a01918a01610844565b508452505050848601358481111561088f57600080fd5b61089b8a828801610664565b968201969096526060828101919091528201529695505050505050565b6000602082840312156108ca57600080fd5b81356108d58161061b565b9392505050565b60005b838110156108f75781810151838201526020016108df565b50506000910152565b600081518084526109188160208601602086016108dc565b601f017fffffffffffffffffffffffffffffffffffffffffffffffffffffffffffffffe0169290920160200192915050565b6000602080835273ffffffffffffffffffffffffffffffffffffffff8085511682850152818501516080604086015261098660a0860182610900565b905060408601517fffffffffffffffffffffffffffffffffffffffffffffffffffffffffffffffe0808784030160608801526109c28383610900565b92506060880151915080878403016080880152508281511682528284820151168483015282604082015116604083015260608101519250506080606082015260c0810182516040608084015281815180845260e08501915060e08160051b8601019350868301925060005b81811015610a79577fffffffffffffffffffffffffffffffffffffffffffffffffffffffffffffff20868603018352610a67858551610900565b94509287019291870191600101610a2d565b50505050918301518183037fffffffffffffffffffffffffffffffffffffffffffffffffffffffffffffff800160a0909201919091528051808352908301918301906000905b80821015610adf5783518352928401929184019160019190910190610abf565b50909695505050505050565b6000610af96105a784610542565b9050828152838383011115610b0d57600080fd5b6108d58360208301846108dc565b600082601f830112610b2c57600080fd5b6108d583835160208501610aeb565b600082601f830112610b4c57600080fd5b81516020610b5c6105a783610640565b82815260059290921b84018101918181019086841115610b7b57600080fd5b8286015b848110156106bf5780518352918301918301610b7f565b60006020808385031215610ba957600080fd5b825167ffffffffffffffff80821115610bc157600080fd5b9084019060808287031215610bd557600080fd5b610bdd6104a7565b8251610be88161061b565b81528284015182811115610bfb57600080fd5b610c0788828601610b1b565b8583015250604083015182811115610c1e57600080fd5b610c2a88828601610b1b565b604083015250606083015182811115610c4257600080fd5b929092019160808388031215610c5757600080fd5b610c5f6104a7565b8351610c6a8161061b565b815283850151610c798161061b565b818601526040840151610c8b8161061b565b6040820152606084015183811115610ca257600080fd5b939093019260408489031215610cb757600080fd5b610cbf6104d0565b845184811115610cce57600080fd5b8501601f81018a13610cdf57600080fd5b8051610ced6105a782610640565b81815260059190911b8201880190888101908c831115610d0c57600080fd5b8984015b83811015610d5757805189811115610d2757600080fd5b8501603f81018f13610d3857600080fd5b610d498f8d83015160408401610aeb565b845250918a01918a01610d10565b5084525050508486015184811115610d6e57600080fd5b61089b8a828801610b3b56fea26469706673582212206ce18c0d9ce093b78d0f8755a84222822835ee61ec245860e3cb04e302d2e74164736f6c6343000811003360806040523480156200001157600080fd5b506200001c62000022565b620000e4565b600054610100900460ff16156200008f5760405162461bcd60e51b815260206004820152602760248201527f496e697469616c697a61626c653a20636f6e747261637420697320696e697469604482015266616c697a696e6760c81b606482015260840160405180910390fd5b60005460ff9081161015620000e2576000805460ff191660ff9081179091556040519081527f7f26b83ff96e1f2b6a682f133852f6798a09c465da95921460cefb38474024989060200160405180910390a15b565b61489180620000f46000396000f3fe608060405234801561001057600080fd5b50600436106101f05760003560e01c806388d686041161010f578063c63d75b6116100a2578063d905777e11610071578063d905777e14610488578063dd62ed3e1461049b578063e45484b0146104e1578063ef8b30f71461044f57600080fd5b8063c63d75b61461043c578063c6e6f5921461044f578063caa0eb3b14610462578063ce96cb771461047557600080fd5b8063a9059cbb116100de578063a9059cbb146103f0578063b3d7f6b914610403578063b460af9414610416578063ba0876521461042957600080fd5b806388d68604146103af57806394bf804d146103c257806395d89b41146103d5578063a457c2d7146103dd57600080fd5b8063313ce5671161018757806346e482311161015657806346e482311461031a5780634cdad506146102485780636e553f651461036657806370a082311461037957600080fd5b8063313ce5671461029c57806338d52e0f146102cc57806339509351146102f4578063402d267d1461030757600080fd5b8063095ea7b3116101c3578063095ea7b31461025b5780630a28a4771461026e57806318160ddd1461028157806323b872dd1461028957600080fd5b806301e1d114146101f557806301ffc9a71461021057806306fdde031461023357806307a2d13a14610248575b600080fd5b6101fd6104f6565b6040519081526020015b60405180910390f35b61022361021e366004613abe565b61058e565b6040519015158152602001610207565b61023b610627565b6040516102079190613b6e565b6101fd610256366004613b81565b6106b9565b610223610269366004613bbc565b6106c6565b6101fd61027c366004613b81565b6106de565b6035546101fd565b610223610297366004613be8565b6106eb565b60655474010000000000000000000000000000000000000000900460ff1660405160ff9091168152602001610207565b60655460405173ffffffffffffffffffffffffffffffffffffffff9091168152602001610207565b610223610302366004613bbc565b610711565b6101fd610315366004613c29565b61075d565b61032d610328366004613bbc565b61077f565b6040805163ffffffff90931683527bffffffffffffffffffffffffffffffffffffffffffffffffffffffff909116602083015201610207565b6101fd610374366004613c46565b6107db565b6101fd610387366004613c29565b73ffffffffffffffffffffffffffffffffffffffff1660009081526033602052604090205490565b6101fd6103bd366004613cbb565b61086d565b6101fd6103d0366004613c46565b61091d565b61023b6109aa565b6102236103eb366004613bbc565b6109b9565b6102236103fe366004613bbc565b610a95565b6101fd610411366004613b81565b610aa3565b6101fd610424366004613d10565b610ab0565b6101fd610437366004613d10565b610b46565b6101fd61044a366004613c29565b610bd4565b6101fd61045d366004613b81565b610c18565b6101fd610470366004613d52565b610c25565b6101fd610483366004613c29565b610c89565b6101fd610496366004613c29565b610ca4565b6101fd6104a9366004613dae565b73ffffffffffffffffffffffffffffffffffffffff918216600090815260346020908152604080832093909416825291909152205490565b6104f46104ef366004613ddc565b610cca565b005b6065546040517f70a0823100000000000000000000000000000000000000000000000000000000815230600482015260009173ffffffffffffffffffffffffffffffffffffffff16906370a0823190602401602060405180830381865afa158015610565573d6000803e3d6000fd5b505050506040513d601f19601f820116820180604052508101906105899190613e17565b905090565b60007fffffffff0000000000000000000000000000000000000000000000000000000082167f42766d3f00000000000000000000000000000000000000000000000000000000148061062157507f01ffc9a7000000000000000000000000000000000000000000000000000000007fffffffff000000000000000000000000000000000000000000000000000000008316145b92915050565b60606036805461063690613e30565b80601f016020809104026020016040519081016040528092919081815260200182805461066290613e30565b80156106af5780601f10610684576101008083540402835291602001916106af565b820191906000526020600020905b81548152906001019060200180831161069257829003601f168201915b5050505050905090565b60006106218260006111a4565b6000336106d48185856111d7565b5060019392505050565b600061062182600161138a565b6000336106f98582856113bc565b610704858585611493565b60019150505b9392505050565b33600081815260346020908152604080832073ffffffffffffffffffffffffffffffffffffffff871684529091528120549091906106d49082908690610758908790613eb2565b6111d7565b60008061076983611709565b50905061070a6107788461174d565b8290611789565b60fb602052816000526040600020818154811061079b57600080fd5b60009182526020909120015463ffffffff8116925064010000000090047bffffffffffffffffffffffffffffffffffffffffffffffffffffffff16905082565b60006107e68261075d565b831115610854576040517f08c379a000000000000000000000000000000000000000000000000000000000815260206004820152601e60248201527f455243343632363a206465706f736974206d6f7265207468616e206d6178000060448201526064015b60405180910390fd5b600061085f84610c18565b905061070a3384868461179f565b7fffffffffffffffffffffffffffffffffffffffffffffffffffffffffffffffff811561070a57600063ffffffff815b848110156109135760008686838181106108b9576108b9613ec5565b9050602002013590506108cd888286611888565b9350507fffffffffffffffffffffffffffffffffffffffffffffffffffffffff0000000183016108fd5750610913565b6109088583856119e7565b94505060010161089d565b5050509392505050565b600061092882610bd4565b831115610991576040517f08c379a000000000000000000000000000000000000000000000000000000000815260206004820152601b60248201527f455243343632363a206d696e74206d6f7265207468616e206d61780000000000604482015260640161084b565b600061099c84610aa3565b905061070a3384838761179f565b60606037805461063690613e30565b33600081815260346020908152604080832073ffffffffffffffffffffffffffffffffffffffff8716845290915281205490919083811015610a7d576040517f08c379a000000000000000000000000000000000000000000000000000000000815260206004820152602560248201527f45524332303a2064656372656173656420616c6c6f77616e63652062656c6f7760448201527f207a65726f000000000000000000000000000000000000000000000000000000606482015260840161084b565b610a8a82868684036111d7565b506001949350505050565b6000336106d4818585611493565b60006106218260016111a4565b6000610abb82610c89565b841115610b24576040517f08c379a000000000000000000000000000000000000000000000000000000000815260206004820152601f60248201527f455243343632363a207769746864726177206d6f7265207468616e206d617800604482015260640161084b565b6000610b2f856106de565b9050610b3e3385858885611a71565b949350505050565b6000610b5182610ca4565b841115610bba576040517f08c379a000000000000000000000000000000000000000000000000000000000815260206004820152601d60248201527f455243343632363a2072656465656d206d6f7265207468616e206d6178000000604482015260640161084b565b6000610bc5856106b9565b9050610b3e3385858489611a71565b600080610be083611709565b50905061070a7fffffffffffffffffffffffffffffffffffffffffffffffffffffffffffffffff610c1283600061138a565b90611789565b600061062182600061138a565b600083600003610c3757506000610b3e565b818411610c7b5760008383610c4d600188613ef4565b818110610c5c57610c5c613ec5565b905060200201359050610c7186826000611888565b9250610b3e915050565b5063ffffffff949350505050565b600080610c9583611baf565b50905061070a61077884611be4565b600080610cb083611baf565b50905061070a610cbf84611c15565b610c1283600161138a565b600054610100900460ff1615808015610cea5750600054600160ff909116105b80610d045750303b158015610d04575060005460ff166001145b610d90576040517f08c379a000000000000000000000000000000000000000000000000000000000815260206004820152602e60248201527f496e697469616c697a61626c653a20636f6e747261637420697320616c72656160448201527f647920696e697469616c697a6564000000000000000000000000000000000000606482015260840161084b565b600080547fffffffffffffffffffffffffffffffffffffffffffffffffffffffffffffff001660011790558015610dee57600080547fffffffffffffffffffffffffffffffffffffffffffffffffffffffffffff00ff166101001790555b6000610dfd6020840184613c29565b73ffffffffffffffffffffffffffffffffffffffff1603610e4a576040517f7cde9b7200000000000000000000000000000000000000000000000000000000815260040160405180910390fd5b6000610e596060840184613f07565b610e6a906060810190604001613c29565b73ffffffffffffffffffffffffffffffffffffffff1614610eee57610e926060830183613f07565b610ea3906060810190604001613c29565b6040517f93ad15ff00000000000000000000000000000000000000000000000000000000815273ffffffffffffffffffffffffffffffffffffffff909116600482015260240161084b565b610ef6611c40565b610f82610f066020840184613f45565b8080601f016020809104026020016040519081016040528093929190818152602001838380828437600092019190915250610f48925050506040850185613f45565b8080601f016020809104026020016040519081016040528093929190818152602001838380828437600092019190915250611ce192505050565b610f97610f926020840184613c29565b611d82565b610f9f611e25565b610fac6060830183613f07565b610fbd906040810190602001613c29565b60fc80547fffffffffffffffffffffffff00000000000000000000000000000000000000001673ffffffffffffffffffffffffffffffffffffffff9290921691909117905561100f6060830183613f07565b61101d906020810190613c29565b73ffffffffffffffffffffffffffffffffffffffff16631ed061d96110456060850185613f07565b611053906060810190613faa565b61105e600180611ec4565b6040518363ffffffff1660e01b815260040161107b929190614218565b6020604051808303816000875af115801561109a573d6000803e3d6000fd5b505050506040513d601f19601f820116820180604052508101906110be919061423d565b60fd80547fffffffffffffffffffffffff00000000000000000000000000000000000000001673ffffffffffffffffffffffffffffffffffffffff929092169190911790556040517f89edea9b2ad40a756b70ff4445d729e1b66a926d6a517830a0b9fb949dac78b090611135903390859061425a565b60405180910390a180156111a057600080547fffffffffffffffffffffffffffffffffffffffffffffffffffffffffffff00ff169055604051600181527f7f26b83ff96e1f2b6a682f133852f6798a09c465da95921460cefb38474024989060200160405180910390a15b5050565b6000806111b060355490565b905080156111d1576111cc6111c36104f6565b85908386611ef8565b610b3e565b83610b3e565b73ffffffffffffffffffffffffffffffffffffffff8316611279576040517f08c379a0000000000000000000000000000000000000000000000000000000008152602060048201526024808201527f45524332303a20617070726f76652066726f6d20746865207a65726f2061646460448201527f7265737300000000000000000000000000000000000000000000000000000000606482015260840161084b565b73ffffffffffffffffffffffffffffffffffffffff821661131c576040517f08c379a000000000000000000000000000000000000000000000000000000000815260206004820152602260248201527f45524332303a20617070726f766520746f20746865207a65726f20616464726560448201527f7373000000000000000000000000000000000000000000000000000000000000606482015260840161084b565b73ffffffffffffffffffffffffffffffffffffffff83811660008181526034602090815260408083209487168084529482529182902085905590518481527f8c5be1e5ebec7d5bd14f71427d1e84f3dd0314c0f7b2291e5b200ac8c7c3b925910160405180910390a3505050565b60008061139660355490565b90508315806113a3575080155b6111d1576111cc816113b36104f6565b86919086611ef8565b73ffffffffffffffffffffffffffffffffffffffff8381166000908152603460209081526040808320938616835292905220547fffffffffffffffffffffffffffffffffffffffffffffffffffffffffffffffff811461148d5781811015611480576040517f08c379a000000000000000000000000000000000000000000000000000000000815260206004820152601d60248201527f45524332303a20696e73756666696369656e7420616c6c6f77616e6365000000604482015260640161084b565b61148d84848484036111d7565b50505050565b73ffffffffffffffffffffffffffffffffffffffff8316611536576040517f08c379a000000000000000000000000000000000000000000000000000000000815260206004820152602560248201527f45524332303a207472616e736665722066726f6d20746865207a65726f20616460448201527f6472657373000000000000000000000000000000000000000000000000000000606482015260840161084b565b73ffffffffffffffffffffffffffffffffffffffff82166115d9576040517f08c379a000000000000000000000000000000000000000000000000000000000815260206004820152602360248201527f45524332303a207472616e7366657220746f20746865207a65726f206164647260448201527f6573730000000000000000000000000000000000000000000000000000000000606482015260840161084b565b73ffffffffffffffffffffffffffffffffffffffff83166000908152603360205260409020548181101561168f576040517f08c379a000000000000000000000000000000000000000000000000000000000815260206004820152602660248201527f45524332303a207472616e7366657220616d6f756e742065786365656473206260448201527f616c616e63650000000000000000000000000000000000000000000000000000606482015260840161084b565b73ffffffffffffffffffffffffffffffffffffffff80851660008181526033602052604080822086860390559286168082529083902080548601905591517fddf252ad1be2c89b69c2b068fc378daa952ba7f163c4a11628f55a4df523b3ef906116fc9086815260200190565b60405180910390a361148d565b6000606061174461173e60fd5460009060201b77ffffffffffffffffffffffffffffffffffffffff0000000016600117905090565b84611f5a565b91509150915091565b6000611757612128565b611762576000610621565b7fffffffffffffffffffffffffffffffffffffffffffffffffffffffffffffffff92915050565b6000818310611798578161070a565b5090919050565b6117a7612142565b73ffffffffffffffffffffffffffffffffffffffff83166117f4576040517fc36fd29400000000000000000000000000000000000000000000000000000000815260040160405180910390fd5b8160000361182e576040517f980c860d00000000000000000000000000000000000000000000000000000000815260040160405180910390fd5b80600003611868576040517f7cca5eb700000000000000000000000000000000000000000000000000000000815260040160405180910390fd5b611874848484846121b5565b61187e838261225a565b61148d600160c955565b73ffffffffffffffffffffffffffffffffffffffff8316600090815260fb60209081526040808320548151808301909252838252918101839052909190829082905b8486101561197f576118dc86866123ed565b73ffffffffffffffffffffffffffffffffffffffff8916600090815260fb602052604090208054919350908390811061191757611917613ec5565b60009182526020918290206040805180820190915291015463ffffffff8116825264010000000090047bffffffffffffffffffffffffffffffffffffffffffffffffffffffff1691810182905291508711611974578194506118ca565b8160010195506118ca565b8285146119d45773ffffffffffffffffffffffffffffffffffffffff8816600090815260fb602052604090208054869081106119bd576119bd613ec5565b60009182526020909120015463ffffffff166119da565b63ffffffff5b9350505050935093915050565b6000826008811115611a55576040517f08c379a000000000000000000000000000000000000000000000000000000000815260206004820152600860248201527f4d41585f54494552000000000000000000000000000000000000000000000000604482015260640161084b565b505060209190910290811b63ffffffff90911b19919091161790565b611a79612142565b73ffffffffffffffffffffffffffffffffffffffff8416611ac6576040517f40299ac800000000000000000000000000000000000000000000000000000000815260040160405180910390fd5b73ffffffffffffffffffffffffffffffffffffffff8316611b13576040517fb46efd9700000000000000000000000000000000000000000000000000000000815260040160405180910390fd5b81600003611b4d576040517fe10fa04e00000000000000000000000000000000000000000000000000000000815260040160405180910390fd5b80600003611b87576040517f650f713b00000000000000000000000000000000000000000000000000000000815260040160405180910390fd5b611b918382612408565b611b9e8585858585612665565b611ba8600160c955565b5050505050565b6000606061174461173e60fd5477ffffffffffffffffffffffffffffffffffffffff0000000060209190911b16620100011790565b73ffffffffffffffffffffffffffffffffffffffff81166000908152603360205260408120546106219060006111a4565b73ffffffffffffffffffffffffffffffffffffffff8116600090815260336020526040812054610621565b600054610100900460ff16611cd7576040517f08c379a000000000000000000000000000000000000000000000000000000000815260206004820152602b60248201527f496e697469616c697a61626c653a20636f6e7472616374206973206e6f74206960448201527f6e697469616c697a696e67000000000000000000000000000000000000000000606482015260840161084b565b611cdf61275f565b565b600054610100900460ff16611d78576040517f08c379a000000000000000000000000000000000000000000000000000000000815260206004820152602b60248201527f496e697469616c697a61626c653a20636f6e7472616374206973206e6f74206960448201527f6e697469616c697a696e67000000000000000000000000000000000000000000606482015260840161084b565b6111a082826127f6565b600054610100900460ff16611e19576040517f08c379a000000000000000000000000000000000000000000000000000000000815260206004820152602b60248201527f496e697469616c697a61626c653a20636f6e7472616374206973206e6f74206960448201527f6e697469616c697a696e67000000000000000000000000000000000000000000606482015260840161084b565b611e22816128a6565b50565b600054610100900460ff16611ebc576040517f08c379a000000000000000000000000000000000000000000000000000000000815260206004820152602b60248201527f496e697469616c697a61626c653a20636f6e7472616374206973206e6f74206960448201527f6e697469616c697a696e67000000000000000000000000000000000000000000606482015260840161084b565b611cdf6129e9565b6040805160028082526060808301845292600092919060208301908036833750505060208101949094525050604082015290565b600080611f06868686612a80565b90506001836002811115611f1c57611f1c6143f2565b148015611f39575060008480611f3457611f34614421565b868809115b15611f4c57611f49600182613eb2565b90505b95945050505050565b505050565b60fc5460009060609073ffffffffffffffffffffffffffffffffffffffff16636715f82583808761204182604051908082528060200260200182016040528015611fb857816020015b6060815260200190600190039081611fa35790505b50611fd88a73ffffffffffffffffffffffffffffffffffffffff16612b4d565b604080516000808252602082019092529061203b565b6120286040518060600160405280600073ffffffffffffffffffffffffffffffffffffffff16815260200160608152602001606081525090565b815260200190600190039081611fee5790505b50612b7f565b6040518563ffffffff1660e01b81526004016120609493929190614450565b600060405180830381865afa9250505080156120bc57506040513d6000823e601f3d9081017fffffffffffffffffffffffffffffffffffffffffffffffffffffffffffffffe01682016040526120b991908101906145aa565b60015b6120d757505060408051600080825260208201909252612121565b81516000036120fb5760408051600080825260208201909252935093505050612121565b8160018351038151811061211157612111613ec5565b6020026020010151819350935050505b9250929050565b6000806121336104f6565b11806105895750506035541590565b600260c954036121ae576040517f08c379a000000000000000000000000000000000000000000000000000000000815260206004820152601f60248201527f5265656e7472616e637947756172643a207265656e7472616e742063616c6c00604482015260640161084b565b600260c955565b6065546121da9073ffffffffffffffffffffffffffffffffffffffff16853085612ee9565b6121e48382612fc5565b8273ffffffffffffffffffffffffffffffffffffffff168473ffffffffffffffffffffffffffffffffffffffff167fdcbc1c05240f31ff3ad067ef1ee35ce4997762752e3a095284754544f4c709d7848460405161224c929190918252602082015260400190565b60405180910390a350505050565b73ffffffffffffffffffffffffffffffffffffffff8216600090815260fb6020526040812054908161228d576000612300565b73ffffffffffffffffffffffffffffffffffffffff8416600090815260fb602052604090206122bd600184613ef4565b815481106122cd576122cd613ec5565b60009182526020909120015464010000000090047bffffffffffffffffffffffffffffffffffffffffffffffffffffffff165b7bffffffffffffffffffffffffffffffffffffffffffffffffffffffff16905060fb60008573ffffffffffffffffffffffffffffffffffffffff1673ffffffffffffffffffffffffffffffffffffffff16815260200190815260200160002060405180604001604052804263ffffffff16815260200161238a86856123859190613eb2565b6130ba565b7bffffffffffffffffffffffffffffffffffffffffffffffffffffffff90811690915282546001810184556000938452602093849020835194909301519091166401000000000263ffffffff9093169290921791015550505050565b600160c955565b60006123fc600284841861460e565b61070a90848416613eb2565b73ffffffffffffffffffffffffffffffffffffffff8216600090815260fb602052604081205461243a90600190613ef4565b73ffffffffffffffffffffffffffffffffffffffff8416600090815260fb60205260408120805492935090918390811061247657612476613ec5565b600091825260208220015464010000000090047bffffffffffffffffffffffffffffffffffffffffffffffffffffffff1691506124b38483613ef4565b9050600081156124cd576124c986836000611888565b5090505b8084111561254c5773ffffffffffffffffffffffffffffffffffffffff8616600090815260fb6020526040902080548061250957612509614649565b60008281526020812082017fffffffffffffffffffffffffffffffffffffffffffffffffffffffffffffffff9081019190915590810190915593909301926124cd565b81156125f25761255b826130ba565b73ffffffffffffffffffffffffffffffffffffffff8716600090815260fb6020526040902080548390811061259257612592613ec5565b9060005260206000200160000160046101000a8154817bffffffffffffffffffffffffffffffffffffffffffffffffffffffff02191690837bffffffffffffffffffffffffffffffffffffffffffffffffffffffff16021790555061265d565b73ffffffffffffffffffffffffffffffffffffffff8616600090815260fb6020526040902080548061262657612626614649565b60008281526020812082017fffffffffffffffffffffffffffffffffffffffffffffffffffffffffffffffff908101919091550190555b505050505050565b8273ffffffffffffffffffffffffffffffffffffffff168573ffffffffffffffffffffffffffffffffffffffff16146126a3576126a38386836113bc565b6126ad838261316c565b6065546126d19073ffffffffffffffffffffffffffffffffffffffff168584613332565b8273ffffffffffffffffffffffffffffffffffffffff168473ffffffffffffffffffffffffffffffffffffffff168673ffffffffffffffffffffffffffffffffffffffff167ffbde797d201c681b91056529119e0b02407c7bb96a4a2c75c01fc9667232c8db8585604051612750929190918252602082015260400190565b60405180910390a45050505050565b600054610100900460ff166123e6576040517f08c379a000000000000000000000000000000000000000000000000000000000815260206004820152602b60248201527f496e697469616c697a61626c653a20636f6e7472616374206973206e6f74206960448201527f6e697469616c697a696e67000000000000000000000000000000000000000000606482015260840161084b565b600054610100900460ff1661288d576040517f08c379a000000000000000000000000000000000000000000000000000000000815260206004820152602b60248201527f496e697469616c697a61626c653a20636f6e7472616374206973206e6f74206960448201527f6e697469616c697a696e67000000000000000000000000000000000000000000606482015260840161084b565b603661289983826146be565b506037611f5582826146be565b600054610100900460ff1661293d576040517f08c379a000000000000000000000000000000000000000000000000000000000815260206004820152602b60248201527f496e697469616c697a61626c653a20636f6e7472616374206973206e6f74206960448201527f6e697469616c697a696e67000000000000000000000000000000000000000000606482015260840161084b565b60008061294983613388565b915091508161295957601261295b565b805b6065805473ffffffffffffffffffffffffffffffffffffffff9095167fffffffffffffffffffffffff000000000000000000000000000000000000000060ff939093167401000000000000000000000000000000000000000002929092167fffffffffffffffffffffff00000000000000000000000000000000000000000090951694909417179092555050565b600054610100900460ff16611cdf576040517f08c379a000000000000000000000000000000000000000000000000000000000815260206004820152602b60248201527f496e697469616c697a61626c653a20636f6e7472616374206973206e6f74206960448201527f6e697469616c697a696e67000000000000000000000000000000000000000000606482015260840161084b565b600080807fffffffffffffffffffffffffffffffffffffffffffffffffffffffffffffffff85870985870292508281108382030391505080600003612ad857838281612ace57612ace614421565b049250505061070a565b808411612ae457600080fd5b60008486880960026001871981018816978890046003810283188082028403028082028403028082028403028082028403028082028403029081029092039091026000889003889004909101858311909403939093029303949094049190911702949350505050565b604080516001808252818301909252606091600091906020808301908036833750505060208101939093525090919050565b60606000825167ffffffffffffffff811115612b9d57612b9d6143c3565b604051908082528060200260200182016040528015612bc6578160200160208202803683370190505b509050600080845111612bda576000612be0565b83516001015b865101600201905060008167ffffffffffffffff811115612c0357612c036143c3565b604051908082528060200260200182016040528015612c3657816020015b6060815260200190600190039081612c215790505b5090506000612c436134a1565b828281518110612c5557612c55613ec5565b602002602001018190525060005b8851811015612cb3578180600101925050888181518110612c8657612c86613ec5565b6020026020010151838381518110612ca057612ca0613ec5565b6020908102919091010152600101612c63565b50808060010191505086828281518110612ccf57612ccf613ec5565b6020908102919091010152855115612ede57808060010191505083828281518110612cfc57612cfc613ec5565b602002602001018190525060005b8651811015612edc57612e06878281518110612d2857612d28613ec5565b602002602001015160000151612de3898481518110612d4957612d49613ec5565b602002602001015160400151604051602001612d6591906147d8565b604080517fffffffffffffffffffffffffffffffffffffffffffffffffffffffffffffffe081840301815282825280516020918201207f19457468657265756d205369676e6564204d6573736167653a0a33320000000084830152603c8085019190915282518085039091018152605c909301909152815191012090565b898481518110612df557612df5613ec5565b6020026020010151602001516134ad565b612e3f576040517f52bf98480000000000000000000000000000000000000000000000000000000081526004810182905260240161084b565b868181518110612e5157612e51613ec5565b60200260200101516000015173ffffffffffffffffffffffffffffffffffffffff16858281518110612e8557612e85613ec5565b6020026020010181815250508180600101925050868181518110612eab57612eab613ec5565b602002602001015160400151838381518110612ec957612ec9613ec5565b6020908102919091010152600101612d0a565b505b509695505050505050565b60405173ffffffffffffffffffffffffffffffffffffffff8085166024830152831660448201526064810182905261148d9085907f23b872dd00000000000000000000000000000000000000000000000000000000906084015b604080517fffffffffffffffffffffffffffffffffffffffffffffffffffffffffffffffe08184030181529190526020810180517bffffffffffffffffffffffffffffffffffffffffffffffffffffffff167fffffffff000000000000000000000000000000000000000000000000000000009093169290921790915261367a565b73ffffffffffffffffffffffffffffffffffffffff8216613042576040517f08c379a000000000000000000000000000000000000000000000000000000000815260206004820152601f60248201527f45524332303a206d696e7420746f20746865207a65726f206164647265737300604482015260640161084b565b80603560008282546130549190613eb2565b909155505073ffffffffffffffffffffffffffffffffffffffff82166000818152603360209081526040808320805486019055518481527fddf252ad1be2c89b69c2b068fc378daa952ba7f163c4a11628f55a4df523b3ef910160405180910390a35050565b60007bffffffffffffffffffffffffffffffffffffffffffffffffffffffff821115613168576040517f08c379a000000000000000000000000000000000000000000000000000000000815260206004820152602760248201527f53616665436173743a2076616c756520646f65736e27742066697420696e203260448201527f3234206269747300000000000000000000000000000000000000000000000000606482015260840161084b565b5090565b73ffffffffffffffffffffffffffffffffffffffff821661320f576040517f08c379a000000000000000000000000000000000000000000000000000000000815260206004820152602160248201527f45524332303a206275726e2066726f6d20746865207a65726f2061646472657360448201527f7300000000000000000000000000000000000000000000000000000000000000606482015260840161084b565b73ffffffffffffffffffffffffffffffffffffffff8216600090815260336020526040902054818110156132c5576040517f08c379a000000000000000000000000000000000000000000000000000000000815260206004820152602260248201527f45524332303a206275726e20616d6f756e7420657863656564732062616c616e60448201527f6365000000000000000000000000000000000000000000000000000000000000606482015260840161084b565b73ffffffffffffffffffffffffffffffffffffffff831660008181526033602090815260408083208686039055603580548790039055518581529192917fddf252ad1be2c89b69c2b068fc378daa952ba7f163c4a11628f55a4df523b3ef910160405180910390a3505050565b60405173ffffffffffffffffffffffffffffffffffffffff8316602482015260448101829052611f559084907fa9059cbb0000000000000000000000000000000000000000000000000000000090606401612f43565b60408051600481526024810182526020810180517bffffffffffffffffffffffffffffffffffffffffffffffffffffffff167f313ce56700000000000000000000000000000000000000000000000000000000179052905160009182918291829173ffffffffffffffffffffffffffffffffffffffff87169161340a9161480e565b6000604051808303816000865af19150503d8060008114613447576040519150601f19603f3d011682016040523d82523d6000602084013e61344c565b606091505b509150915081801561346057506020815110155b156134945760008180602001905181019061347b9190613e17565b905060ff8111613492576001969095509350505050565b505b5060009485945092505050565b60606105893330611ec4565b60008060006134bc8585613786565b909250905060008160048111156134d5576134d56143f2565b14801561350d57508573ffffffffffffffffffffffffffffffffffffffff168273ffffffffffffffffffffffffffffffffffffffff16145b1561351d5760019250505061070a565b6000808773ffffffffffffffffffffffffffffffffffffffff16631626ba7e60e01b8888604051602401613552929190614820565b604080517fffffffffffffffffffffffffffffffffffffffffffffffffffffffffffffffe08184030181529181526020820180517bffffffffffffffffffffffffffffffffffffffffffffffffffffffff167fffffffff000000000000000000000000000000000000000000000000000000009094169390931790925290516135db919061480e565b600060405180830381855afa9150503d8060008114613616576040519150601f19603f3d011682016040523d82523d6000602084013e61361b565b606091505b509150915081801561362e575080516020145b801561366e575080517f1626ba7e000000000000000000000000000000000000000000000000000000009061366c9083016020908101908401613e17565b145b98975050505050505050565b60006136dc826040518060400160405280602081526020017f5361666545524332303a206c6f772d6c6576656c2063616c6c206661696c65648152508573ffffffffffffffffffffffffffffffffffffffff166137c89092919063ffffffff16565b805190915015611f5557808060200190518101906136fa9190614839565b611f55576040517f08c379a000000000000000000000000000000000000000000000000000000000815260206004820152602a60248201527f5361666545524332303a204552433230206f7065726174696f6e20646964206e60448201527f6f74207375636365656400000000000000000000000000000000000000000000606482015260840161084b565b60008082516041036137bc5760208301516040840151606085015160001a6137b0878285856137d7565b94509450505050612121565b50600090506002612121565b6060610b3e84846000856138c6565b6000807f7fffffffffffffffffffffffffffffff5d576e7357a4501ddfe92f46681b20a083111561380e57506000905060036138bd565b6040805160008082526020820180845289905260ff881692820192909252606081018690526080810185905260019060a0016020604051602081039080840390855afa158015613862573d6000803e3d6000fd5b50506040517fffffffffffffffffffffffffffffffffffffffffffffffffffffffffffffffe0015191505073ffffffffffffffffffffffffffffffffffffffff81166138b6576000600192509250506138bd565b9150600090505b94509492505050565b606082471015613958576040517f08c379a000000000000000000000000000000000000000000000000000000000815260206004820152602660248201527f416464726573733a20696e73756666696369656e742062616c616e636520666f60448201527f722063616c6c0000000000000000000000000000000000000000000000000000606482015260840161084b565b6000808673ffffffffffffffffffffffffffffffffffffffff168587604051613981919061480e565b60006040518083038185875af1925050503d80600081146139be576040519150601f19603f3d011682016040523d82523d6000602084013e6139c3565b606091505b50915091506139d4878383876139df565b979650505050505050565b60608315613a75578251600003613a6e5773ffffffffffffffffffffffffffffffffffffffff85163b613a6e576040517f08c379a000000000000000000000000000000000000000000000000000000000815260206004820152601d60248201527f416464726573733a2063616c6c20746f206e6f6e2d636f6e7472616374000000604482015260640161084b565b5081610b3e565b610b3e8383815115613a8a5781518083602001fd5b806040517f08c379a000000000000000000000000000000000000000000000000000000000815260040161084b9190613b6e565b600060208284031215613ad057600080fd5b81357fffffffff000000000000000000000000000000000000000000000000000000008116811461070a57600080fd5b60005b83811015613b1b578181015183820152602001613b03565b50506000910152565b60008151808452613b3c816020860160208601613b00565b601f017fffffffffffffffffffffffffffffffffffffffffffffffffffffffffffffffe0169290920160200192915050565b60208152600061070a6020830184613b24565b600060208284031215613b9357600080fd5b5035919050565b73ffffffffffffffffffffffffffffffffffffffff81168114611e2257600080fd5b60008060408385031215613bcf57600080fd5b8235613bda81613b9a565b946020939093013593505050565b600080600060608486031215613bfd57600080fd5b8335613c0881613b9a565b92506020840135613c1881613b9a565b929592945050506040919091013590565b600060208284031215613c3b57600080fd5b813561070a81613b9a565b60008060408385031215613c5957600080fd5b823591506020830135613c6b81613b9a565b809150509250929050565b60008083601f840112613c8857600080fd5b50813567ffffffffffffffff811115613ca057600080fd5b6020830191508360208260051b850101111561212157600080fd5b600080600060408486031215613cd057600080fd5b8335613cdb81613b9a565b9250602084013567ffffffffffffffff811115613cf757600080fd5b613d0386828701613c76565b9497909650939450505050565b600080600060608486031215613d2557600080fd5b833592506020840135613d3781613b9a565b91506040840135613d4781613b9a565b809150509250925092565b60008060008060608587031215613d6857600080fd5b8435613d7381613b9a565b935060208501359250604085013567ffffffffffffffff811115613d9657600080fd5b613da287828801613c76565b95989497509550505050565b60008060408385031215613dc157600080fd5b8235613dcc81613b9a565b91506020830135613c6b81613b9a565b600060208284031215613dee57600080fd5b813567ffffffffffffffff811115613e0557600080fd5b82016080818503121561070a57600080fd5b600060208284031215613e2957600080fd5b5051919050565b600181811c90821680613e4457607f821691505b602082108103613e7d577f4e487b7100000000000000000000000000000000000000000000000000000000600052602260045260246000fd5b50919050565b7f4e487b7100000000000000000000000000000000000000000000000000000000600052601160045260246000fd5b8082018082111561062157610621613e83565b7f4e487b7100000000000000000000000000000000000000000000000000000000600052603260045260246000fd5b8181038181111561062157610621613e83565b600082357fffffffffffffffffffffffffffffffffffffffffffffffffffffffffffffff81833603018112613f3b57600080fd5b9190910192915050565b60008083357fffffffffffffffffffffffffffffffffffffffffffffffffffffffffffffffe1843603018112613f7a57600080fd5b83018035915067ffffffffffffffff821115613f9557600080fd5b60200191503681900382131561212157600080fd5b600082357fffffffffffffffffffffffffffffffffffffffffffffffffffffffffffffffc1833603018112613f3b57600080fd5b60008083357fffffffffffffffffffffffffffffffffffffffffffffffffffffffffffffffe184360301811261401357600080fd5b830160208101925035905067ffffffffffffffff81111561403357600080fd5b8060051b360382131561212157600080fd5b8183528181602085013750600060208284010152600060207fffffffffffffffffffffffffffffffffffffffffffffffffffffffffffffffe0601f840116840101905092915050565b60008083357fffffffffffffffffffffffffffffffffffffffffffffffffffffffffffffffe18436030181126140c357600080fd5b830160208101925035905067ffffffffffffffff8111156140e357600080fd5b80360382131561212157600080fd5b6000604083016141028384613fde565b604086528281845260608701905060608260051b88010193508260005b8381101561417a577fffffffffffffffffffffffffffffffffffffffffffffffffffffffffffffffa0898703018352614158828661408e565b614163888284614045565b97505050602092830192919091019060010161411f565b505050505061418c6020840184613fde565b85830360208701528083527f07ffffffffffffffffffffffffffffffffffffffffffffffffffffffffffffff8111156141c457600080fd5b60051b8082602085013791909101602001949350505050565b600081518084526020808501945080840160005b8381101561420d578151875295820195908201906001016141f1565b509495945050505050565b60408152600061422b60408301856140f2565b8281036020840152611f4c81856141dd565b60006020828403121561424f57600080fd5b815161070a81613b9a565b600073ffffffffffffffffffffffffffffffffffffffff808516835260406020840152833561428881613b9a565b8116604084015261429c602085018561408e565b608060608601526142b160c086018284614045565b9150506142c1604086018661408e565b7fffffffffffffffffffffffffffffffffffffffffffffffffffffffffffffffc0808785030160808801526142f7848385614045565b9350606088013592507fffffffffffffffffffffffffffffffffffffffffffffffffffffffffffffff8188360301831261433057600080fd5b8684030160a0870152508501803561434781613b9a565b83168252602081013561435981613b9a565b83166020830152604081013561436e81613b9a565b9092166040820152606082013591368190037fffffffffffffffffffffffffffffffffffffffffffffffffffffffffffffffc10183126143ad57600080fd5b608060608301526139d4608083018285016140f2565b7f4e487b7100000000000000000000000000000000000000000000000000000000600052604160045260246000fd5b7f4e487b7100000000000000000000000000000000000000000000000000000000600052602160045260246000fd5b7f4e487b7100000000000000000000000000000000000000000000000000000000600052601260045260246000fd5b60006080820173ffffffffffffffffffffffffffffffffffffffff87168352602086818501528560408501526080606085015281855180845260a08601915060a08160051b870101935082870160005b828110156144ec577fffffffffffffffffffffffffffffffffffffffffffffffffffffffffffffff608887030184526144da8683516141dd565b955092840192908401906001016144a0565b50939a9950505050505050505050565b600082601f83011261450d57600080fd5b8151602067ffffffffffffffff8083111561452a5761452a6143c3565b8260051b6040517fffffffffffffffffffffffffffffffffffffffffffffffffffffffffffffffe0603f8301168101818110848211171561456d5761456d6143c3565b60405293845285810183019383810192508785111561458b57600080fd5b83870191505b848210156139d457815183529183019190830190614591565b600080604083850312156145bd57600080fd5b825167ffffffffffffffff808211156145d557600080fd5b6145e1868387016144fc565b935060208501519150808211156145f757600080fd5b50614604858286016144fc565b9150509250929050565b600082614644577f4e487b7100000000000000000000000000000000000000000000000000000000600052601260045260246000fd5b500490565b7f4e487b7100000000000000000000000000000000000000000000000000000000600052603160045260246000fd5b601f821115611f5557600081815260208120601f850160051c8101602086101561469f5750805b601f850160051c820191505b8181101561265d578281556001016146ab565b815167ffffffffffffffff8111156146d8576146d86143c3565b6146ec816146e68454613e30565b84614678565b602080601f83116001811461473f57600084156147095750858301515b7fffffffffffffffffffffffffffffffffffffffffffffffffffffffffffffffff600386901b1c1916600185901b17855561265d565b6000858152602081207fffffffffffffffffffffffffffffffffffffffffffffffffffffffffffffffe08616915b8281101561478c5788860151825594840194600190910190840161476d565b50858210156147c857878501517fffffffffffffffffffffffffffffffffffffffffffffffffffffffffffffffff600388901b60f8161c191681555b5050505050600190811b01905550565b815160009082906020808601845b83811015614802578151855293820193908201906001016147e6565b50929695505050505050565b60008251613f3b818460208701613b00565b828152604060208201526000610b3e6040830184613b24565b60006020828403121561484b57600080fd5b8151801515811461070a57600080fdfea26469706673582212200695f3fa8be3eaca4f219d6130dc659a3d1c5bd482e988207d0fd5d0aa4c020764736f6c63430008110033",
  "linkReferences": {},
  "deployedLinkReferences": {}
}